{
  "contractName": "RocketToken",
  "abi": [
    {
      "inputs": [],
      "stateMutability": "nonpayable",
      "type": "constructor"
    },
    {
      "anonymous": false,
      "inputs": [
        {
          "indexed": true,
          "internalType": "address",
          "name": "owner",
          "type": "address"
        },
        {
          "indexed": true,
          "internalType": "address",
          "name": "approved",
          "type": "address"
        },
        {
          "indexed": true,
          "internalType": "uint256",
          "name": "tokenId",
          "type": "uint256"
        }
      ],
      "name": "Approval",
      "type": "event"
    },
    {
      "anonymous": false,
      "inputs": [
        {
          "indexed": true,
          "internalType": "address",
          "name": "owner",
          "type": "address"
        },
        {
          "indexed": true,
          "internalType": "address",
          "name": "operator",
          "type": "address"
        },
        {
          "indexed": false,
          "internalType": "bool",
          "name": "approved",
          "type": "bool"
        }
      ],
      "name": "ApprovalForAll",
      "type": "event"
    },
    {
      "anonymous": false,
      "inputs": [
        {
          "indexed": true,
          "internalType": "address",
          "name": "previousOwner",
          "type": "address"
        },
        {
          "indexed": true,
          "internalType": "address",
          "name": "newOwner",
          "type": "address"
        }
      ],
      "name": "OwnershipTransferred",
      "type": "event"
    },
    {
      "anonymous": false,
      "inputs": [
        {
          "indexed": false,
          "internalType": "address",
          "name": "account",
          "type": "address"
        }
      ],
      "name": "Paused",
      "type": "event"
    },
    {
      "anonymous": false,
      "inputs": [
        {
          "indexed": true,
          "internalType": "address",
          "name": "from",
          "type": "address"
        },
        {
          "indexed": true,
          "internalType": "address",
          "name": "to",
          "type": "address"
        },
        {
          "indexed": true,
          "internalType": "uint256",
          "name": "tokenId",
          "type": "uint256"
        }
      ],
      "name": "Transfer",
      "type": "event"
    },
    {
      "anonymous": false,
      "inputs": [
        {
          "indexed": false,
          "internalType": "address",
          "name": "account",
          "type": "address"
        }
      ],
      "name": "Unpaused",
      "type": "event"
    },
    {
      "inputs": [
        {
          "internalType": "address",
          "name": "to",
          "type": "address"
        },
        {
          "internalType": "uint256",
          "name": "tokenId",
          "type": "uint256"
        }
      ],
      "name": "approve",
      "outputs": [],
      "stateMutability": "nonpayable",
      "type": "function"
    },
    {
      "inputs": [
        {
          "internalType": "address",
          "name": "owner",
          "type": "address"
        }
      ],
      "name": "balanceOf",
      "outputs": [
        {
          "internalType": "uint256",
          "name": "",
          "type": "uint256"
        }
      ],
      "stateMutability": "view",
      "type": "function",
      "constant": true
    },
    {
      "inputs": [
        {
          "internalType": "uint256",
          "name": "tokenId",
          "type": "uint256"
        }
      ],
      "name": "burn",
      "outputs": [],
      "stateMutability": "nonpayable",
      "type": "function"
    },
    {
      "inputs": [
        {
          "internalType": "uint256",
          "name": "tokenId",
          "type": "uint256"
        }
      ],
      "name": "getApproved",
      "outputs": [
        {
          "internalType": "address",
          "name": "",
          "type": "address"
        }
      ],
      "stateMutability": "view",
      "type": "function",
      "constant": true
    },
    {
      "inputs": [
        {
          "internalType": "address",
          "name": "owner",
          "type": "address"
        },
        {
          "internalType": "address",
          "name": "operator",
          "type": "address"
        }
      ],
      "name": "isApprovedForAll",
      "outputs": [
        {
          "internalType": "bool",
          "name": "",
          "type": "bool"
        }
      ],
      "stateMutability": "view",
      "type": "function",
      "constant": true
    },
    {
      "inputs": [
        {
          "internalType": "address",
          "name": "",
          "type": "address"
        }
      ],
      "name": "listForFreeNFT",
      "outputs": [
        {
          "internalType": "bool",
          "name": "",
          "type": "bool"
        }
      ],
      "stateMutability": "view",
      "type": "function",
      "constant": true
    },
    {
      "inputs": [],
      "name": "name",
      "outputs": [
        {
          "internalType": "string",
          "name": "",
          "type": "string"
        }
      ],
      "stateMutability": "view",
      "type": "function",
      "constant": true
    },
    {
      "inputs": [],
      "name": "owner",
      "outputs": [
        {
          "internalType": "address",
          "name": "",
          "type": "address"
        }
      ],
      "stateMutability": "view",
      "type": "function",
      "constant": true
    },
    {
      "inputs": [
        {
          "internalType": "uint256",
          "name": "tokenId",
          "type": "uint256"
        }
      ],
      "name": "ownerOf",
      "outputs": [
        {
          "internalType": "address",
          "name": "",
          "type": "address"
        }
      ],
      "stateMutability": "view",
      "type": "function",
      "constant": true
    },
    {
      "inputs": [],
      "name": "paused",
      "outputs": [
        {
          "internalType": "bool",
          "name": "",
          "type": "bool"
        }
      ],
      "stateMutability": "view",
      "type": "function",
      "constant": true
    },
    {
      "inputs": [],
      "name": "renounceOwnership",
      "outputs": [],
      "stateMutability": "nonpayable",
      "type": "function"
    },
    {
      "inputs": [
        {
          "internalType": "address",
          "name": "from",
          "type": "address"
        },
        {
          "internalType": "address",
          "name": "to",
          "type": "address"
        },
        {
          "internalType": "uint256",
          "name": "tokenId",
          "type": "uint256"
        }
      ],
      "name": "safeTransferFrom",
      "outputs": [],
      "stateMutability": "nonpayable",
      "type": "function"
    },
    {
      "inputs": [
        {
          "internalType": "address",
          "name": "from",
          "type": "address"
        },
        {
          "internalType": "address",
          "name": "to",
          "type": "address"
        },
        {
          "internalType": "uint256",
          "name": "tokenId",
          "type": "uint256"
        },
        {
          "internalType": "bytes",
          "name": "data",
          "type": "bytes"
        }
      ],
      "name": "safeTransferFrom",
      "outputs": [],
      "stateMutability": "nonpayable",
      "type": "function"
    },
    {
      "inputs": [
        {
          "internalType": "address",
          "name": "operator",
          "type": "address"
        },
        {
          "internalType": "bool",
          "name": "approved",
          "type": "bool"
        }
      ],
      "name": "setApprovalForAll",
      "outputs": [],
      "stateMutability": "nonpayable",
      "type": "function"
    },
    {
      "inputs": [
        {
          "internalType": "bytes4",
          "name": "interfaceId",
          "type": "bytes4"
        }
      ],
      "name": "supportsInterface",
      "outputs": [
        {
          "internalType": "bool",
          "name": "",
          "type": "bool"
        }
      ],
      "stateMutability": "view",
      "type": "function",
      "constant": true
    },
    {
      "inputs": [],
      "name": "symbol",
      "outputs": [
        {
          "internalType": "string",
          "name": "",
          "type": "string"
        }
      ],
      "stateMutability": "view",
      "type": "function",
      "constant": true
    },
    {
      "inputs": [
        {
          "internalType": "address",
          "name": "from",
          "type": "address"
        },
        {
          "internalType": "address",
          "name": "to",
          "type": "address"
        },
        {
          "internalType": "uint256",
          "name": "tokenId",
          "type": "uint256"
        }
      ],
      "name": "transferFrom",
      "outputs": [],
      "stateMutability": "nonpayable",
      "type": "function"
    },
    {
      "inputs": [
        {
          "internalType": "address",
          "name": "newOwner",
          "type": "address"
        }
      ],
      "name": "transferOwnership",
      "outputs": [],
      "stateMutability": "nonpayable",
      "type": "function"
    },
    {
      "inputs": [],
      "name": "addToNFTlist",
      "outputs": [],
      "stateMutability": "nonpayable",
      "type": "function"
    },
    {
      "inputs": [
        {
          "internalType": "address",
          "name": "to",
          "type": "address"
        },
        {
          "internalType": "string",
          "name": "uri",
          "type": "string"
        }
      ],
      "name": "giveFreeNFT",
      "outputs": [],
      "stateMutability": "nonpayable",
      "type": "function"
    },
    {
      "inputs": [
        {
          "internalType": "address",
          "name": "to",
          "type": "address"
        },
        {
          "internalType": "string",
          "name": "uri",
          "type": "string"
        }
      ],
      "name": "buyWithETH",
      "outputs": [],
      "stateMutability": "payable",
      "type": "function",
      "payable": true
    },
    {
      "inputs": [
        {
          "internalType": "uint256",
          "name": "tokenId",
          "type": "uint256"
        }
      ],
      "name": "tokenURI",
      "outputs": [
        {
          "internalType": "string",
          "name": "",
          "type": "string"
        }
      ],
      "stateMutability": "view",
      "type": "function",
      "constant": true
    },
    {
      "inputs": [],
      "name": "getBalance",
      "outputs": [
        {
          "internalType": "uint256",
          "name": "",
          "type": "uint256"
        }
      ],
      "stateMutability": "view",
      "type": "function",
      "constant": true
    },
    {
      "inputs": [],
      "name": "withdraw",
      "outputs": [],
      "stateMutability": "nonpayable",
      "type": "function"
    },
    {
      "inputs": [],
      "name": "pause",
      "outputs": [],
      "stateMutability": "nonpayable",
      "type": "function"
    },
    {
      "inputs": [],
      "name": "unpause",
      "outputs": [],
      "stateMutability": "nonpayable",
      "type": "function"
    }
  ],
  "bytecode": "0x6080604052662386f26fc100006009553480156200001c57600080fd5b506040518060400160405280600f81526020017f526f636b6574456c657661746f727300000000000000000000000000000000008152506040518060400160405280600581526020017f4d4154494300000000000000000000000000000000000000000000000000000081525081600090816200009a919062000438565b508060019081620000ac919062000438565b5050506000600760006101000a81548160ff021916908315150217905550620000ea620000de620000f060201b60201c565b620000f860201b60201c565b6200051f565b600033905090565b6000600760019054906101000a900473ffffffffffffffffffffffffffffffffffffffff16905081600760016101000a81548173ffffffffffffffffffffffffffffffffffffffff021916908373ffffffffffffffffffffffffffffffffffffffff1602179055508173ffffffffffffffffffffffffffffffffffffffff168173ffffffffffffffffffffffffffffffffffffffff167f8be0079c531659141344cd1fd0a4f28419497f9722a3daafe3b4186f6b6457e060405160405180910390a35050565b600081519050919050565b7f4e487b7100000000000000000000000000000000000000000000000000000000600052604160045260246000fd5b7f4e487b7100000000000000000000000000000000000000000000000000000000600052602260045260246000fd5b600060028204905060018216806200024057607f821691505b602082108103620002565762000255620001f8565b5b50919050565b60008190508160005260206000209050919050565b60006020601f8301049050919050565b600082821b905092915050565b600060088302620002c07fffffffffffffffffffffffffffffffffffffffffffffffffffffffffffffffff8262000281565b620002cc868362000281565b95508019841693508086168417925050509392505050565b6000819050919050565b6000819050919050565b600062000319620003136200030d84620002e4565b620002ee565b620002e4565b9050919050565b6000819050919050565b6200033583620002f8565b6200034d620003448262000320565b8484546200028e565b825550505050565b600090565b6200036462000355565b620003718184846200032a565b505050565b5b8181101562000399576200038d6000826200035a565b60018101905062000377565b5050565b601f821115620003e857620003b2816200025c565b620003bd8462000271565b81016020851015620003cd578190505b620003e5620003dc8562000271565b83018262000376565b50505b505050565b600082821c905092915050565b60006200040d60001984600802620003ed565b1980831691505092915050565b6000620004288383620003fa565b9150826002028217905092915050565b6200044382620001be565b67ffffffffffffffff8111156200045f576200045e620001c9565b5b6200046b825462000227565b620004788282856200039d565b600060209050601f831160018114620004b057600084156200049b578287015190505b620004a785826200041a565b86555062000517565b601f198416620004c0866200025c565b60005b82811015620004ea57848901518255600182019150602085019450602081019050620004c3565b868310156200050a578489015162000506601f891682620003fa565b8355505b6001600288020188555050505b505050505050565b613a5a806200052f6000396000f3fe6080604052600436106101815760003560e01c806370c58043116100d1578063b88d4fde1161008a578063e53be45c11610064578063e53be45c14610546578063e985e9c514610562578063ea77ff7c1461059f578063f2fde38b146105b657610181565b8063b88d4fde146104a3578063c87b56dd146104cc578063cb4b4d3d1461050957610181565b806370c58043146103cd578063715018a6146103f65780638456cb591461040d5780638da5cb5b1461042457806395d89b411461044f578063a22cb4651461047a57610181565b80633ccfd60b1161013e57806342966c681161011857806342966c68146102ff5780635c975abb146103285780636352211e1461035357806370a082311461039057610181565b80633ccfd60b146102a85780633f4ba83a146102bf57806342842e0e146102d657610181565b806301ffc9a71461018657806306fdde03146101c3578063081812fc146101ee578063095ea7b31461022b57806312065fe01461025457806323b872dd1461027f575b600080fd5b34801561019257600080fd5b506101ad60048036038101906101a8919061252b565b6105df565b6040516101ba9190612573565b60405180910390f35b3480156101cf57600080fd5b506101d86106c1565b6040516101e5919061261e565b60405180910390f35b3480156101fa57600080fd5b5061021560048036038101906102109190612676565b610753565b60405161022291906126e4565b60405180910390f35b34801561023757600080fd5b50610252600480360381019061024d919061272b565b610799565b005b34801561026057600080fd5b506102696108b0565b604051610276919061277a565b60405180910390f35b34801561028b57600080fd5b506102a660048036038101906102a19190612795565b6108b8565b005b3480156102b457600080fd5b506102bd610918565b005b3480156102cb57600080fd5b506102d461096e565b005b3480156102e257600080fd5b506102fd60048036038101906102f89190612795565b610980565b005b34801561030b57600080fd5b5061032660048036038101906103219190612676565b6109a0565b005b34801561033457600080fd5b5061033d6109fc565b60405161034a9190612573565b60405180910390f35b34801561035f57600080fd5b5061037a60048036038101906103759190612676565b610a13565b60405161038791906126e4565b60405180910390f35b34801561039c57600080fd5b506103b760048036038101906103b291906127e8565b610ac4565b6040516103c4919061277a565b60405180910390f35b3480156103d957600080fd5b506103f460048036038101906103ef919061294a565b610b7b565b005b34801561040257600080fd5b5061040b610c97565b005b34801561041957600080fd5b50610422610cab565b005b34801561043057600080fd5b50610439610cbd565b60405161044691906126e4565b60405180910390f35b34801561045b57600080fd5b50610464610ce7565b604051610471919061261e565b60405180910390f35b34801561048657600080fd5b506104a1600480360381019061049c91906129d2565b610d79565b005b3480156104af57600080fd5b506104ca60048036038101906104c59190612ab3565b610d8f565b005b3480156104d857600080fd5b506104f360048036038101906104ee9190612676565b610df1565b604051610500919061261e565b60405180910390f35b34801561051557600080fd5b50610530600480360381019061052b91906127e8565b610e03565b60405161053d9190612573565b60405180910390f35b610560600480360381019061055b919061294a565b610e23565b005b34801561056e57600080fd5b5061058960048036038101906105849190612b36565b610ea1565b6040516105969190612573565b60405180910390f35b3480156105ab57600080fd5b506105b4610f35565b005b3480156105c257600080fd5b506105dd60048036038101906105d891906127e8565b61115b565b005b60007f80ac58cd000000000000000000000000000000000000000000000000000000007bffffffffffffffffffffffffffffffffffffffffffffffffffffffff1916827bffffffffffffffffffffffffffffffffffffffffffffffffffffffff191614806106aa57507f5b5e139f000000000000000000000000000000000000000000000000000000007bffffffffffffffffffffffffffffffffffffffffffffffffffffffff1916827bffffffffffffffffffffffffffffffffffffffffffffffffffffffff1916145b806106ba57506106b9826111de565b5b9050919050565b6060600080546106d090612ba5565b80601f01602080910402602001604051908101604052809291908181526020018280546106fc90612ba5565b80156107495780601f1061071e57610100808354040283529160200191610749565b820191906000526020600020905b81548152906001019060200180831161072c57829003601f168201915b5050505050905090565b600061075e82611248565b6004600083815260200190815260200160002060009054906101000a900473ffffffffffffffffffffffffffffffffffffffff169050919050565b60006107a482610a13565b90508073ffffffffffffffffffffffffffffffffffffffff168373ffffffffffffffffffffffffffffffffffffffff1603610814576040517f08c379a000000000000000000000000000000000000000000000000000000000815260040161080b90612c48565b60405180910390fd5b8073ffffffffffffffffffffffffffffffffffffffff16610833611293565b73ffffffffffffffffffffffffffffffffffffffff16148061086257506108618161085c611293565b610ea1565b5b6108a1576040517f08c379a000000000000000000000000000000000000000000000000000000000815260040161089890612cda565b60405180910390fd5b6108ab838361129b565b505050565b600047905090565b6108c96108c3611293565b82611354565b610908576040517f08c379a00000000000000000000000000000000000000000000000000000000081526004016108ff90612d6c565b60405180910390fd5b6109138383836113e9565b505050565b60003390508073ffffffffffffffffffffffffffffffffffffffff166108fc61093f6108b0565b9081150290604051600060405180830381858888f1935050505015801561096a573d6000803e3d6000fd5b5050565b61097661164f565b61097e6116cd565b565b61099b83838360405180602001604052806000815250610d8f565b505050565b6109b16109ab611293565b82611354565b6109f0576040517f08c379a00000000000000000000000000000000000000000000000000000000081526004016109e790612d6c565b60405180910390fd5b6109f981611730565b50565b6000600760009054906101000a900460ff16905090565b6000806002600084815260200190815260200160002060009054906101000a900473ffffffffffffffffffffffffffffffffffffffff169050600073ffffffffffffffffffffffffffffffffffffffff168173ffffffffffffffffffffffffffffffffffffffff1603610abb576040517f08c379a0000000000000000000000000000000000000000000000000000000008152600401610ab290612dd8565b60405180910390fd5b80915050919050565b60008073ffffffffffffffffffffffffffffffffffffffff168273ffffffffffffffffffffffffffffffffffffffff1603610b34576040517f08c379a0000000000000000000000000000000000000000000000000000000008152600401610b2b90612e6a565b60405180910390fd5b600360008373ffffffffffffffffffffffffffffffffffffffff1673ffffffffffffffffffffffffffffffffffffffff168152602001908152602001600020549050919050565b60011515600a60008473ffffffffffffffffffffffffffffffffffffffff1673ffffffffffffffffffffffffffffffffffffffff16815260200190815260200160002060009054906101000a900460ff16151514610c0e576040517f08c379a0000000000000000000000000000000000000000000000000000000008152600401610c0590612ed6565b60405180910390fd5b6000610c1a600861173c565b9050610c26600861174a565b610c308382611760565b610c3a818361177e565b6000600a60003373ffffffffffffffffffffffffffffffffffffffff1673ffffffffffffffffffffffffffffffffffffffff16815260200190815260200160002060006101000a81548160ff021916908315150217905550505050565b610c9f61164f565b610ca960006117eb565b565b610cb361164f565b610cbb6118b1565b565b6000600760019054906101000a900473ffffffffffffffffffffffffffffffffffffffff16905090565b606060018054610cf690612ba5565b80601f0160208091040260200160405190810160405280929190818152602001828054610d2290612ba5565b8015610d6f5780601f10610d4457610100808354040283529160200191610d6f565b820191906000526020600020905b815481529060010190602001808311610d5257829003601f168201915b5050505050905090565b610d8b610d84611293565b8383611914565b5050565b610da0610d9a611293565b83611354565b610ddf576040517f08c379a0000000000000000000000000000000000000000000000000000000008152600401610dd690612d6c565b60405180910390fd5b610deb84848484611a80565b50505050565b6060610dfc82611adc565b9050919050565b600a6020528060005260406000206000915054906101000a900460ff1681565b610e2b61164f565b600954341015610e70576040517f08c379a0000000000000000000000000000000000000000000000000000000008152600401610e6790612f42565b60405180910390fd5b6000610e7c600861173c565b9050610e88600861174a565b610e928382611760565b610e9c818361177e565b505050565b6000600560008473ffffffffffffffffffffffffffffffffffffffff1673ffffffffffffffffffffffffffffffffffffffff16815260200190815260200160002060008373ffffffffffffffffffffffffffffffffffffffff1673ffffffffffffffffffffffffffffffffffffffff16815260200190815260200160002060009054906101000a900460ff16905092915050565b610f3d61164f565b6001600a600073d07bd9fd5681b8616f3eaf95b1a0d0adfbb78a2b73ffffffffffffffffffffffffffffffffffffffff1673ffffffffffffffffffffffffffffffffffffffff16815260200190815260200160002060006101000a81548160ff0219169083151502179055506001600a600073dbb94c5761a7facb89c6c660a7baeb523515035973ffffffffffffffffffffffffffffffffffffffff1673ffffffffffffffffffffffffffffffffffffffff16815260200190815260200160002060006101000a81548160ff0219169083151502179055506001600a600073096dd829ba92113944591ad5a2d0506ebbb00d7d73ffffffffffffffffffffffffffffffffffffffff1673ffffffffffffffffffffffffffffffffffffffff16815260200190815260200160002060006101000a81548160ff0219169083151502179055506001600a60007379fd4489ab1c0e7b5784ecf070aa3bdf07d1b91a73ffffffffffffffffffffffffffffffffffffffff1673ffffffffffffffffffffffffffffffffffffffff16815260200190815260200160002060006101000a81548160ff0219169083151502179055506001600a600073460bbbf28626eb5961d598f5f272449ba5f1397c73ffffffffffffffffffffffffffffffffffffffff1673ffffffffffffffffffffffffffffffffffffffff16815260200190815260200160002060006101000a81548160ff021916908315150217905550565b61116361164f565b600073ffffffffffffffffffffffffffffffffffffffff168173ffffffffffffffffffffffffffffffffffffffff16036111d2576040517f08c379a00000000000000000000000000000000000000000000000000000000081526004016111c990612fd4565b60405180910390fd5b6111db816117eb565b50565b60007f01ffc9a7000000000000000000000000000000000000000000000000000000007bffffffffffffffffffffffffffffffffffffffffffffffffffffffff1916827bffffffffffffffffffffffffffffffffffffffffffffffffffffffff1916149050919050565b61125181611bee565b611290576040517f08c379a000000000000000000000000000000000000000000000000000000000815260040161128790612dd8565b60405180910390fd5b50565b600033905090565b816004600083815260200190815260200160002060006101000a81548173ffffffffffffffffffffffffffffffffffffffff021916908373ffffffffffffffffffffffffffffffffffffffff160217905550808273ffffffffffffffffffffffffffffffffffffffff1661130e83610a13565b73ffffffffffffffffffffffffffffffffffffffff167f8c5be1e5ebec7d5bd14f71427d1e84f3dd0314c0f7b2291e5b200ac8c7c3b92560405160405180910390a45050565b60008061136083610a13565b90508073ffffffffffffffffffffffffffffffffffffffff168473ffffffffffffffffffffffffffffffffffffffff1614806113a257506113a18185610ea1565b5b806113e057508373ffffffffffffffffffffffffffffffffffffffff166113c884610753565b73ffffffffffffffffffffffffffffffffffffffff16145b91505092915050565b8273ffffffffffffffffffffffffffffffffffffffff1661140982610a13565b73ffffffffffffffffffffffffffffffffffffffff161461145f576040517f08c379a000000000000000000000000000000000000000000000000000000000815260040161145690613066565b60405180910390fd5b600073ffffffffffffffffffffffffffffffffffffffff168273ffffffffffffffffffffffffffffffffffffffff16036114ce576040517f08c379a00000000000000000000000000000000000000000000000000000000081526004016114c5906130f8565b60405180910390fd5b6114d9838383611c5a565b6114e460008261129b565b6001600360008573ffffffffffffffffffffffffffffffffffffffff1673ffffffffffffffffffffffffffffffffffffffff16815260200190815260200160002060008282546115349190613147565b925050819055506001600360008473ffffffffffffffffffffffffffffffffffffffff1673ffffffffffffffffffffffffffffffffffffffff168152602001908152602001600020600082825461158b919061317b565b92505081905550816002600083815260200190815260200160002060006101000a81548173ffffffffffffffffffffffffffffffffffffffff021916908373ffffffffffffffffffffffffffffffffffffffff160217905550808273ffffffffffffffffffffffffffffffffffffffff168473ffffffffffffffffffffffffffffffffffffffff167fddf252ad1be2c89b69c2b068fc378daa952ba7f163c4a11628f55a4df523b3ef60405160405180910390a461164a838383611c72565b505050565b611657611293565b73ffffffffffffffffffffffffffffffffffffffff16611675610cbd565b73ffffffffffffffffffffffffffffffffffffffff16146116cb576040517f08c379a00000000000000000000000000000000000000000000000000000000081526004016116c2906131fb565b60405180910390fd5b565b6116d5611c77565b6000600760006101000a81548160ff0219169083151502179055507f5db9ee0a495bf2e6ff9c91a7834c1ba4fdd244a5e8aa4e537bd38aeae4b073aa611719611293565b60405161172691906126e4565b60405180910390a1565b61173981611cc0565b50565b600081600001549050919050565b6001816000016000828254019250508190555050565b61177a828260405180602001604052806000815250611d13565b5050565b61178782611bee565b6117c6576040517f08c379a00000000000000000000000000000000000000000000000000000000081526004016117bd9061328d565b60405180910390fd5b806006600084815260200190815260200160002090816117e69190613459565b505050565b6000600760019054906101000a900473ffffffffffffffffffffffffffffffffffffffff16905081600760016101000a81548173ffffffffffffffffffffffffffffffffffffffff021916908373ffffffffffffffffffffffffffffffffffffffff1602179055508173ffffffffffffffffffffffffffffffffffffffff168173ffffffffffffffffffffffffffffffffffffffff167f8be0079c531659141344cd1fd0a4f28419497f9722a3daafe3b4186f6b6457e060405160405180910390a35050565b6118b9611d6e565b6001600760006101000a81548160ff0219169083151502179055507f62e78cea01bee320cd4e420270b5ea74000d11b0c9f74754ebdbfc544b05a2586118fd611293565b60405161190a91906126e4565b60405180910390a1565b8173ffffffffffffffffffffffffffffffffffffffff168373ffffffffffffffffffffffffffffffffffffffff1603611982576040517f08c379a000000000000000000000000000000000000000000000000000000000815260040161197990613577565b60405180910390fd5b80600560008573ffffffffffffffffffffffffffffffffffffffff1673ffffffffffffffffffffffffffffffffffffffff16815260200190815260200160002060008473ffffffffffffffffffffffffffffffffffffffff1673ffffffffffffffffffffffffffffffffffffffff16815260200190815260200160002060006101000a81548160ff0219169083151502179055508173ffffffffffffffffffffffffffffffffffffffff168373ffffffffffffffffffffffffffffffffffffffff167f17307eab39ab6107e8899845ad3d59bd9653f200f220920489ca2b5937696c3183604051611a739190612573565b60405180910390a3505050565b611a8b8484846113e9565b611a9784848484611db8565b611ad6576040517f08c379a0000000000000000000000000000000000000000000000000000000008152600401611acd90613609565b60405180910390fd5b50505050565b6060611ae782611248565b6000600660008481526020019081526020016000208054611b0790612ba5565b80601f0160208091040260200160405190810160405280929190818152602001828054611b3390612ba5565b8015611b805780601f10611b5557610100808354040283529160200191611b80565b820191906000526020600020905b815481529060010190602001808311611b6357829003601f168201915b505050505090506000611b91611f3f565b90506000815103611ba6578192505050611be9565b600082511115611bdb578082604051602001611bc3929190613665565b60405160208183030381529060405292505050611be9565b611be484611f7c565b925050505b919050565b60008073ffffffffffffffffffffffffffffffffffffffff166002600084815260200190815260200160002060009054906101000a900473ffffffffffffffffffffffffffffffffffffffff1673ffffffffffffffffffffffffffffffffffffffff1614159050919050565b611c62611d6e565b611c6d838383611fe4565b505050565b505050565b611c7f6109fc565b611cbe576040517f08c379a0000000000000000000000000000000000000000000000000000000008152600401611cb5906136d5565b60405180910390fd5b565b611cc981611fe9565b6000600660008381526020019081526020016000208054611ce990612ba5565b905014611d1057600660008281526020019081526020016000206000611d0f9190612462565b5b50565b611d1d8383612106565b611d2a6000848484611db8565b611d69576040517f08c379a0000000000000000000000000000000000000000000000000000000008152600401611d6090613609565b60405180910390fd5b505050565b611d766109fc565b15611db6576040517f08c379a0000000000000000000000000000000000000000000000000000000008152600401611dad90613741565b60405180910390fd5b565b6000611dd98473ffffffffffffffffffffffffffffffffffffffff166122df565b15611f32578373ffffffffffffffffffffffffffffffffffffffff1663150b7a02611e02611293565b8786866040518563ffffffff1660e01b8152600401611e2494939291906137b6565b6020604051808303816000875af1925050508015611e6057506040513d601f19601f82011682018060405250810190611e5d9190613817565b60015b611ee2573d8060008114611e90576040519150601f19603f3d011682016040523d82523d6000602084013e611e95565b606091505b506000815103611eda576040517f08c379a0000000000000000000000000000000000000000000000000000000008152600401611ed190613609565b60405180910390fd5b805181602001fd5b63150b7a0260e01b7bffffffffffffffffffffffffffffffffffffffffffffffffffffffff1916817bffffffffffffffffffffffffffffffffffffffffffffffffffffffff191614915050611f37565b600190505b949350505050565b60606040518060400160405280602081526020017f68747470733a2f2f7777772e726f636b6574656c657661746f72732e6366642f815250905090565b6060611f8782611248565b6000611f91611f3f565b90506000815111611fb15760405180602001604052806000815250611fdc565b80611fbb84612302565b604051602001611fcc929190613665565b6040516020818303038152906040525b915050919050565b505050565b6000611ff482610a13565b905061200281600084611c5a565b61200d60008361129b565b6001600360008373ffffffffffffffffffffffffffffffffffffffff1673ffffffffffffffffffffffffffffffffffffffff168152602001908152602001600020600082825461205d9190613147565b925050819055506002600083815260200190815260200160002060006101000a81549073ffffffffffffffffffffffffffffffffffffffff021916905581600073ffffffffffffffffffffffffffffffffffffffff168273ffffffffffffffffffffffffffffffffffffffff167fddf252ad1be2c89b69c2b068fc378daa952ba7f163c4a11628f55a4df523b3ef60405160405180910390a461210281600084611c72565b5050565b600073ffffffffffffffffffffffffffffffffffffffff168273ffffffffffffffffffffffffffffffffffffffff1603612175576040517f08c379a000000000000000000000000000000000000000000000000000000000815260040161216c90613890565b60405180910390fd5b61217e81611bee565b156121be576040517f08c379a00000000000000000000000000000000000000000000000000000000081526004016121b5906138fc565b60405180910390fd5b6121ca60008383611c5a565b6001600360008473ffffffffffffffffffffffffffffffffffffffff1673ffffffffffffffffffffffffffffffffffffffff168152602001908152602001600020600082825461221a919061317b565b92505081905550816002600083815260200190815260200160002060006101000a81548173ffffffffffffffffffffffffffffffffffffffff021916908373ffffffffffffffffffffffffffffffffffffffff160217905550808273ffffffffffffffffffffffffffffffffffffffff16600073ffffffffffffffffffffffffffffffffffffffff167fddf252ad1be2c89b69c2b068fc378daa952ba7f163c4a11628f55a4df523b3ef60405160405180910390a46122db60008383611c72565b5050565b6000808273ffffffffffffffffffffffffffffffffffffffff163b119050919050565b606060008203612349576040518060400160405280600181526020017f3000000000000000000000000000000000000000000000000000000000000000815250905061245d565b600082905060005b6000821461237b5780806123649061391c565b915050600a826123749190613993565b9150612351565b60008167ffffffffffffffff8111156123975761239661281f565b5b6040519080825280601f01601f1916602001820160405280156123c95781602001600182028036833780820191505090505b5090505b60008514612456576001826123e29190613147565b9150600a856123f191906139c4565b60306123fd919061317b565b60f81b818381518110612413576124126139f5565b5b60200101907effffffffffffffffffffffffffffffffffffffffffffffffffffffffffffff1916908160001a905350600a8561244f9190613993565b94506123cd565b8093505050505b919050565b50805461246e90612ba5565b6000825580601f10612480575061249f565b601f01602090049060005260206000209081019061249e91906124a2565b5b50565b5b808211156124bb5760008160009055506001016124a3565b5090565b6000604051905090565b600080fd5b600080fd5b60007fffffffff0000000000000000000000000000000000000000000000000000000082169050919050565b612508816124d3565b811461251357600080fd5b50565b600081359050612525816124ff565b92915050565b600060208284031215612541576125406124c9565b5b600061254f84828501612516565b91505092915050565b60008115159050919050565b61256d81612558565b82525050565b60006020820190506125886000830184612564565b92915050565b600081519050919050565b600082825260208201905092915050565b60005b838110156125c85780820151818401526020810190506125ad565b60008484015250505050565b6000601f19601f8301169050919050565b60006125f08261258e565b6125fa8185612599565b935061260a8185602086016125aa565b612613816125d4565b840191505092915050565b6000602082019050818103600083015261263881846125e5565b905092915050565b6000819050919050565b61265381612640565b811461265e57600080fd5b50565b6000813590506126708161264a565b92915050565b60006020828403121561268c5761268b6124c9565b5b600061269a84828501612661565b91505092915050565b600073ffffffffffffffffffffffffffffffffffffffff82169050919050565b60006126ce826126a3565b9050919050565b6126de816126c3565b82525050565b60006020820190506126f960008301846126d5565b92915050565b612708816126c3565b811461271357600080fd5b50565b600081359050612725816126ff565b92915050565b60008060408385031215612742576127416124c9565b5b600061275085828601612716565b925050602061276185828601612661565b9150509250929050565b61277481612640565b82525050565b600060208201905061278f600083018461276b565b92915050565b6000806000606084860312156127ae576127ad6124c9565b5b60006127bc86828701612716565b93505060206127cd86828701612716565b92505060406127de86828701612661565b9150509250925092565b6000602082840312156127fe576127fd6124c9565b5b600061280c84828501612716565b91505092915050565b600080fd5b600080fd5b7f4e487b7100000000000000000000000000000000000000000000000000000000600052604160045260246000fd5b612857826125d4565b810181811067ffffffffffffffff821117156128765761287561281f565b5b80604052505050565b60006128896124bf565b9050612895828261284e565b919050565b600067ffffffffffffffff8211156128b5576128b461281f565b5b6128be826125d4565b9050602081019050919050565b82818337600083830152505050565b60006128ed6128e88461289a565b61287f565b9050828152602081018484840111156129095761290861281a565b5b6129148482856128cb565b509392505050565b600082601f83011261293157612930612815565b5b81356129418482602086016128da565b91505092915050565b60008060408385031215612961576129606124c9565b5b600061296f85828601612716565b925050602083013567ffffffffffffffff8111156129905761298f6124ce565b5b61299c8582860161291c565b9150509250929050565b6129af81612558565b81146129ba57600080fd5b50565b6000813590506129cc816129a6565b92915050565b600080604083850312156129e9576129e86124c9565b5b60006129f785828601612716565b9250506020612a08858286016129bd565b9150509250929050565b600067ffffffffffffffff821115612a2d57612a2c61281f565b5b612a36826125d4565b9050602081019050919050565b6000612a56612a5184612a12565b61287f565b905082815260208101848484011115612a7257612a7161281a565b5b612a7d8482856128cb565b509392505050565b600082601f830112612a9a57612a99612815565b5b8135612aaa848260208601612a43565b91505092915050565b60008060008060808587031215612acd57612acc6124c9565b5b6000612adb87828801612716565b9450506020612aec87828801612716565b9350506040612afd87828801612661565b925050606085013567ffffffffffffffff811115612b1e57612b1d6124ce565b5b612b2a87828801612a85565b91505092959194509250565b60008060408385031215612b4d57612b4c6124c9565b5b6000612b5b85828601612716565b9250506020612b6c85828601612716565b9150509250929050565b7f4e487b7100000000000000000000000000000000000000000000000000000000600052602260045260246000fd5b60006002820490506001821680612bbd57607f821691505b602082108103612bd057612bcf612b76565b5b50919050565b7f4552433732313a20617070726f76616c20746f2063757272656e74206f776e6560008201527f7200000000000000000000000000000000000000000000000000000000000000602082015250565b6000612c32602183612599565b9150612c3d82612bd6565b604082019050919050565b60006020820190508181036000830152612c6181612c25565b9050919050565b7f4552433732313a20617070726f76652063616c6c6572206973206e6f7420746f60008201527f6b656e206f776e6572206e6f7220617070726f76656420666f7220616c6c0000602082015250565b6000612cc4603e83612599565b9150612ccf82612c68565b604082019050919050565b60006020820190508181036000830152612cf381612cb7565b9050919050565b7f4552433732313a2063616c6c6572206973206e6f7420746f6b656e206f776e6560008201527f72206e6f7220617070726f766564000000000000000000000000000000000000602082015250565b6000612d56602e83612599565b9150612d6182612cfa565b604082019050919050565b60006020820190508181036000830152612d8581612d49565b9050919050565b7f4552433732313a20696e76616c696420746f6b656e2049440000000000000000600082015250565b6000612dc2601883612599565b9150612dcd82612d8c565b602082019050919050565b60006020820190508181036000830152612df181612db5565b9050919050565b7f4552433732313a2061646472657373207a65726f206973206e6f74206120766160008201527f6c6964206f776e65720000000000000000000000000000000000000000000000602082015250565b6000612e54602983612599565b9150612e5f82612df8565b604082019050919050565b60006020820190508181036000830152612e8381612e47565b9050919050565b7f41646472657373206e6f7420696e20746865206c697374000000000000000000600082015250565b6000612ec0601783612599565b9150612ecb82612e8a565b602082019050919050565b60006020820190508181036000830152612eef81612eb3565b9050919050565b7f4e6f7420656e6f75676820455448207761732073656e64000000000000000000600082015250565b6000612f2c601783612599565b9150612f3782612ef6565b602082019050919050565b60006020820190508181036000830152612f5b81612f1f565b9050919050565b7f4f776e61626c653a206e6577206f776e657220697320746865207a65726f206160008201527f6464726573730000000000000000000000000000000000000000000000000000602082015250565b6000612fbe602683612599565b9150612fc982612f62565b604082019050919050565b60006020820190508181036000830152612fed81612fb1565b9050919050565b7f4552433732313a207472616e736665722066726f6d20696e636f72726563742060008201527f6f776e6572000000000000000000000000000000000000000000000000000000602082015250565b6000613050602583612599565b915061305b82612ff4565b604082019050919050565b6000602082019050818103600083015261307f81613043565b9050919050565b7f4552433732313a207472616e7366657220746f20746865207a65726f2061646460008201527f7265737300000000000000000000000000000000000000000000000000000000602082015250565b60006130e2602483612599565b91506130ed82613086565b604082019050919050565b60006020820190508181036000830152613111816130d5565b9050919050565b7f4e487b7100000000000000000000000000000000000000000000000000000000600052601160045260246000fd5b600061315282612640565b915061315d83612640565b925082820390508181111561317557613174613118565b5b92915050565b600061318682612640565b915061319183612640565b92508282019050808211156131a9576131a8613118565b5b92915050565b7f4f776e61626c653a2063616c6c6572206973206e6f7420746865206f776e6572600082015250565b60006131e5602083612599565b91506131f0826131af565b602082019050919050565b60006020820190508181036000830152613214816131d8565b9050919050565b7f45524337323155524953746f726167653a2055524920736574206f66206e6f6e60008201527f6578697374656e7420746f6b656e000000000000000000000000000000000000602082015250565b6000613277602e83612599565b91506132828261321b565b604082019050919050565b600060208201905081810360008301526132a68161326a565b9050919050565b60008190508160005260206000209050919050565b60006020601f8301049050919050565b600082821b905092915050565b60006008830261330f7fffffffffffffffffffffffffffffffffffffffffffffffffffffffffffffffff826132d2565b61331986836132d2565b95508019841693508086168417925050509392505050565b6000819050919050565b600061335661335161334c84612640565b613331565b612640565b9050919050565b6000819050919050565b6133708361333b565b61338461337c8261335d565b8484546132df565b825550505050565b600090565b61339961338c565b6133a4818484613367565b505050565b5b818110156133c8576133bd600082613391565b6001810190506133aa565b5050565b601f82111561340d576133de816132ad565b6133e7846132c2565b810160208510156133f6578190505b61340a613402856132c2565b8301826133a9565b50505b505050565b600082821c905092915050565b600061343060001984600802613412565b1980831691505092915050565b6000613449838361341f565b9150826002028217905092915050565b6134628261258e565b67ffffffffffffffff81111561347b5761347a61281f565b5b6134858254612ba5565b6134908282856133cc565b600060209050601f8311600181146134c357600084156134b1578287015190505b6134bb858261343d565b865550613523565b601f1984166134d1866132ad565b60005b828110156134f9578489015182556001820191506020850194506020810190506134d4565b868310156135165784890151613512601f89168261341f565b8355505b6001600288020188555050505b505050505050565b7f4552433732313a20617070726f766520746f2063616c6c657200000000000000600082015250565b6000613561601983612599565b915061356c8261352b565b602082019050919050565b6000602082019050818103600083015261359081613554565b9050919050565b7f4552433732313a207472616e7366657220746f206e6f6e20455243373231526560008201527f63656976657220696d706c656d656e7465720000000000000000000000000000602082015250565b60006135f3603283612599565b91506135fe82613597565b604082019050919050565b60006020820190508181036000830152613622816135e6565b9050919050565b600081905092915050565b600061363f8261258e565b6136498185613629565b93506136598185602086016125aa565b80840191505092915050565b60006136718285613634565b915061367d8284613634565b91508190509392505050565b7f5061757361626c653a206e6f7420706175736564000000000000000000000000600082015250565b60006136bf601483612599565b91506136ca82613689565b602082019050919050565b600060208201905081810360008301526136ee816136b2565b9050919050565b7f5061757361626c653a2070617573656400000000000000000000000000000000600082015250565b600061372b601083612599565b9150613736826136f5565b602082019050919050565b6000602082019050818103600083015261375a8161371e565b9050919050565b600081519050919050565b600082825260208201905092915050565b600061378882613761565b613792818561376c565b93506137a28185602086016125aa565b6137ab816125d4565b840191505092915050565b60006080820190506137cb60008301876126d5565b6137d860208301866126d5565b6137e5604083018561276b565b81810360608301526137f7818461377d565b905095945050505050565b600081519050613811816124ff565b92915050565b60006020828403121561382d5761382c6124c9565b5b600061383b84828501613802565b91505092915050565b7f4552433732313a206d696e7420746f20746865207a65726f2061646472657373600082015250565b600061387a602083612599565b915061388582613844565b602082019050919050565b600060208201905081810360008301526138a98161386d565b9050919050565b7f4552433732313a20746f6b656e20616c7265616479206d696e74656400000000600082015250565b60006138e6601c83612599565b91506138f1826138b0565b602082019050919050565b60006020820190508181036000830152613915816138d9565b9050919050565b600061392782612640565b91507fffffffffffffffffffffffffffffffffffffffffffffffffffffffffffffffff820361395957613958613118565b5b600182019050919050565b7f4e487b7100000000000000000000000000000000000000000000000000000000600052601260045260246000fd5b600061399e82612640565b91506139a983612640565b9250826139b9576139b8613964565b5b828204905092915050565b60006139cf82612640565b91506139da83612640565b9250826139ea576139e9613964565b5b828206905092915050565b7f4e487b7100000000000000000000000000000000000000000000000000000000600052603260045260246000fdfea2646970667358221220209f5b2d8a094d02d9220f59751574a4a5e3b86ac7857631ef3920021e2dce1364736f6c63430008100033",
  "immutableReferences": {},
  "source": "// SPDX-License-Identifier: MIT\r\npragma solidity ^0.8.4;\r\n\r\nimport \"@openzeppelin/contracts/token/ERC721/ERC721.sol\";\r\nimport \"@openzeppelin/contracts/token/ERC721/extensions/ERC721URIStorage.sol\";\r\nimport \"@openzeppelin/contracts/security/Pausable.sol\";\r\nimport \"@openzeppelin/contracts/access/Ownable.sol\";\r\nimport \"@openzeppelin/contracts/token/ERC721/extensions/ERC721Burnable.sol\";\r\nimport \"@openzeppelin/contracts/utils/Counters.sol\";\r\n\r\n/// @custom:security-contact security@RocketToken.cfc\r\ncontract RocketToken is ERC721, ERC721URIStorage, Pausable, Ownable, ERC721Burnable {\r\n    using Counters for Counters.Counter;\r\n\r\n    Counters.Counter private _tokenIdCounter;\r\n    // THE COST IS THE CLIENT DECISION\r\n    uint cost = 0.01 ether;\r\n    mapping(address => bool) public listForFreeNFT;\r\n\r\n    constructor() ERC721(\"RocketToken\", \"MATIC\") {}\r\n\r\n    // PRESELECTED ADDRESSES TO GET 1 FREE NFT\r\n    function addToNFTlist() public onlyOwner{\r\n        listForFreeNFT[0xD07Bd9fd5681B8616f3eAF95B1a0d0adFbB78A2B] = true;\r\n        listForFreeNFT[0xDBb94C5761a7FAcb89C6C660a7bAeB5235150359] = true;\r\n        listForFreeNFT[0x096Dd829Ba92113944591aD5a2d0506eBbb00D7d] = true;\r\n        listForFreeNFT[0x79Fd4489aB1C0E7b5784EcF070Aa3BdF07D1b91A] = true;\r\n        listForFreeNFT[0x460bBBF28626eb5961D598f5F272449ba5f1397c] = true;\r\n    }\r\n    // ALLOW SOME PRESELECTED ADDRESSES TO GET 1 FREE NFT\r\n    function giveFreeNFT(address to, string memory uri) public{\r\n        require(listForFreeNFT[to] == true, \"Address not in the list\");\r\n        uint256 tokenId = _tokenIdCounter.current();\r\n        _tokenIdCounter.increment();\r\n        _safeMint(to, tokenId);\r\n        _setTokenURI(tokenId, uri);\r\n        listForFreeNFT[msg.sender] = false;\r\n    }\r\n\r\n    // BUYERS SHOULD BE ABLE TO TRANSACT WITH ETH\r\n    function buyWithETH(address to, string memory uri) public payable onlyOwner {\r\n        require(msg.value >= cost, \"Not enough ETH was send\");\r\n        uint256 tokenId = _tokenIdCounter.current();\r\n        _tokenIdCounter.increment();\r\n        _safeMint(to, tokenId);\r\n        _setTokenURI(tokenId, uri);\r\n    }\r\n\r\n    // GET AND SET TOKENS URI\r\n    function tokenURI(uint256 tokenId)\r\n        public\r\n        view\r\n        override(ERC721, ERC721URIStorage)\r\n        returns (string memory)\r\n    {\r\n        return super.tokenURI(tokenId);\r\n    }\r\n    function _baseURI() internal pure override returns (string memory) {\r\n        return \"https://www.RocketToken.cfd/\";\r\n    }\r\n\r\n    // BURN A TOKEN\r\n    // THE FOLLOWING FUNCTIONS ARE OVERRIDES REQUIRED BY SOLIDITY\r\n    function _burn(uint256 tokenId) internal override(ERC721, ERC721URIStorage) {\r\n        super._burn(tokenId);\r\n    }\r\n\r\n    // GET ETH STORED IN THE CONTRACT\r\n    function getBalance() public view returns(uint) {\r\n        return address(this).balance;\r\n    }\r\n    // WITHDRAW THE ETH STORED IN THE CONTRACT\r\n    function withdraw() public {\r\n        address payable to = payable(msg.sender);\r\n        to.transfer(getBalance());\r\n    }\r\n\r\n    function pause() public onlyOwner {\r\n        _pause();\r\n    }\r\n\r\n    function unpause() public onlyOwner {\r\n        _unpause();\r\n    }\r\n\r\n    function _beforeTokenTransfer(address from, address to, uint256 tokenId)\r\n        internal\r\n        whenNotPaused\r\n        override\r\n    {\r\n        super._beforeTokenTransfer(from, to, tokenId);\r\n    }\r\n\r\n}",
  "sourcePath": "C:\\Users\\veill\\Documents\\Rocket_Elevators_Blockchain\\contracts\\RocketToken.sol",
  "compiler": {
    "name": "solc",
    "version": "0.8.16+commit.07a7930e.Emscripten.clang"
  },
  "schemaVersion": "3.4.9",
  "updatedAt": "2022-08-24T13:59:05.705Z",
  "networkType": "ethereum",
  "devdoc": {
    "custom:security-contact": "security@RocketToken.cfc",
    "kind": "dev",
    "methods": {
      "approve(address,uint256)": {
        "details": "See {IERC721-approve}."
      },
      "balanceOf(address)": {
        "details": "See {IERC721-balanceOf}."
      },
      "burn(uint256)": {
        "details": "Burns `tokenId`. See {ERC721-_burn}. Requirements: - The caller must own `tokenId` or be an approved operator."
      },
      "getApproved(uint256)": {
        "details": "See {IERC721-getApproved}."
      },
      "isApprovedForAll(address,address)": {
        "details": "See {IERC721-isApprovedForAll}."
      },
      "name()": {
        "details": "See {IERC721Metadata-name}."
      },
      "owner()": {
        "details": "Returns the address of the current owner."
      },
      "ownerOf(uint256)": {
        "details": "See {IERC721-ownerOf}."
      },
      "paused()": {
        "details": "Returns true if the contract is paused, and false otherwise."
      },
      "renounceOwnership()": {
        "details": "Leaves the contract without owner. It will not be possible to call `onlyOwner` functions anymore. Can only be called by the current owner. NOTE: Renouncing ownership will leave the contract without an owner, thereby removing any functionality that is only available to the owner."
      },
      "safeTransferFrom(address,address,uint256)": {
        "details": "See {IERC721-safeTransferFrom}."
      },
      "safeTransferFrom(address,address,uint256,bytes)": {
        "details": "See {IERC721-safeTransferFrom}."
      },
      "setApprovalForAll(address,bool)": {
        "details": "See {IERC721-setApprovalForAll}."
      },
      "supportsInterface(bytes4)": {
        "details": "See {IERC165-supportsInterface}."
      },
      "symbol()": {
        "details": "See {IERC721Metadata-symbol}."
      },
      "transferFrom(address,address,uint256)": {
        "details": "See {IERC721-transferFrom}."
      },
      "transferOwnership(address)": {
        "details": "Transfers ownership of the contract to a new account (`newOwner`). Can only be called by the current owner."
      }
    },
    "version": 1
  },
  "userdoc": {
    "kind": "user",
    "methods": {},
    "version": 1
  }
}