{
  "contractName": "RocketToken",
  "abi": [
    {
      "inputs": [],
      "stateMutability": "nonpayable",
      "type": "constructor"
    },
    {
      "anonymous": false,
      "inputs": [
        {
          "indexed": true,
          "internalType": "address",
          "name": "owner",
          "type": "address"
        },
        {
          "indexed": true,
          "internalType": "address",
          "name": "approved",
          "type": "address"
        },
        {
          "indexed": true,
          "internalType": "uint256",
          "name": "tokenId",
          "type": "uint256"
        }
      ],
      "name": "Approval",
      "type": "event"
    },
    {
      "anonymous": false,
      "inputs": [
        {
          "indexed": true,
          "internalType": "address",
          "name": "owner",
          "type": "address"
        },
        {
          "indexed": true,
          "internalType": "address",
          "name": "operator",
          "type": "address"
        },
        {
          "indexed": false,
          "internalType": "bool",
          "name": "approved",
          "type": "bool"
        }
      ],
      "name": "ApprovalForAll",
      "type": "event"
    },
    {
      "anonymous": false,
      "inputs": [
        {
          "indexed": true,
          "internalType": "address",
          "name": "previousOwner",
          "type": "address"
        },
        {
          "indexed": true,
          "internalType": "address",
          "name": "newOwner",
          "type": "address"
        }
      ],
      "name": "OwnershipTransferred",
      "type": "event"
    },
    {
      "anonymous": false,
      "inputs": [
        {
          "indexed": false,
          "internalType": "address",
          "name": "account",
          "type": "address"
        }
      ],
      "name": "Paused",
      "type": "event"
    },
    {
      "anonymous": false,
      "inputs": [
        {
          "indexed": true,
          "internalType": "address",
          "name": "from",
          "type": "address"
        },
        {
          "indexed": true,
          "internalType": "address",
          "name": "to",
          "type": "address"
        },
        {
          "indexed": true,
          "internalType": "uint256",
          "name": "tokenId",
          "type": "uint256"
        }
      ],
      "name": "Transfer",
      "type": "event"
    },
    {
      "anonymous": false,
      "inputs": [
        {
          "indexed": false,
          "internalType": "address",
          "name": "account",
          "type": "address"
        }
      ],
      "name": "Unpaused",
      "type": "event"
    },
    {
      "inputs": [
        {
          "internalType": "address",
          "name": "to",
          "type": "address"
        },
        {
          "internalType": "uint256",
          "name": "tokenId",
          "type": "uint256"
        }
      ],
      "name": "approve",
      "outputs": [],
      "stateMutability": "nonpayable",
      "type": "function"
    },
    {
      "inputs": [
        {
          "internalType": "address",
          "name": "owner",
          "type": "address"
        }
      ],
      "name": "balanceOf",
      "outputs": [
        {
          "internalType": "uint256",
          "name": "",
          "type": "uint256"
        }
      ],
      "stateMutability": "view",
      "type": "function",
      "constant": true
    },
    {
      "inputs": [
        {
          "internalType": "uint256",
          "name": "tokenId",
          "type": "uint256"
        }
      ],
      "name": "burn",
      "outputs": [],
      "stateMutability": "nonpayable",
      "type": "function"
    },
    {
      "inputs": [
        {
          "internalType": "uint256",
          "name": "tokenId",
          "type": "uint256"
        }
      ],
      "name": "getApproved",
      "outputs": [
        {
          "internalType": "address",
          "name": "",
          "type": "address"
        }
      ],
      "stateMutability": "view",
      "type": "function",
      "constant": true
    },
    {
      "inputs": [
        {
          "internalType": "address",
          "name": "owner",
          "type": "address"
        },
        {
          "internalType": "address",
          "name": "operator",
          "type": "address"
        }
      ],
      "name": "isApprovedForAll",
      "outputs": [
        {
          "internalType": "bool",
          "name": "",
          "type": "bool"
        }
      ],
      "stateMutability": "view",
      "type": "function",
      "constant": true
    },
    {
      "inputs": [],
      "name": "name",
      "outputs": [
        {
          "internalType": "string",
          "name": "",
          "type": "string"
        }
      ],
      "stateMutability": "view",
      "type": "function",
      "constant": true
    },
    {
      "inputs": [],
      "name": "owner",
      "outputs": [
        {
          "internalType": "address",
          "name": "",
          "type": "address"
        }
      ],
      "stateMutability": "view",
      "type": "function",
      "constant": true
    },
    {
      "inputs": [
        {
          "internalType": "uint256",
          "name": "tokenId",
          "type": "uint256"
        }
      ],
      "name": "ownerOf",
      "outputs": [
        {
          "internalType": "address",
          "name": "",
          "type": "address"
        }
      ],
      "stateMutability": "view",
      "type": "function",
      "constant": true
    },
    {
      "inputs": [],
      "name": "paused",
      "outputs": [
        {
          "internalType": "bool",
          "name": "",
          "type": "bool"
        }
      ],
      "stateMutability": "view",
      "type": "function",
      "constant": true
    },
    {
      "inputs": [],
      "name": "renounceOwnership",
      "outputs": [],
      "stateMutability": "nonpayable",
      "type": "function"
    },
    {
      "inputs": [
        {
          "internalType": "address",
          "name": "from",
          "type": "address"
        },
        {
          "internalType": "address",
          "name": "to",
          "type": "address"
        },
        {
          "internalType": "uint256",
          "name": "tokenId",
          "type": "uint256"
        }
      ],
      "name": "safeTransferFrom",
      "outputs": [],
      "stateMutability": "nonpayable",
      "type": "function"
    },
    {
      "inputs": [
        {
          "internalType": "address",
          "name": "from",
          "type": "address"
        },
        {
          "internalType": "address",
          "name": "to",
          "type": "address"
        },
        {
          "internalType": "uint256",
          "name": "tokenId",
          "type": "uint256"
        },
        {
          "internalType": "bytes",
          "name": "data",
          "type": "bytes"
        }
      ],
      "name": "safeTransferFrom",
      "outputs": [],
      "stateMutability": "nonpayable",
      "type": "function"
    },
    {
      "inputs": [
        {
          "internalType": "address",
          "name": "operator",
          "type": "address"
        },
        {
          "internalType": "bool",
          "name": "approved",
          "type": "bool"
        }
      ],
      "name": "setApprovalForAll",
      "outputs": [],
      "stateMutability": "nonpayable",
      "type": "function"
    },
    {
      "inputs": [],
      "name": "symbol",
      "outputs": [
        {
          "internalType": "string",
          "name": "",
          "type": "string"
        }
      ],
      "stateMutability": "view",
      "type": "function",
      "constant": true
    },
    {
      "inputs": [
        {
          "internalType": "uint256",
          "name": "index",
          "type": "uint256"
        }
      ],
      "name": "tokenByIndex",
      "outputs": [
        {
          "internalType": "uint256",
          "name": "",
          "type": "uint256"
        }
      ],
      "stateMutability": "view",
      "type": "function",
      "constant": true
    },
    {
      "inputs": [
        {
          "internalType": "address",
          "name": "owner",
          "type": "address"
        },
        {
          "internalType": "uint256",
          "name": "index",
          "type": "uint256"
        }
      ],
      "name": "tokenOfOwnerByIndex",
      "outputs": [
        {
          "internalType": "uint256",
          "name": "",
          "type": "uint256"
        }
      ],
      "stateMutability": "view",
      "type": "function",
      "constant": true
    },
    {
      "inputs": [],
      "name": "totalSupply",
      "outputs": [
        {
          "internalType": "uint256",
          "name": "",
          "type": "uint256"
        }
      ],
      "stateMutability": "view",
      "type": "function",
      "constant": true
    },
    {
      "inputs": [
        {
          "internalType": "address",
          "name": "from",
          "type": "address"
        },
        {
          "internalType": "address",
          "name": "to",
          "type": "address"
        },
        {
          "internalType": "uint256",
          "name": "tokenId",
          "type": "uint256"
        }
      ],
      "name": "transferFrom",
      "outputs": [],
      "stateMutability": "nonpayable",
      "type": "function"
    },
    {
      "inputs": [
        {
          "internalType": "address",
          "name": "newOwner",
          "type": "address"
        }
      ],
      "name": "transferOwnership",
      "outputs": [],
      "stateMutability": "nonpayable",
      "type": "function"
    },
    {
      "inputs": [],
      "name": "pause",
      "outputs": [],
      "stateMutability": "nonpayable",
      "type": "function"
    },
    {
      "inputs": [],
      "name": "unpause",
      "outputs": [],
      "stateMutability": "nonpayable",
      "type": "function"
    },
    {
      "inputs": [
        {
          "internalType": "address",
          "name": "to",
          "type": "address"
        },
        {
          "internalType": "string",
          "name": "uri",
          "type": "string"
        }
      ],
      "name": "safeMint",
      "outputs": [],
      "stateMutability": "payable",
      "type": "function",
      "payable": true
    },
    {
      "inputs": [
        {
          "internalType": "uint256",
          "name": "tokenId",
          "type": "uint256"
        }
      ],
      "name": "tokenURI",
      "outputs": [
        {
          "internalType": "string",
          "name": "",
          "type": "string"
        }
      ],
      "stateMutability": "view",
      "type": "function",
      "constant": true
    },
    {
      "inputs": [
        {
          "internalType": "bytes4",
          "name": "interfaceId",
          "type": "bytes4"
        }
      ],
      "name": "supportsInterface",
      "outputs": [
        {
          "internalType": "bool",
          "name": "",
          "type": "bool"
        }
      ],
      "stateMutability": "view",
      "type": "function",
      "constant": true
    },
    {
      "inputs": [],
      "name": "getBalance",
      "outputs": [
        {
          "internalType": "uint256",
          "name": "",
          "type": "uint256"
        }
      ],
      "stateMutability": "view",
      "type": "function",
      "constant": true
    },
    {
      "inputs": [],
      "name": "withdrawMoney",
      "outputs": [],
      "stateMutability": "nonpayable",
      "type": "function"
    }
  ],
  "bytecode": "0x6080604052655af3107a4000600c553480156200001b57600080fd5b506040518060400160405280600b81526020017f526f636b6574546f6b656e0000000000000000000000000000000000000000008152506040518060400160405280600681526020017f526f636b65740000000000000000000000000000000000000000000000000000815250816000908162000099919062000437565b508060019081620000ab919062000437565b5050506000600b60006101000a81548160ff021916908315150217905550620000e9620000dd620000ef60201b60201c565b620000f760201b60201c565b6200051e565b600033905090565b6000600b60019054906101000a900473ffffffffffffffffffffffffffffffffffffffff16905081600b60016101000a81548173ffffffffffffffffffffffffffffffffffffffff021916908373ffffffffffffffffffffffffffffffffffffffff1602179055508173ffffffffffffffffffffffffffffffffffffffff168173ffffffffffffffffffffffffffffffffffffffff167f8be0079c531659141344cd1fd0a4f28419497f9722a3daafe3b4186f6b6457e060405160405180910390a35050565b600081519050919050565b7f4e487b7100000000000000000000000000000000000000000000000000000000600052604160045260246000fd5b7f4e487b7100000000000000000000000000000000000000000000000000000000600052602260045260246000fd5b600060028204905060018216806200023f57607f821691505b602082108103620002555762000254620001f7565b5b50919050565b60008190508160005260206000209050919050565b60006020601f8301049050919050565b600082821b905092915050565b600060088302620002bf7fffffffffffffffffffffffffffffffffffffffffffffffffffffffffffffffff8262000280565b620002cb868362000280565b95508019841693508086168417925050509392505050565b6000819050919050565b6000819050919050565b600062000318620003126200030c84620002e3565b620002ed565b620002e3565b9050919050565b6000819050919050565b6200033483620002f7565b6200034c62000343826200031f565b8484546200028d565b825550505050565b600090565b6200036362000354565b6200037081848462000329565b505050565b5b8181101562000398576200038c60008262000359565b60018101905062000376565b5050565b601f821115620003e757620003b1816200025b565b620003bc8462000270565b81016020851015620003cc578190505b620003e4620003db8562000270565b83018262000375565b50505b505050565b600082821c905092915050565b60006200040c60001984600802620003ec565b1980831691505092915050565b6000620004278383620003f9565b9150826002028217905092915050565b6200044282620001bd565b67ffffffffffffffff8111156200045e576200045d620001c8565b5b6200046a825462000226565b620004778282856200039c565b600060209050601f831160018114620004af57600084156200049a578287015190505b620004a6858262000419565b86555062000516565b601f198416620004bf866200025b565b60005b82811015620004e957848901518255600182019150602085019450602081019050620004c2565b8683101562000509578489015162000505601f891682620003f9565b8355505b6001600288020188555050505b505050505050565b613da8806200052e6000396000f3fe6080604052600436106101815760003560e01c80636352211e116100d1578063a22cb4651161008a578063c87b56dd11610064578063c87b56dd14610548578063d204c45e14610585578063e985e9c5146105a1578063f2fde38b146105de57610181565b8063a22cb465146104df578063ac44600214610508578063b88d4fde1461051f57610181565b80636352211e146103e157806370a082311461041e578063715018a61461045b5780638456cb59146104725780638da5cb5b1461048957806395d89b41146104b457610181565b806323b872dd1161013e57806342842e0e1161011857806342842e0e1461032757806342966c68146103505780634f6ccce7146103795780635c975abb146103b657610181565b806323b872dd146102aa5780632f745c59146102d35780633f4ba83a1461031057610181565b806301ffc9a71461018657806306fdde03146101c3578063081812fc146101ee578063095ea7b31461022b57806312065fe01461025457806318160ddd1461027f575b600080fd5b34801561019257600080fd5b506101ad60048036038101906101a89190612792565b610607565b6040516101ba91906127da565b60405180910390f35b3480156101cf57600080fd5b506101d8610619565b6040516101e59190612885565b60405180910390f35b3480156101fa57600080fd5b50610215600480360381019061021091906128dd565b6106ab565b604051610222919061294b565b60405180910390f35b34801561023757600080fd5b50610252600480360381019061024d9190612992565b6106f1565b005b34801561026057600080fd5b50610269610808565b60405161027691906129e1565b60405180910390f35b34801561028b57600080fd5b50610294610810565b6040516102a191906129e1565b60405180910390f35b3480156102b657600080fd5b506102d160048036038101906102cc91906129fc565b61081d565b005b3480156102df57600080fd5b506102fa60048036038101906102f59190612992565b61087d565b60405161030791906129e1565b60405180910390f35b34801561031c57600080fd5b50610325610922565b005b34801561033357600080fd5b5061034e600480360381019061034991906129fc565b610934565b005b34801561035c57600080fd5b50610377600480360381019061037291906128dd565b610954565b005b34801561038557600080fd5b506103a0600480360381019061039b91906128dd565b6109b0565b6040516103ad91906129e1565b60405180910390f35b3480156103c257600080fd5b506103cb610a21565b6040516103d891906127da565b60405180910390f35b3480156103ed57600080fd5b50610408600480360381019061040391906128dd565b610a38565b604051610415919061294b565b60405180910390f35b34801561042a57600080fd5b5061044560048036038101906104409190612a4f565b610ae9565b60405161045291906129e1565b60405180910390f35b34801561046757600080fd5b50610470610ba0565b005b34801561047e57600080fd5b50610487610bb4565b005b34801561049557600080fd5b5061049e610bc6565b6040516104ab919061294b565b60405180910390f35b3480156104c057600080fd5b506104c9610bf0565b6040516104d69190612885565b60405180910390f35b3480156104eb57600080fd5b5061050660048036038101906105019190612aa8565b610c82565b005b34801561051457600080fd5b5061051d610c98565b005b34801561052b57600080fd5b5061054660048036038101906105419190612c1d565b610cee565b005b34801561055457600080fd5b5061056f600480360381019061056a91906128dd565b610d50565b60405161057c9190612885565b60405180910390f35b61059f600480360381019061059a9190612d41565b610d62565b005b3480156105ad57600080fd5b506105c860048036038101906105c39190612d9d565b610de0565b6040516105d591906127da565b60405180910390f35b3480156105ea57600080fd5b5061060560048036038101906106009190612a4f565b610e74565b005b600061061282610ef7565b9050919050565b60606000805461062890612e0c565b80601f016020809104026020016040519081016040528092919081815260200182805461065490612e0c565b80156106a15780601f10610676576101008083540402835291602001916106a1565b820191906000526020600020905b81548152906001019060200180831161068457829003601f168201915b5050505050905090565b60006106b682610f71565b6004600083815260200190815260200160002060009054906101000a900473ffffffffffffffffffffffffffffffffffffffff169050919050565b60006106fc82610a38565b90508073ffffffffffffffffffffffffffffffffffffffff168373ffffffffffffffffffffffffffffffffffffffff160361076c576040517f08c379a000000000000000000000000000000000000000000000000000000000815260040161076390612eaf565b60405180910390fd5b8073ffffffffffffffffffffffffffffffffffffffff1661078b610fbc565b73ffffffffffffffffffffffffffffffffffffffff1614806107ba57506107b9816107b4610fbc565b610de0565b5b6107f9576040517f08c379a00000000000000000000000000000000000000000000000000000000081526004016107f090612f41565b60405180910390fd5b6108038383610fc4565b505050565b600047905090565b6000600880549050905090565b61082e610828610fbc565b8261107d565b61086d576040517f08c379a000000000000000000000000000000000000000000000000000000000815260040161086490612fd3565b60405180910390fd5b610878838383611112565b505050565b600061088883610ae9565b82106108c9576040517f08c379a00000000000000000000000000000000000000000000000000000000081526004016108c090613065565b60405180910390fd5b600660008473ffffffffffffffffffffffffffffffffffffffff1673ffffffffffffffffffffffffffffffffffffffff168152602001908152602001600020600083815260200190815260200160002054905092915050565b61092a611378565b6109326113f6565b565b61094f83838360405180602001604052806000815250610cee565b505050565b61096561095f610fbc565b8261107d565b6109a4576040517f08c379a000000000000000000000000000000000000000000000000000000000815260040161099b90612fd3565b60405180910390fd5b6109ad81611459565b50565b60006109ba610810565b82106109fb576040517f08c379a00000000000000000000000000000000000000000000000000000000081526004016109f2906130f7565b60405180910390fd5b60088281548110610a0f57610a0e613117565b5b90600052602060002001549050919050565b6000600b60009054906101000a900460ff16905090565b6000806002600084815260200190815260200160002060009054906101000a900473ffffffffffffffffffffffffffffffffffffffff169050600073ffffffffffffffffffffffffffffffffffffffff168173ffffffffffffffffffffffffffffffffffffffff1603610ae0576040517f08c379a0000000000000000000000000000000000000000000000000000000008152600401610ad790613192565b60405180910390fd5b80915050919050565b60008073ffffffffffffffffffffffffffffffffffffffff168273ffffffffffffffffffffffffffffffffffffffff1603610b59576040517f08c379a0000000000000000000000000000000000000000000000000000000008152600401610b5090613224565b60405180910390fd5b600360008373ffffffffffffffffffffffffffffffffffffffff1673ffffffffffffffffffffffffffffffffffffffff168152602001908152602001600020549050919050565b610ba8611378565b610bb26000611465565b565b610bbc611378565b610bc461152b565b565b6000600b60019054906101000a900473ffffffffffffffffffffffffffffffffffffffff16905090565b606060018054610bff90612e0c565b80601f0160208091040260200160405190810160405280929190818152602001828054610c2b90612e0c565b8015610c785780601f10610c4d57610100808354040283529160200191610c78565b820191906000526020600020905b815481529060010190602001808311610c5b57829003601f168201915b5050505050905090565b610c94610c8d610fbc565b838361158e565b5050565b60003390508073ffffffffffffffffffffffffffffffffffffffff166108fc610cbf610808565b9081150290604051600060405180830381858888f19350505050158015610cea573d6000803e3d6000fd5b5050565b610cff610cf9610fbc565b8361107d565b610d3e576040517f08c379a0000000000000000000000000000000000000000000000000000000008152600401610d3590612fd3565b60405180910390fd5b610d4a848484846116fa565b50505050565b6060610d5b82611756565b9050919050565b610d6a611378565b600c54341015610daf576040517f08c379a0000000000000000000000000000000000000000000000000000000008152600401610da690613290565b60405180910390fd5b6000610dbb600d611868565b9050610dc7600d611876565b610dd1838261188c565b610ddb81836118aa565b505050565b6000600560008473ffffffffffffffffffffffffffffffffffffffff1673ffffffffffffffffffffffffffffffffffffffff16815260200190815260200160002060008373ffffffffffffffffffffffffffffffffffffffff1673ffffffffffffffffffffffffffffffffffffffff16815260200190815260200160002060009054906101000a900460ff16905092915050565b610e7c611378565b600073ffffffffffffffffffffffffffffffffffffffff168173ffffffffffffffffffffffffffffffffffffffff1603610eeb576040517f08c379a0000000000000000000000000000000000000000000000000000000008152600401610ee290613322565b60405180910390fd5b610ef481611465565b50565b60007f780e9d63000000000000000000000000000000000000000000000000000000007bffffffffffffffffffffffffffffffffffffffffffffffffffffffff1916827bffffffffffffffffffffffffffffffffffffffffffffffffffffffff19161480610f6a5750610f6982611917565b5b9050919050565b610f7a816119f9565b610fb9576040517f08c379a0000000000000000000000000000000000000000000000000000000008152600401610fb090613192565b60405180910390fd5b50565b600033905090565b816004600083815260200190815260200160002060006101000a81548173ffffffffffffffffffffffffffffffffffffffff021916908373ffffffffffffffffffffffffffffffffffffffff160217905550808273ffffffffffffffffffffffffffffffffffffffff1661103783610a38565b73ffffffffffffffffffffffffffffffffffffffff167f8c5be1e5ebec7d5bd14f71427d1e84f3dd0314c0f7b2291e5b200ac8c7c3b92560405160405180910390a45050565b60008061108983610a38565b90508073ffffffffffffffffffffffffffffffffffffffff168473ffffffffffffffffffffffffffffffffffffffff1614806110cb57506110ca8185610de0565b5b8061110957508373ffffffffffffffffffffffffffffffffffffffff166110f1846106ab565b73ffffffffffffffffffffffffffffffffffffffff16145b91505092915050565b8273ffffffffffffffffffffffffffffffffffffffff1661113282610a38565b73ffffffffffffffffffffffffffffffffffffffff1614611188576040517f08c379a000000000000000000000000000000000000000000000000000000000815260040161117f906133b4565b60405180910390fd5b600073ffffffffffffffffffffffffffffffffffffffff168273ffffffffffffffffffffffffffffffffffffffff16036111f7576040517f08c379a00000000000000000000000000000000000000000000000000000000081526004016111ee90613446565b60405180910390fd5b611202838383611a65565b61120d600082610fc4565b6001600360008573ffffffffffffffffffffffffffffffffffffffff1673ffffffffffffffffffffffffffffffffffffffff168152602001908152602001600020600082825461125d9190613495565b925050819055506001600360008473ffffffffffffffffffffffffffffffffffffffff1673ffffffffffffffffffffffffffffffffffffffff16815260200190815260200160002060008282546112b491906134c9565b92505081905550816002600083815260200190815260200160002060006101000a81548173ffffffffffffffffffffffffffffffffffffffff021916908373ffffffffffffffffffffffffffffffffffffffff160217905550808273ffffffffffffffffffffffffffffffffffffffff168473ffffffffffffffffffffffffffffffffffffffff167fddf252ad1be2c89b69c2b068fc378daa952ba7f163c4a11628f55a4df523b3ef60405160405180910390a4611373838383611a7d565b505050565b611380610fbc565b73ffffffffffffffffffffffffffffffffffffffff1661139e610bc6565b73ffffffffffffffffffffffffffffffffffffffff16146113f4576040517f08c379a00000000000000000000000000000000000000000000000000000000081526004016113eb90613549565b60405180910390fd5b565b6113fe611a82565b6000600b60006101000a81548160ff0219169083151502179055507f5db9ee0a495bf2e6ff9c91a7834c1ba4fdd244a5e8aa4e537bd38aeae4b073aa611442610fbc565b60405161144f919061294b565b60405180910390a1565b61146281611acb565b50565b6000600b60019054906101000a900473ffffffffffffffffffffffffffffffffffffffff16905081600b60016101000a81548173ffffffffffffffffffffffffffffffffffffffff021916908373ffffffffffffffffffffffffffffffffffffffff1602179055508173ffffffffffffffffffffffffffffffffffffffff168173ffffffffffffffffffffffffffffffffffffffff167f8be0079c531659141344cd1fd0a4f28419497f9722a3daafe3b4186f6b6457e060405160405180910390a35050565b611533611b1e565b6001600b60006101000a81548160ff0219169083151502179055507f62e78cea01bee320cd4e420270b5ea74000d11b0c9f74754ebdbfc544b05a258611577610fbc565b604051611584919061294b565b60405180910390a1565b8173ffffffffffffffffffffffffffffffffffffffff168373ffffffffffffffffffffffffffffffffffffffff16036115fc576040517f08c379a00000000000000000000000000000000000000000000000000000000081526004016115f3906135b5565b60405180910390fd5b80600560008573ffffffffffffffffffffffffffffffffffffffff1673ffffffffffffffffffffffffffffffffffffffff16815260200190815260200160002060008473ffffffffffffffffffffffffffffffffffffffff1673ffffffffffffffffffffffffffffffffffffffff16815260200190815260200160002060006101000a81548160ff0219169083151502179055508173ffffffffffffffffffffffffffffffffffffffff168373ffffffffffffffffffffffffffffffffffffffff167f17307eab39ab6107e8899845ad3d59bd9653f200f220920489ca2b5937696c31836040516116ed91906127da565b60405180910390a3505050565b611705848484611112565b61171184848484611b68565b611750576040517f08c379a000000000000000000000000000000000000000000000000000000000815260040161174790613647565b60405180910390fd5b50505050565b606061176182610f71565b6000600a6000848152602001908152602001600020805461178190612e0c565b80601f01602080910402602001604051908101604052809291908181526020018280546117ad90612e0c565b80156117fa5780601f106117cf576101008083540402835291602001916117fa565b820191906000526020600020905b8154815290600101906020018083116117dd57829003601f168201915b50505050509050600061180b611cef565b90506000815103611820578192505050611863565b60008251111561185557808260405160200161183d9291906136a3565b60405160208183030381529060405292505050611863565b61185e84611d06565b925050505b919050565b600081600001549050919050565b6001816000016000828254019250508190555050565b6118a6828260405180602001604052806000815250611d6e565b5050565b6118b3826119f9565b6118f2576040517f08c379a00000000000000000000000000000000000000000000000000000000081526004016118e990613739565b60405180910390fd5b80600a600084815260200190815260200160002090816119129190613905565b505050565b60007f80ac58cd000000000000000000000000000000000000000000000000000000007bffffffffffffffffffffffffffffffffffffffffffffffffffffffff1916827bffffffffffffffffffffffffffffffffffffffffffffffffffffffff191614806119e257507f5b5e139f000000000000000000000000000000000000000000000000000000007bffffffffffffffffffffffffffffffffffffffffffffffffffffffff1916827bffffffffffffffffffffffffffffffffffffffffffffffffffffffff1916145b806119f257506119f182611dc9565b5b9050919050565b60008073ffffffffffffffffffffffffffffffffffffffff166002600084815260200190815260200160002060009054906101000a900473ffffffffffffffffffffffffffffffffffffffff1673ffffffffffffffffffffffffffffffffffffffff1614159050919050565b611a6d611b1e565b611a78838383611e33565b505050565b505050565b611a8a610a21565b611ac9576040517f08c379a0000000000000000000000000000000000000000000000000000000008152600401611ac090613a23565b60405180910390fd5b565b611ad481611f45565b6000600a60008381526020019081526020016000208054611af490612e0c565b905014611b1b57600a60008281526020019081526020016000206000611b1a91906126c9565b5b50565b611b26610a21565b15611b66576040517f08c379a0000000000000000000000000000000000000000000000000000000008152600401611b5d90613a8f565b60405180910390fd5b565b6000611b898473ffffffffffffffffffffffffffffffffffffffff16612062565b15611ce2578373ffffffffffffffffffffffffffffffffffffffff1663150b7a02611bb2610fbc565b8786866040518563ffffffff1660e01b8152600401611bd49493929190613b04565b6020604051808303816000875af1925050508015611c1057506040513d601f19601f82011682018060405250810190611c0d9190613b65565b60015b611c92573d8060008114611c40576040519150601f19603f3d011682016040523d82523d6000602084013e611c45565b606091505b506000815103611c8a576040517f08c379a0000000000000000000000000000000000000000000000000000000008152600401611c8190613647565b60405180910390fd5b805181602001fd5b63150b7a0260e01b7bffffffffffffffffffffffffffffffffffffffffffffffffffffffff1916817bffffffffffffffffffffffffffffffffffffffffffffffffffffffff191614915050611ce7565b600190505b949350505050565b606060405180602001604052806000815250905090565b6060611d1182610f71565b6000611d1b611cef565b90506000815111611d3b5760405180602001604052806000815250611d66565b80611d4584612085565b604051602001611d569291906136a3565b6040516020818303038152906040525b915050919050565b611d7883836121e5565b611d856000848484611b68565b611dc4576040517f08c379a0000000000000000000000000000000000000000000000000000000008152600401611dbb90613647565b60405180910390fd5b505050565b60007f01ffc9a7000000000000000000000000000000000000000000000000000000007bffffffffffffffffffffffffffffffffffffffffffffffffffffffff1916827bffffffffffffffffffffffffffffffffffffffffffffffffffffffff1916149050919050565b611e3e8383836123be565b600073ffffffffffffffffffffffffffffffffffffffff168373ffffffffffffffffffffffffffffffffffffffff1603611e8057611e7b816123c3565b611ebf565b8173ffffffffffffffffffffffffffffffffffffffff168373ffffffffffffffffffffffffffffffffffffffff1614611ebe57611ebd838261240c565b5b5b600073ffffffffffffffffffffffffffffffffffffffff168273ffffffffffffffffffffffffffffffffffffffff1603611f0157611efc81612579565b611f40565b8273ffffffffffffffffffffffffffffffffffffffff168273ffffffffffffffffffffffffffffffffffffffff1614611f3f57611f3e828261264a565b5b5b505050565b6000611f5082610a38565b9050611f5e81600084611a65565b611f69600083610fc4565b6001600360008373ffffffffffffffffffffffffffffffffffffffff1673ffffffffffffffffffffffffffffffffffffffff1681526020019081526020016000206000828254611fb99190613495565b925050819055506002600083815260200190815260200160002060006101000a81549073ffffffffffffffffffffffffffffffffffffffff021916905581600073ffffffffffffffffffffffffffffffffffffffff168273ffffffffffffffffffffffffffffffffffffffff167fddf252ad1be2c89b69c2b068fc378daa952ba7f163c4a11628f55a4df523b3ef60405160405180910390a461205e81600084611a7d565b5050565b6000808273ffffffffffffffffffffffffffffffffffffffff163b119050919050565b6060600082036120cc576040518060400160405280600181526020017f300000000000000000000000000000000000000000000000000000000000000081525090506121e0565b600082905060005b600082146120fe5780806120e790613b92565b915050600a826120f79190613c09565b91506120d4565b60008167ffffffffffffffff81111561211a57612119612af2565b5b6040519080825280601f01601f19166020018201604052801561214c5781602001600182028036833780820191505090505b5090505b600085146121d9576001826121659190613495565b9150600a856121749190613c3a565b603061218091906134c9565b60f81b81838151811061219657612195613117565b5b60200101907effffffffffffffffffffffffffffffffffffffffffffffffffffffffffffff1916908160001a905350600a856121d29190613c09565b9450612150565b8093505050505b919050565b600073ffffffffffffffffffffffffffffffffffffffff168273ffffffffffffffffffffffffffffffffffffffff1603612254576040517f08c379a000000000000000000000000000000000000000000000000000000000815260040161224b90613cb7565b60405180910390fd5b61225d816119f9565b1561229d576040517f08c379a000000000000000000000000000000000000000000000000000000000815260040161229490613d23565b60405180910390fd5b6122a960008383611a65565b6001600360008473ffffffffffffffffffffffffffffffffffffffff1673ffffffffffffffffffffffffffffffffffffffff16815260200190815260200160002060008282546122f991906134c9565b92505081905550816002600083815260200190815260200160002060006101000a81548173ffffffffffffffffffffffffffffffffffffffff021916908373ffffffffffffffffffffffffffffffffffffffff160217905550808273ffffffffffffffffffffffffffffffffffffffff16600073ffffffffffffffffffffffffffffffffffffffff167fddf252ad1be2c89b69c2b068fc378daa952ba7f163c4a11628f55a4df523b3ef60405160405180910390a46123ba60008383611a7d565b5050565b505050565b6008805490506009600083815260200190815260200160002081905550600881908060018154018082558091505060019003906000526020600020016000909190919091505550565b6000600161241984610ae9565b6124239190613495565b9050600060076000848152602001908152602001600020549050818114612508576000600660008673ffffffffffffffffffffffffffffffffffffffff1673ffffffffffffffffffffffffffffffffffffffff168152602001908152602001600020600084815260200190815260200160002054905080600660008773ffffffffffffffffffffffffffffffffffffffff1673ffffffffffffffffffffffffffffffffffffffff168152602001908152602001600020600084815260200190815260200160002081905550816007600083815260200190815260200160002081905550505b6007600084815260200190815260200160002060009055600660008573ffffffffffffffffffffffffffffffffffffffff1673ffffffffffffffffffffffffffffffffffffffff16815260200190815260200160002060008381526020019081526020016000206000905550505050565b6000600160088054905061258d9190613495565b90506000600960008481526020019081526020016000205490506000600883815481106125bd576125bc613117565b5b9060005260206000200154905080600883815481106125df576125de613117565b5b90600052602060002001819055508160096000838152602001908152602001600020819055506009600085815260200190815260200160002060009055600880548061262e5761262d613d43565b5b6001900381819060005260206000200160009055905550505050565b600061265583610ae9565b905081600660008573ffffffffffffffffffffffffffffffffffffffff1673ffffffffffffffffffffffffffffffffffffffff168152602001908152602001600020600083815260200190815260200160002081905550806007600084815260200190815260200160002081905550505050565b5080546126d590612e0c565b6000825580601f106126e75750612706565b601f0160209004906000526020600020908101906127059190612709565b5b50565b5b8082111561272257600081600090555060010161270a565b5090565b6000604051905090565b600080fd5b600080fd5b60007fffffffff0000000000000000000000000000000000000000000000000000000082169050919050565b61276f8161273a565b811461277a57600080fd5b50565b60008135905061278c81612766565b92915050565b6000602082840312156127a8576127a7612730565b5b60006127b68482850161277d565b91505092915050565b60008115159050919050565b6127d4816127bf565b82525050565b60006020820190506127ef60008301846127cb565b92915050565b600081519050919050565b600082825260208201905092915050565b60005b8381101561282f578082015181840152602081019050612814565b60008484015250505050565b6000601f19601f8301169050919050565b6000612857826127f5565b6128618185612800565b9350612871818560208601612811565b61287a8161283b565b840191505092915050565b6000602082019050818103600083015261289f818461284c565b905092915050565b6000819050919050565b6128ba816128a7565b81146128c557600080fd5b50565b6000813590506128d7816128b1565b92915050565b6000602082840312156128f3576128f2612730565b5b6000612901848285016128c8565b91505092915050565b600073ffffffffffffffffffffffffffffffffffffffff82169050919050565b60006129358261290a565b9050919050565b6129458161292a565b82525050565b6000602082019050612960600083018461293c565b92915050565b61296f8161292a565b811461297a57600080fd5b50565b60008135905061298c81612966565b92915050565b600080604083850312156129a9576129a8612730565b5b60006129b78582860161297d565b92505060206129c8858286016128c8565b9150509250929050565b6129db816128a7565b82525050565b60006020820190506129f660008301846129d2565b92915050565b600080600060608486031215612a1557612a14612730565b5b6000612a238682870161297d565b9350506020612a348682870161297d565b9250506040612a45868287016128c8565b9150509250925092565b600060208284031215612a6557612a64612730565b5b6000612a738482850161297d565b91505092915050565b612a85816127bf565b8114612a9057600080fd5b50565b600081359050612aa281612a7c565b92915050565b60008060408385031215612abf57612abe612730565b5b6000612acd8582860161297d565b9250506020612ade85828601612a93565b9150509250929050565b600080fd5b600080fd5b7f4e487b7100000000000000000000000000000000000000000000000000000000600052604160045260246000fd5b612b2a8261283b565b810181811067ffffffffffffffff82111715612b4957612b48612af2565b5b80604052505050565b6000612b5c612726565b9050612b688282612b21565b919050565b600067ffffffffffffffff821115612b8857612b87612af2565b5b612b918261283b565b9050602081019050919050565b82818337600083830152505050565b6000612bc0612bbb84612b6d565b612b52565b905082815260208101848484011115612bdc57612bdb612aed565b5b612be7848285612b9e565b509392505050565b600082601f830112612c0457612c03612ae8565b5b8135612c14848260208601612bad565b91505092915050565b60008060008060808587031215612c3757612c36612730565b5b6000612c458782880161297d565b9450506020612c568782880161297d565b9350506040612c67878288016128c8565b925050606085013567ffffffffffffffff811115612c8857612c87612735565b5b612c9487828801612bef565b91505092959194509250565b600067ffffffffffffffff821115612cbb57612cba612af2565b5b612cc48261283b565b9050602081019050919050565b6000612ce4612cdf84612ca0565b612b52565b905082815260208101848484011115612d0057612cff612aed565b5b612d0b848285612b9e565b509392505050565b600082601f830112612d2857612d27612ae8565b5b8135612d38848260208601612cd1565b91505092915050565b60008060408385031215612d5857612d57612730565b5b6000612d668582860161297d565b925050602083013567ffffffffffffffff811115612d8757612d86612735565b5b612d9385828601612d13565b9150509250929050565b60008060408385031215612db457612db3612730565b5b6000612dc28582860161297d565b9250506020612dd38582860161297d565b9150509250929050565b7f4e487b7100000000000000000000000000000000000000000000000000000000600052602260045260246000fd5b60006002820490506001821680612e2457607f821691505b602082108103612e3757612e36612ddd565b5b50919050565b7f4552433732313a20617070726f76616c20746f2063757272656e74206f776e6560008201527f7200000000000000000000000000000000000000000000000000000000000000602082015250565b6000612e99602183612800565b9150612ea482612e3d565b604082019050919050565b60006020820190508181036000830152612ec881612e8c565b9050919050565b7f4552433732313a20617070726f76652063616c6c6572206973206e6f7420746f60008201527f6b656e206f776e6572206e6f7220617070726f76656420666f7220616c6c0000602082015250565b6000612f2b603e83612800565b9150612f3682612ecf565b604082019050919050565b60006020820190508181036000830152612f5a81612f1e565b9050919050565b7f4552433732313a2063616c6c6572206973206e6f7420746f6b656e206f776e6560008201527f72206e6f7220617070726f766564000000000000000000000000000000000000602082015250565b6000612fbd602e83612800565b9150612fc882612f61565b604082019050919050565b60006020820190508181036000830152612fec81612fb0565b9050919050565b7f455243373231456e756d657261626c653a206f776e657220696e646578206f7560008201527f74206f6620626f756e6473000000000000000000000000000000000000000000602082015250565b600061304f602b83612800565b915061305a82612ff3565b604082019050919050565b6000602082019050818103600083015261307e81613042565b9050919050565b7f455243373231456e756d657261626c653a20676c6f62616c20696e646578206f60008201527f7574206f6620626f756e64730000000000000000000000000000000000000000602082015250565b60006130e1602c83612800565b91506130ec82613085565b604082019050919050565b60006020820190508181036000830152613110816130d4565b9050919050565b7f4e487b7100000000000000000000000000000000000000000000000000000000600052603260045260246000fd5b7f4552433732313a20696e76616c696420746f6b656e2049440000000000000000600082015250565b600061317c601883612800565b915061318782613146565b602082019050919050565b600060208201905081810360008301526131ab8161316f565b9050919050565b7f4552433732313a2061646472657373207a65726f206973206e6f74206120766160008201527f6c6964206f776e65720000000000000000000000000000000000000000000000602082015250565b600061320e602983612800565b9150613219826131b2565b604082019050919050565b6000602082019050818103600083015261323d81613201565b9050919050565b7f4e6f7420656e6f75676820455448207761732073656e74000000000000000000600082015250565b600061327a601783612800565b915061328582613244565b602082019050919050565b600060208201905081810360008301526132a98161326d565b9050919050565b7f4f776e61626c653a206e6577206f776e657220697320746865207a65726f206160008201527f6464726573730000000000000000000000000000000000000000000000000000602082015250565b600061330c602683612800565b9150613317826132b0565b604082019050919050565b6000602082019050818103600083015261333b816132ff565b9050919050565b7f4552433732313a207472616e736665722066726f6d20696e636f72726563742060008201527f6f776e6572000000000000000000000000000000000000000000000000000000602082015250565b600061339e602583612800565b91506133a982613342565b604082019050919050565b600060208201905081810360008301526133cd81613391565b9050919050565b7f4552433732313a207472616e7366657220746f20746865207a65726f2061646460008201527f7265737300000000000000000000000000000000000000000000000000000000602082015250565b6000613430602483612800565b915061343b826133d4565b604082019050919050565b6000602082019050818103600083015261345f81613423565b9050919050565b7f4e487b7100000000000000000000000000000000000000000000000000000000600052601160045260246000fd5b60006134a0826128a7565b91506134ab836128a7565b92508282039050818111156134c3576134c2613466565b5b92915050565b60006134d4826128a7565b91506134df836128a7565b92508282019050808211156134f7576134f6613466565b5b92915050565b7f4f776e61626c653a2063616c6c6572206973206e6f7420746865206f776e6572600082015250565b6000613533602083612800565b915061353e826134fd565b602082019050919050565b6000602082019050818103600083015261356281613526565b9050919050565b7f4552433732313a20617070726f766520746f2063616c6c657200000000000000600082015250565b600061359f601983612800565b91506135aa82613569565b602082019050919050565b600060208201905081810360008301526135ce81613592565b9050919050565b7f4552433732313a207472616e7366657220746f206e6f6e20455243373231526560008201527f63656976657220696d706c656d656e7465720000000000000000000000000000602082015250565b6000613631603283612800565b915061363c826135d5565b604082019050919050565b6000602082019050818103600083015261366081613624565b9050919050565b600081905092915050565b600061367d826127f5565b6136878185613667565b9350613697818560208601612811565b80840191505092915050565b60006136af8285613672565b91506136bb8284613672565b91508190509392505050565b7f45524337323155524953746f726167653a2055524920736574206f66206e6f6e60008201527f6578697374656e7420746f6b656e000000000000000000000000000000000000602082015250565b6000613723602e83612800565b915061372e826136c7565b604082019050919050565b6000602082019050818103600083015261375281613716565b9050919050565b60008190508160005260206000209050919050565b60006020601f8301049050919050565b600082821b905092915050565b6000600883026137bb7fffffffffffffffffffffffffffffffffffffffffffffffffffffffffffffffff8261377e565b6137c5868361377e565b95508019841693508086168417925050509392505050565b6000819050919050565b60006138026137fd6137f8846128a7565b6137dd565b6128a7565b9050919050565b6000819050919050565b61381c836137e7565b61383061382882613809565b84845461378b565b825550505050565b600090565b613845613838565b613850818484613813565b505050565b5b818110156138745761386960008261383d565b600181019050613856565b5050565b601f8211156138b95761388a81613759565b6138938461376e565b810160208510156138a2578190505b6138b66138ae8561376e565b830182613855565b50505b505050565b600082821c905092915050565b60006138dc600019846008026138be565b1980831691505092915050565b60006138f583836138cb565b9150826002028217905092915050565b61390e826127f5565b67ffffffffffffffff81111561392757613926612af2565b5b6139318254612e0c565b61393c828285613878565b600060209050601f83116001811461396f576000841561395d578287015190505b61396785826138e9565b8655506139cf565b601f19841661397d86613759565b60005b828110156139a557848901518255600182019150602085019450602081019050613980565b868310156139c257848901516139be601f8916826138cb565b8355505b6001600288020188555050505b505050505050565b7f5061757361626c653a206e6f7420706175736564000000000000000000000000600082015250565b6000613a0d601483612800565b9150613a18826139d7565b602082019050919050565b60006020820190508181036000830152613a3c81613a00565b9050919050565b7f5061757361626c653a2070617573656400000000000000000000000000000000600082015250565b6000613a79601083612800565b9150613a8482613a43565b602082019050919050565b60006020820190508181036000830152613aa881613a6c565b9050919050565b600081519050919050565b600082825260208201905092915050565b6000613ad682613aaf565b613ae08185613aba565b9350613af0818560208601612811565b613af98161283b565b840191505092915050565b6000608082019050613b19600083018761293c565b613b26602083018661293c565b613b3360408301856129d2565b8181036060830152613b458184613acb565b905095945050505050565b600081519050613b5f81612766565b92915050565b600060208284031215613b7b57613b7a612730565b5b6000613b8984828501613b50565b91505092915050565b6000613b9d826128a7565b91507fffffffffffffffffffffffffffffffffffffffffffffffffffffffffffffffff8203613bcf57613bce613466565b5b600182019050919050565b7f4e487b7100000000000000000000000000000000000000000000000000000000600052601260045260246000fd5b6000613c14826128a7565b9150613c1f836128a7565b925082613c2f57613c2e613bda565b5b828204905092915050565b6000613c45826128a7565b9150613c50836128a7565b925082613c6057613c5f613bda565b5b828206905092915050565b7f4552433732313a206d696e7420746f20746865207a65726f2061646472657373600082015250565b6000613ca1602083612800565b9150613cac82613c6b565b602082019050919050565b60006020820190508181036000830152613cd081613c94565b9050919050565b7f4552433732313a20746f6b656e20616c7265616479206d696e74656400000000600082015250565b6000613d0d601c83612800565b9150613d1882613cd7565b602082019050919050565b60006020820190508181036000830152613d3c81613d00565b9050919050565b7f4e487b7100000000000000000000000000000000000000000000000000000000600052603160045260246000fdfea2646970667358221220b80c5ed94b171cec40ac93cc44308b336eb84c9b5240a199fa29f145c67c008464736f6c63430008100033",
  "immutableReferences": {},
  "source": "// SPDX-License-Identifier: MIT\npragma solidity ^0.8.4;\n\nimport \"@openzeppelin/contracts/token/ERC721/ERC721.sol\";\nimport \"@openzeppelin/contracts/token/ERC721/extensions/ERC721Enumerable.sol\";\nimport \"@openzeppelin/contracts/token/ERC721/extensions/ERC721URIStorage.sol\";\nimport \"@openzeppelin/contracts/security/Pausable.sol\";\nimport \"@openzeppelin/contracts/access/Ownable.sol\";\nimport \"@openzeppelin/contracts/token/ERC721/extensions/ERC721Burnable.sol\";\nimport \"@openzeppelin/contracts/utils/Counters.sol\";\n\ncontract RocketToken is ERC721, ERC721Enumerable, ERC721URIStorage, Pausable, Ownable, ERC721Burnable {\n    using Counters for Counters.Counter;\n    uint cost = 0.0001 ether; \n    Counters.Counter private _tokenIdCounter;\n\n    constructor() ERC721(\"RocketToken\", \"Rocket\") {}\n\n    function pause() public onlyOwner {\n        _pause();\n    }\n\n    function unpause() public onlyOwner {\n        _unpause();\n    }\n\n    function safeMint(address to, string memory uri) public payable onlyOwner {\n        require(msg.value >= cost, \"Not enough ETH was sent\");\n        uint256 tokenId = _tokenIdCounter.current();\n        _tokenIdCounter.increment();\n        _safeMint(to, tokenId);\n        _setTokenURI(tokenId, uri);\n    }\n\n    function _beforeTokenTransfer(address from, address to, uint256 tokenId)\n        internal\n        whenNotPaused\n        override(ERC721, ERC721Enumerable)\n    {\n        super._beforeTokenTransfer(from, to, tokenId);\n    }\n\n    // The following functions are overrides required by Solidity.\n\n    function _burn(uint256 tokenId) internal override(ERC721, ERC721URIStorage) {\n        super._burn(tokenId);\n    }\n\n    function tokenURI(uint256 tokenId)\n        public\n        view\n        override(ERC721, ERC721URIStorage)\n        returns (string memory)\n    {\n        return super.tokenURI(tokenId);\n    }\n\n    function supportsInterface(bytes4 interfaceId)\n        public\n        view\n        override(ERC721, ERC721Enumerable)\n        returns (bool)\n    {\n        return super.supportsInterface(interfaceId);\n    }\n\n    function getBalance() public view returns(uint) {\n        return address(this).balance;\n    }\n\n        function withdrawMoney() public {\n        address payable to = payable(msg.sender);\n        to.transfer(getBalance());\n    }\n}\n",
  "sourcePath": "/home/ubuntu/Rocket_Elevators_Blockchain/contracts/RocketToken.sol",
  "compiler": {
    "name": "solc",
    "version": "0.8.16+commit.07a7930e.Emscripten.clang"
  },
  "schemaVersion": "3.4.9",
  "updatedAt": "2022-08-23T14:34:44.170Z",
  "networkType": "ethereum",
  "devdoc": {
    "kind": "dev",
    "methods": {
      "approve(address,uint256)": {
        "details": "See {IERC721-approve}."
      },
      "balanceOf(address)": {
        "details": "See {IERC721-balanceOf}."
      },
      "burn(uint256)": {
        "details": "Burns `tokenId`. See {ERC721-_burn}. Requirements: - The caller must own `tokenId` or be an approved operator."
      },
      "getApproved(uint256)": {
        "details": "See {IERC721-getApproved}."
      },
      "isApprovedForAll(address,address)": {
        "details": "See {IERC721-isApprovedForAll}."
      },
      "name()": {
        "details": "See {IERC721Metadata-name}."
      },
      "owner()": {
        "details": "Returns the address of the current owner."
      },
      "ownerOf(uint256)": {
        "details": "See {IERC721-ownerOf}."
      },
      "paused()": {
        "details": "Returns true if the contract is paused, and false otherwise."
      },
      "renounceOwnership()": {
        "details": "Leaves the contract without owner. It will not be possible to call `onlyOwner` functions anymore. Can only be called by the current owner. NOTE: Renouncing ownership will leave the contract without an owner, thereby removing any functionality that is only available to the owner."
      },
      "safeTransferFrom(address,address,uint256)": {
        "details": "See {IERC721-safeTransferFrom}."
      },
      "safeTransferFrom(address,address,uint256,bytes)": {
        "details": "See {IERC721-safeTransferFrom}."
      },
      "setApprovalForAll(address,bool)": {
        "details": "See {IERC721-setApprovalForAll}."
      },
      "symbol()": {
        "details": "See {IERC721Metadata-symbol}."
      },
      "tokenByIndex(uint256)": {
        "details": "See {IERC721Enumerable-tokenByIndex}."
      },
      "tokenOfOwnerByIndex(address,uint256)": {
        "details": "See {IERC721Enumerable-tokenOfOwnerByIndex}."
      },
      "totalSupply()": {
        "details": "See {IERC721Enumerable-totalSupply}."
      },
      "transferFrom(address,address,uint256)": {
        "details": "See {IERC721-transferFrom}."
      },
      "transferOwnership(address)": {
        "details": "Transfers ownership of the contract to a new account (`newOwner`). Can only be called by the current owner."
      }
    },
    "version": 1
  },
  "userdoc": {
    "kind": "user",
    "methods": {},
    "version": 1
  }
}