{
  "contractName": "RocketToken",
  "abi": [
    {
      "inputs": [],
      "stateMutability": "nonpayable",
      "type": "constructor"
    },
    {
      "anonymous": false,
      "inputs": [
        {
          "indexed": true,
          "internalType": "address",
          "name": "owner",
          "type": "address"
        },
        {
          "indexed": true,
          "internalType": "address",
          "name": "approved",
          "type": "address"
        },
        {
          "indexed": true,
          "internalType": "uint256",
          "name": "tokenId",
          "type": "uint256"
        }
      ],
      "name": "Approval",
      "type": "event"
    },
    {
      "anonymous": false,
      "inputs": [
        {
          "indexed": true,
          "internalType": "address",
          "name": "owner",
          "type": "address"
        },
        {
          "indexed": true,
          "internalType": "address",
          "name": "operator",
          "type": "address"
        },
        {
          "indexed": false,
          "internalType": "bool",
          "name": "approved",
          "type": "bool"
        }
      ],
      "name": "ApprovalForAll",
      "type": "event"
    },
    {
      "anonymous": false,
      "inputs": [
        {
          "indexed": true,
          "internalType": "address",
          "name": "previousOwner",
          "type": "address"
        },
        {
          "indexed": true,
          "internalType": "address",
          "name": "newOwner",
          "type": "address"
        }
      ],
      "name": "OwnershipTransferred",
      "type": "event"
    },
    {
      "anonymous": false,
      "inputs": [
        {
          "indexed": false,
          "internalType": "address",
          "name": "account",
          "type": "address"
        }
      ],
      "name": "Paused",
      "type": "event"
    },
    {
      "anonymous": false,
      "inputs": [
        {
          "indexed": true,
          "internalType": "address",
          "name": "from",
          "type": "address"
        },
        {
          "indexed": true,
          "internalType": "address",
          "name": "to",
          "type": "address"
        },
        {
          "indexed": true,
          "internalType": "uint256",
          "name": "tokenId",
          "type": "uint256"
        }
      ],
      "name": "Transfer",
      "type": "event"
    },
    {
      "anonymous": false,
      "inputs": [
        {
          "indexed": false,
          "internalType": "address",
          "name": "account",
          "type": "address"
        }
      ],
      "name": "Unpaused",
      "type": "event"
    },
    {
      "inputs": [
        {
          "internalType": "address",
          "name": "to",
          "type": "address"
        },
        {
          "internalType": "uint256",
          "name": "tokenId",
          "type": "uint256"
        }
      ],
      "name": "approve",
      "outputs": [],
      "stateMutability": "nonpayable",
      "type": "function"
    },
    {
      "inputs": [
        {
          "internalType": "address",
          "name": "owner",
          "type": "address"
        }
      ],
      "name": "balanceOf",
      "outputs": [
        {
          "internalType": "uint256",
          "name": "",
          "type": "uint256"
        }
      ],
      "stateMutability": "view",
      "type": "function",
      "constant": true
    },
    {
      "inputs": [
        {
          "internalType": "uint256",
          "name": "tokenId",
          "type": "uint256"
        }
      ],
      "name": "burn",
      "outputs": [],
      "stateMutability": "nonpayable",
      "type": "function"
    },
    {
      "inputs": [
        {
          "internalType": "address",
          "name": "",
          "type": "address"
        }
      ],
      "name": "freeNFTList",
      "outputs": [
        {
          "internalType": "bool",
          "name": "",
          "type": "bool"
        }
      ],
      "stateMutability": "view",
      "type": "function",
      "constant": true
    },
    {
      "inputs": [
        {
          "internalType": "uint256",
          "name": "tokenId",
          "type": "uint256"
        }
      ],
      "name": "getApproved",
      "outputs": [
        {
          "internalType": "address",
          "name": "",
          "type": "address"
        }
      ],
      "stateMutability": "view",
      "type": "function",
      "constant": true
    },
    {
      "inputs": [
        {
          "internalType": "address",
          "name": "owner",
          "type": "address"
        },
        {
          "internalType": "address",
          "name": "operator",
          "type": "address"
        }
      ],
      "name": "isApprovedForAll",
      "outputs": [
        {
          "internalType": "bool",
          "name": "",
          "type": "bool"
        }
      ],
      "stateMutability": "view",
      "type": "function",
      "constant": true
    },
    {
      "inputs": [
        {
          "internalType": "address",
          "name": "",
          "type": "address"
        }
      ],
      "name": "lockTime",
      "outputs": [
        {
          "internalType": "uint256",
          "name": "",
          "type": "uint256"
        }
      ],
      "stateMutability": "view",
      "type": "function",
      "constant": true
    },
    {
      "inputs": [],
      "name": "name",
      "outputs": [
        {
          "internalType": "string",
          "name": "",
          "type": "string"
        }
      ],
      "stateMutability": "view",
      "type": "function",
      "constant": true
    },
    {
      "inputs": [],
      "name": "owner",
      "outputs": [
        {
          "internalType": "address",
          "name": "",
          "type": "address"
        }
      ],
      "stateMutability": "view",
      "type": "function",
      "constant": true
    },
    {
      "inputs": [
        {
          "internalType": "uint256",
          "name": "tokenId",
          "type": "uint256"
        }
      ],
      "name": "ownerOf",
      "outputs": [
        {
          "internalType": "address",
          "name": "",
          "type": "address"
        }
      ],
      "stateMutability": "view",
      "type": "function",
      "constant": true
    },
    {
      "inputs": [],
      "name": "paused",
      "outputs": [
        {
          "internalType": "bool",
          "name": "",
          "type": "bool"
        }
      ],
      "stateMutability": "view",
      "type": "function",
      "constant": true
    },
    {
      "inputs": [],
      "name": "renounceOwnership",
      "outputs": [],
      "stateMutability": "nonpayable",
      "type": "function"
    },
    {
      "inputs": [
        {
          "internalType": "address",
          "name": "from",
          "type": "address"
        },
        {
          "internalType": "address",
          "name": "to",
          "type": "address"
        },
        {
          "internalType": "uint256",
          "name": "tokenId",
          "type": "uint256"
        }
      ],
      "name": "safeTransferFrom",
      "outputs": [],
      "stateMutability": "nonpayable",
      "type": "function"
    },
    {
      "inputs": [
        {
          "internalType": "address",
          "name": "from",
          "type": "address"
        },
        {
          "internalType": "address",
          "name": "to",
          "type": "address"
        },
        {
          "internalType": "uint256",
          "name": "tokenId",
          "type": "uint256"
        },
        {
          "internalType": "bytes",
          "name": "data",
          "type": "bytes"
        }
      ],
      "name": "safeTransferFrom",
      "outputs": [],
      "stateMutability": "nonpayable",
      "type": "function"
    },
    {
      "inputs": [
        {
          "internalType": "address",
          "name": "operator",
          "type": "address"
        },
        {
          "internalType": "bool",
          "name": "approved",
          "type": "bool"
        }
      ],
      "name": "setApprovalForAll",
      "outputs": [],
      "stateMutability": "nonpayable",
      "type": "function"
    },
    {
      "inputs": [],
      "name": "symbol",
      "outputs": [
        {
          "internalType": "string",
          "name": "",
          "type": "string"
        }
      ],
      "stateMutability": "view",
      "type": "function",
      "constant": true
    },
    {
      "inputs": [
        {
          "internalType": "uint256",
          "name": "index",
          "type": "uint256"
        }
      ],
      "name": "tokenByIndex",
      "outputs": [
        {
          "internalType": "uint256",
          "name": "",
          "type": "uint256"
        }
      ],
      "stateMutability": "view",
      "type": "function",
      "constant": true
    },
    {
      "inputs": [
        {
          "internalType": "address",
          "name": "owner",
          "type": "address"
        },
        {
          "internalType": "uint256",
          "name": "index",
          "type": "uint256"
        }
      ],
      "name": "tokenOfOwnerByIndex",
      "outputs": [
        {
          "internalType": "uint256",
          "name": "",
          "type": "uint256"
        }
      ],
      "stateMutability": "view",
      "type": "function",
      "constant": true
    },
    {
      "inputs": [],
      "name": "totalSupply",
      "outputs": [
        {
          "internalType": "uint256",
          "name": "",
          "type": "uint256"
        }
      ],
      "stateMutability": "view",
      "type": "function",
      "constant": true
    },
    {
      "inputs": [
        {
          "internalType": "address",
          "name": "from",
          "type": "address"
        },
        {
          "internalType": "address",
          "name": "to",
          "type": "address"
        },
        {
          "internalType": "uint256",
          "name": "tokenId",
          "type": "uint256"
        }
      ],
      "name": "transferFrom",
      "outputs": [],
      "stateMutability": "nonpayable",
      "type": "function"
    },
    {
      "inputs": [
        {
          "internalType": "address",
          "name": "newOwner",
          "type": "address"
        }
      ],
      "name": "transferOwnership",
      "outputs": [],
      "stateMutability": "nonpayable",
      "type": "function"
    },
    {
      "inputs": [],
      "name": "pause",
      "outputs": [],
      "stateMutability": "nonpayable",
      "type": "function"
    },
    {
      "inputs": [],
      "name": "unpause",
      "outputs": [],
      "stateMutability": "nonpayable",
      "type": "function"
    },
    {
      "inputs": [
        {
          "internalType": "address",
          "name": "to",
          "type": "address"
        },
        {
          "internalType": "string",
          "name": "uri",
          "type": "string"
        }
      ],
      "name": "giveFreeNFT",
      "outputs": [],
      "stateMutability": "payable",
      "type": "function",
      "payable": true
    },
    {
      "inputs": [],
      "name": "TokenId",
      "outputs": [
        {
          "internalType": "uint256",
          "name": "",
          "type": "uint256"
        }
      ],
      "stateMutability": "view",
      "type": "function",
      "constant": true
    },
    {
      "inputs": [
        {
          "internalType": "address",
          "name": "to",
          "type": "address"
        },
        {
          "internalType": "string",
          "name": "uri",
          "type": "string"
        }
      ],
      "name": "giftFreeNFT",
      "outputs": [],
      "stateMutability": "nonpayable",
      "type": "function"
    },
    {
      "inputs": [
        {
          "internalType": "address",
          "name": "to",
          "type": "address"
        },
        {
          "internalType": "string",
          "name": "uri",
          "type": "string"
        }
      ],
      "name": "safeMint",
      "outputs": [],
      "stateMutability": "payable",
      "type": "function",
      "payable": true
    },
    {
      "inputs": [
        {
          "internalType": "address",
          "name": "to",
          "type": "address"
        }
      ],
      "name": "CheckAddress",
      "outputs": [
        {
          "internalType": "string",
          "name": "",
          "type": "string"
        }
      ],
      "stateMutability": "view",
      "type": "function",
      "constant": true
    },
    {
      "inputs": [
        {
          "internalType": "uint256",
          "name": "tokenId",
          "type": "uint256"
        }
      ],
      "name": "tokenURI",
      "outputs": [
        {
          "internalType": "string",
          "name": "",
          "type": "string"
        }
      ],
      "stateMutability": "view",
      "type": "function",
      "constant": true
    },
    {
      "inputs": [
        {
          "internalType": "bytes4",
          "name": "interfaceId",
          "type": "bytes4"
        }
      ],
      "name": "supportsInterface",
      "outputs": [
        {
          "internalType": "bool",
          "name": "",
          "type": "bool"
        }
      ],
      "stateMutability": "view",
      "type": "function",
      "constant": true
    },
    {
      "inputs": [],
      "name": "getBalance",
      "outputs": [
        {
          "internalType": "uint256",
          "name": "",
          "type": "uint256"
        }
      ],
      "stateMutability": "view",
      "type": "function",
      "constant": true
    },
    {
      "inputs": [],
      "name": "withdrawMoney",
      "outputs": [],
      "stateMutability": "nonpayable",
      "type": "function"
    }
  ],
  "bytecode": "0x6080604052662386f26fc10000600c553480156200001c57600080fd5b506040518060400160405280600b81526020017f526f636b6574546f6b656e0000000000000000000000000000000000000000008152506040518060400160405280600681526020017f526f636b6574000000000000000000000000000000000000000000000000000081525081600090816200009a91906200086f565b508060019081620000ac91906200086f565b5050506000600b60006101000a81548160ff021916908315150217905550620000ea620000de6200052760201b60201c565b6200052f60201b60201c565b6001600e60007392a22470b1ec3de435da89e9f0b7183ceb2f371473ffffffffffffffffffffffffffffffffffffffff1673ffffffffffffffffffffffffffffffffffffffff16815260200190815260200160002060006101000a81548160ff0219169083151502179055506001600e6000724660331dd96bfe95ad4d32bf5ef7845a0bc68973ffffffffffffffffffffffffffffffffffffffff1673ffffffffffffffffffffffffffffffffffffffff16815260200190815260200160002060006101000a81548160ff0219169083151502179055506001600e600073e578a5896931207aeb909ba12efc92b88422950a73ffffffffffffffffffffffffffffffffffffffff1673ffffffffffffffffffffffffffffffffffffffff16815260200190815260200160002060006101000a81548160ff0219169083151502179055506001600e6000734221ab4a5a1172ff48bb385d38fba3345342795773ffffffffffffffffffffffffffffffffffffffff1673ffffffffffffffffffffffffffffffffffffffff16815260200190815260200160002060006101000a81548160ff0219169083151502179055506001600e6000734eea12a0b97af76fabdc91b76b1960173dc15e8973ffffffffffffffffffffffffffffffffffffffff1673ffffffffffffffffffffffffffffffffffffffff16815260200190815260200160002060006101000a81548160ff0219169083151502179055506001600e6000736c9e61363f48feac41f9a2469e54994ce745e27473ffffffffffffffffffffffffffffffffffffffff1673ffffffffffffffffffffffffffffffffffffffff16815260200190815260200160002060006101000a81548160ff0219169083151502179055506001600e600073df6efd03c762374c1a840558dd9d3554b4fa365873ffffffffffffffffffffffffffffffffffffffff1673ffffffffffffffffffffffffffffffffffffffff16815260200190815260200160002060006101000a81548160ff0219169083151502179055506001600e600073326a276b46baad8d1019fed693b02ed0ad82fa0173ffffffffffffffffffffffffffffffffffffffff1673ffffffffffffffffffffffffffffffffffffffff16815260200190815260200160002060006101000a81548160ff0219169083151502179055506001600e60007378adae76db2fcc462fe4ad58eb2ed87a1bf05f9f73ffffffffffffffffffffffffffffffffffffffff1673ffffffffffffffffffffffffffffffffffffffff16815260200190815260200160002060006101000a81548160ff0219169083151502179055506001600e60007371c52f19d1cd0bc0a92663ab211e20a7a31ad5bc73ffffffffffffffffffffffffffffffffffffffff1673ffffffffffffffffffffffffffffffffffffffff16815260200190815260200160002060006101000a81548160ff02191690831515021790555062000956565b600033905090565b6000600b60019054906101000a900473ffffffffffffffffffffffffffffffffffffffff16905081600b60016101000a81548173ffffffffffffffffffffffffffffffffffffffff021916908373ffffffffffffffffffffffffffffffffffffffff1602179055508173ffffffffffffffffffffffffffffffffffffffff168173ffffffffffffffffffffffffffffffffffffffff167f8be0079c531659141344cd1fd0a4f28419497f9722a3daafe3b4186f6b6457e060405160405180910390a35050565b600081519050919050565b7f4e487b7100000000000000000000000000000000000000000000000000000000600052604160045260246000fd5b7f4e487b7100000000000000000000000000000000000000000000000000000000600052602260045260246000fd5b600060028204905060018216806200067757607f821691505b6020821081036200068d576200068c6200062f565b5b50919050565b60008190508160005260206000209050919050565b60006020601f8301049050919050565b600082821b905092915050565b600060088302620006f77fffffffffffffffffffffffffffffffffffffffffffffffffffffffffffffffff82620006b8565b620007038683620006b8565b95508019841693508086168417925050509392505050565b6000819050919050565b6000819050919050565b6000620007506200074a62000744846200071b565b62000725565b6200071b565b9050919050565b6000819050919050565b6200076c836200072f565b620007846200077b8262000757565b848454620006c5565b825550505050565b600090565b6200079b6200078c565b620007a881848462000761565b505050565b5b81811015620007d057620007c460008262000791565b600181019050620007ae565b5050565b601f8211156200081f57620007e98162000693565b620007f484620006a8565b8101602085101562000804578190505b6200081c6200081385620006a8565b830182620007ad565b50505b505050565b600082821c905092915050565b6000620008446000198460080262000824565b1980831691505092915050565b60006200085f838362000831565b9150826002028217905092915050565b6200087a82620005f5565b67ffffffffffffffff81111562000896576200089562000600565b5b620008a282546200065e565b620008af828285620007d4565b600060209050601f831160018114620008e75760008415620008d2578287015190505b620008de858262000851565b8655506200094e565b601f198416620008f78662000693565b60005b828110156200092157848901518255600182019150602085019450602081019050620008fa565b868310156200094157848901516200093d601f89168262000831565b8355505b6001600288020188555050505b505050505050565b61425480620009666000396000f3fe6080604052600436106101e35760003560e01c8063715018a611610102578063ac44600211610095578063cfd1647111610064578063cfd16471146106d1578063d204c45e1461070e578063e985e9c51461072a578063f2fde38b14610767576101e3565b8063ac4460021461062b578063b03d994814610642578063b88d4fde1461066b578063c87b56dd14610694576101e3565b80639ffb8b49116100d15780639ffb8b491461055d578063a22cb46514610588578063a4beda63146105b1578063a641d97f146105ee576101e3565b8063715018a6146104d95780638456cb59146104f05780638da5cb5b1461050757806395d89b4114610532576101e3565b80633f4ba83a1161017a5780635c975abb116101495780635c975abb146104185780636352211e1461044357806370a082311461048057806370c58043146104bd576101e3565b80633f4ba83a1461037257806342842e0e1461038957806342966c68146103b25780634f6ccce7146103db576101e3565b806312065fe0116101b657806312065fe0146102b657806318160ddd146102e157806323b872dd1461030c5780632f745c5914610335576101e3565b806301ffc9a7146101e857806306fdde0314610225578063081812fc14610250578063095ea7b31461028d575b600080fd5b3480156101f457600080fd5b5061020f600480360381019061020a9190612b42565b610790565b60405161021c9190612b8a565b60405180910390f35b34801561023157600080fd5b5061023a6107a2565b6040516102479190612c35565b60405180910390f35b34801561025c57600080fd5b5061027760048036038101906102729190612c8d565b610834565b6040516102849190612cfb565b60405180910390f35b34801561029957600080fd5b506102b460048036038101906102af9190612d42565b61087a565b005b3480156102c257600080fd5b506102cb610991565b6040516102d89190612d91565b60405180910390f35b3480156102ed57600080fd5b506102f6610999565b6040516103039190612d91565b60405180910390f35b34801561031857600080fd5b50610333600480360381019061032e9190612dac565b6109a6565b005b34801561034157600080fd5b5061035c60048036038101906103579190612d42565b610a06565b6040516103699190612d91565b60405180910390f35b34801561037e57600080fd5b50610387610aab565b005b34801561039557600080fd5b506103b060048036038101906103ab9190612dac565b610abd565b005b3480156103be57600080fd5b506103d960048036038101906103d49190612c8d565b610add565b005b3480156103e757600080fd5b5061040260048036038101906103fd9190612c8d565b610b39565b60405161040f9190612d91565b60405180910390f35b34801561042457600080fd5b5061042d610baa565b60405161043a9190612b8a565b60405180910390f35b34801561044f57600080fd5b5061046a60048036038101906104659190612c8d565b610bc1565b6040516104779190612cfb565b60405180910390f35b34801561048c57600080fd5b506104a760048036038101906104a29190612dff565b610c72565b6040516104b49190612d91565b60405180910390f35b6104d760048036038101906104d29190612f61565b610d29565b005b3480156104e557600080fd5b506104ee610d5a565b005b3480156104fc57600080fd5b50610505610d6e565b005b34801561051357600080fd5b5061051c610d80565b6040516105299190612cfb565b60405180910390f35b34801561053e57600080fd5b50610547610daa565b6040516105549190612c35565b60405180910390f35b34801561056957600080fd5b50610572610e3c565b60405161057f9190612d91565b60405180910390f35b34801561059457600080fd5b506105af60048036038101906105aa9190612fe9565b610e52565b005b3480156105bd57600080fd5b506105d860048036038101906105d39190612dff565b610e68565b6040516105e59190612d91565b60405180910390f35b3480156105fa57600080fd5b5061061560048036038101906106109190612dff565b610e80565b6040516106229190612b8a565b60405180910390f35b34801561063757600080fd5b50610640610ea0565b005b34801561064e57600080fd5b5061066960048036038101906106649190612f61565b610efe565b005b34801561067757600080fd5b50610692600480360381019061068d91906130ca565b61100b565b005b3480156106a057600080fd5b506106bb60048036038101906106b69190612c8d565b61106d565b6040516106c89190612c35565b60405180910390f35b3480156106dd57600080fd5b506106f860048036038101906106f39190612dff565b61107f565b6040516107059190612c35565b60405180910390f35b61072860048036038101906107239190612f61565b61111a565b005b34801561073657600080fd5b50610751600480360381019061074c919061314d565b611190565b60405161075e9190612b8a565b60405180910390f35b34801561077357600080fd5b5061078e60048036038101906107899190612dff565b611224565b005b600061079b826112a7565b9050919050565b6060600080546107b1906131bc565b80601f01602080910402602001604051908101604052809291908181526020018280546107dd906131bc565b801561082a5780601f106107ff5761010080835404028352916020019161082a565b820191906000526020600020905b81548152906001019060200180831161080d57829003601f168201915b5050505050905090565b600061083f82611321565b6004600083815260200190815260200160002060009054906101000a900473ffffffffffffffffffffffffffffffffffffffff169050919050565b600061088582610bc1565b90508073ffffffffffffffffffffffffffffffffffffffff168373ffffffffffffffffffffffffffffffffffffffff16036108f5576040517f08c379a00000000000000000000000000000000000000000000000000000000081526004016108ec9061325f565b60405180910390fd5b8073ffffffffffffffffffffffffffffffffffffffff1661091461136c565b73ffffffffffffffffffffffffffffffffffffffff16148061094357506109428161093d61136c565b611190565b5b610982576040517f08c379a0000000000000000000000000000000000000000000000000000000008152600401610979906132f1565b60405180910390fd5b61098c8383611374565b505050565b600047905090565b6000600880549050905090565b6109b76109b161136c565b8261142d565b6109f6576040517f08c379a00000000000000000000000000000000000000000000000000000000081526004016109ed90613383565b60405180910390fd5b610a018383836114c2565b505050565b6000610a1183610c72565b8210610a52576040517f08c379a0000000000000000000000000000000000000000000000000000000008152600401610a4990613415565b60405180910390fd5b600660008473ffffffffffffffffffffffffffffffffffffffff1673ffffffffffffffffffffffffffffffffffffffff168152602001908152602001600020600083815260200190815260200160002054905092915050565b610ab3611728565b610abb6117a6565b565b610ad88383836040518060200160405280600081525061100b565b505050565b610aee610ae861136c565b8261142d565b610b2d576040517f08c379a0000000000000000000000000000000000000000000000000000000008152600401610b2490613383565b60405180910390fd5b610b3681611809565b50565b6000610b43610999565b8210610b84576040517f08c379a0000000000000000000000000000000000000000000000000000000008152600401610b7b906134a7565b60405180910390fd5b60088281548110610b9857610b976134c7565b5b90600052602060002001549050919050565b6000600b60009054906101000a900460ff16905090565b6000806002600084815260200190815260200160002060009054906101000a900473ffffffffffffffffffffffffffffffffffffffff169050600073ffffffffffffffffffffffffffffffffffffffff168173ffffffffffffffffffffffffffffffffffffffff1603610c69576040517f08c379a0000000000000000000000000000000000000000000000000000000008152600401610c6090613542565b60405180910390fd5b80915050919050565b60008073ffffffffffffffffffffffffffffffffffffffff168273ffffffffffffffffffffffffffffffffffffffff1603610ce2576040517f08c379a0000000000000000000000000000000000000000000000000000000008152600401610cd9906135d4565b60405180910390fd5b600360008373ffffffffffffffffffffffffffffffffffffffff1673ffffffffffffffffffffffffffffffffffffffff168152602001908152602001600020549050919050565b6000610d35600d611815565b9050610d41600d611823565b610d4b8382611839565b610d558183611857565b505050565b610d62611728565b610d6c60006118c4565b565b610d76611728565b610d7e61198a565b565b6000600b60019054906101000a900473ffffffffffffffffffffffffffffffffffffffff16905090565b606060018054610db9906131bc565b80601f0160208091040260200160405190810160405280929190818152602001828054610de5906131bc565b8015610e325780601f10610e0757610100808354040283529160200191610e32565b820191906000526020600020905b815481529060010190602001808311610e1557829003601f168201915b5050505050905090565b600080610e49600d611815565b90508091505090565b610e64610e5d61136c565b83836119ed565b5050565b600f6020528060005260406000206000915090505481565b600e6020528060005260406000206000915054906101000a900460ff1681565b610ea8611728565b60003390508073ffffffffffffffffffffffffffffffffffffffff166108fc610ecf610991565b9081150290604051600060405180830381858888f19350505050158015610efa573d6000803e3d6000fd5b5050565b600f60003373ffffffffffffffffffffffffffffffffffffffff1673ffffffffffffffffffffffffffffffffffffffff168152602001908152602001600020544211610f7f576040517f08c379a0000000000000000000000000000000000000000000000000000000008152600401610f7690613666565b60405180910390fd5b6000610f8b600d611815565b9050610f97600d611823565b610fa18382611839565b610fab8183611857565b6b1bead72a838453f9bffeae8042610fc391906136b5565b600f60003373ffffffffffffffffffffffffffffffffffffffff1673ffffffffffffffffffffffffffffffffffffffff16815260200190815260200160002081905550505050565b61101c61101661136c565b8361142d565b61105b576040517f08c379a000000000000000000000000000000000000000000000000000000000815260040161105290613383565b60405180910390fd5b61106784848484611b59565b50505050565b606061107882611bb5565b9050919050565b606060011515600e60008473ffffffffffffffffffffffffffffffffffffffff1673ffffffffffffffffffffffffffffffffffffffff16815260200190815260200160002060009054906101000a900460ff161515036110f9576040518060600160405280602681526020016141f9602691399050611115565b6040518060800160405280604481526020016141b56044913990505b919050565b600c5434101561115f576040517f08c379a000000000000000000000000000000000000000000000000000000000815260040161115690613735565b60405180910390fd5b600061116b600d611815565b9050611177600d611823565b6111818382611839565b61118b8183611857565b505050565b6000600560008473ffffffffffffffffffffffffffffffffffffffff1673ffffffffffffffffffffffffffffffffffffffff16815260200190815260200160002060008373ffffffffffffffffffffffffffffffffffffffff1673ffffffffffffffffffffffffffffffffffffffff16815260200190815260200160002060009054906101000a900460ff16905092915050565b61122c611728565b600073ffffffffffffffffffffffffffffffffffffffff168173ffffffffffffffffffffffffffffffffffffffff160361129b576040517f08c379a0000000000000000000000000000000000000000000000000000000008152600401611292906137c7565b60405180910390fd5b6112a4816118c4565b50565b60007f780e9d63000000000000000000000000000000000000000000000000000000007bffffffffffffffffffffffffffffffffffffffffffffffffffffffff1916827bffffffffffffffffffffffffffffffffffffffffffffffffffffffff1916148061131a575061131982611cc7565b5b9050919050565b61132a81611da9565b611369576040517f08c379a000000000000000000000000000000000000000000000000000000000815260040161136090613542565b60405180910390fd5b50565b600033905090565b816004600083815260200190815260200160002060006101000a81548173ffffffffffffffffffffffffffffffffffffffff021916908373ffffffffffffffffffffffffffffffffffffffff160217905550808273ffffffffffffffffffffffffffffffffffffffff166113e783610bc1565b73ffffffffffffffffffffffffffffffffffffffff167f8c5be1e5ebec7d5bd14f71427d1e84f3dd0314c0f7b2291e5b200ac8c7c3b92560405160405180910390a45050565b60008061143983610bc1565b90508073ffffffffffffffffffffffffffffffffffffffff168473ffffffffffffffffffffffffffffffffffffffff16148061147b575061147a8185611190565b5b806114b957508373ffffffffffffffffffffffffffffffffffffffff166114a184610834565b73ffffffffffffffffffffffffffffffffffffffff16145b91505092915050565b8273ffffffffffffffffffffffffffffffffffffffff166114e282610bc1565b73ffffffffffffffffffffffffffffffffffffffff1614611538576040517f08c379a000000000000000000000000000000000000000000000000000000000815260040161152f90613859565b60405180910390fd5b600073ffffffffffffffffffffffffffffffffffffffff168273ffffffffffffffffffffffffffffffffffffffff16036115a7576040517f08c379a000000000000000000000000000000000000000000000000000000000815260040161159e906138eb565b60405180910390fd5b6115b2838383611e15565b6115bd600082611374565b6001600360008573ffffffffffffffffffffffffffffffffffffffff1673ffffffffffffffffffffffffffffffffffffffff168152602001908152602001600020600082825461160d919061390b565b925050819055506001600360008473ffffffffffffffffffffffffffffffffffffffff1673ffffffffffffffffffffffffffffffffffffffff168152602001908152602001600020600082825461166491906136b5565b92505081905550816002600083815260200190815260200160002060006101000a81548173ffffffffffffffffffffffffffffffffffffffff021916908373ffffffffffffffffffffffffffffffffffffffff160217905550808273ffffffffffffffffffffffffffffffffffffffff168473ffffffffffffffffffffffffffffffffffffffff167fddf252ad1be2c89b69c2b068fc378daa952ba7f163c4a11628f55a4df523b3ef60405160405180910390a4611723838383611e2d565b505050565b61173061136c565b73ffffffffffffffffffffffffffffffffffffffff1661174e610d80565b73ffffffffffffffffffffffffffffffffffffffff16146117a4576040517f08c379a000000000000000000000000000000000000000000000000000000000815260040161179b9061398b565b60405180910390fd5b565b6117ae611e32565b6000600b60006101000a81548160ff0219169083151502179055507f5db9ee0a495bf2e6ff9c91a7834c1ba4fdd244a5e8aa4e537bd38aeae4b073aa6117f261136c565b6040516117ff9190612cfb565b60405180910390a1565b61181281611e7b565b50565b600081600001549050919050565b6001816000016000828254019250508190555050565b611853828260405180602001604052806000815250611ece565b5050565b61186082611da9565b61189f576040517f08c379a000000000000000000000000000000000000000000000000000000000815260040161189690613a1d565b60405180910390fd5b80600a600084815260200190815260200160002090816118bf9190613be9565b505050565b6000600b60019054906101000a900473ffffffffffffffffffffffffffffffffffffffff16905081600b60016101000a81548173ffffffffffffffffffffffffffffffffffffffff021916908373ffffffffffffffffffffffffffffffffffffffff1602179055508173ffffffffffffffffffffffffffffffffffffffff168173ffffffffffffffffffffffffffffffffffffffff167f8be0079c531659141344cd1fd0a4f28419497f9722a3daafe3b4186f6b6457e060405160405180910390a35050565b611992611f29565b6001600b60006101000a81548160ff0219169083151502179055507f62e78cea01bee320cd4e420270b5ea74000d11b0c9f74754ebdbfc544b05a2586119d661136c565b6040516119e39190612cfb565b60405180910390a1565b8173ffffffffffffffffffffffffffffffffffffffff168373ffffffffffffffffffffffffffffffffffffffff1603611a5b576040517f08c379a0000000000000000000000000000000000000000000000000000000008152600401611a5290613d07565b60405180910390fd5b80600560008573ffffffffffffffffffffffffffffffffffffffff1673ffffffffffffffffffffffffffffffffffffffff16815260200190815260200160002060008473ffffffffffffffffffffffffffffffffffffffff1673ffffffffffffffffffffffffffffffffffffffff16815260200190815260200160002060006101000a81548160ff0219169083151502179055508173ffffffffffffffffffffffffffffffffffffffff168373ffffffffffffffffffffffffffffffffffffffff167f17307eab39ab6107e8899845ad3d59bd9653f200f220920489ca2b5937696c3183604051611b4c9190612b8a565b60405180910390a3505050565b611b648484846114c2565b611b7084848484611f73565b611baf576040517f08c379a0000000000000000000000000000000000000000000000000000000008152600401611ba690613d99565b60405180910390fd5b50505050565b6060611bc082611321565b6000600a60008481526020019081526020016000208054611be0906131bc565b80601f0160208091040260200160405190810160405280929190818152602001828054611c0c906131bc565b8015611c595780601f10611c2e57610100808354040283529160200191611c59565b820191906000526020600020905b815481529060010190602001808311611c3c57829003601f168201915b505050505090506000611c6a6120fa565b90506000815103611c7f578192505050611cc2565b600082511115611cb4578082604051602001611c9c929190613df5565b60405160208183030381529060405292505050611cc2565b611cbd84612111565b925050505b919050565b60007f80ac58cd000000000000000000000000000000000000000000000000000000007bffffffffffffffffffffffffffffffffffffffffffffffffffffffff1916827bffffffffffffffffffffffffffffffffffffffffffffffffffffffff19161480611d9257507f5b5e139f000000000000000000000000000000000000000000000000000000007bffffffffffffffffffffffffffffffffffffffffffffffffffffffff1916827bffffffffffffffffffffffffffffffffffffffffffffffffffffffff1916145b80611da25750611da182612179565b5b9050919050565b60008073ffffffffffffffffffffffffffffffffffffffff166002600084815260200190815260200160002060009054906101000a900473ffffffffffffffffffffffffffffffffffffffff1673ffffffffffffffffffffffffffffffffffffffff1614159050919050565b611e1d611f29565b611e288383836121e3565b505050565b505050565b611e3a610baa565b611e79576040517f08c379a0000000000000000000000000000000000000000000000000000000008152600401611e7090613e65565b60405180910390fd5b565b611e84816122f5565b6000600a60008381526020019081526020016000208054611ea4906131bc565b905014611ecb57600a60008281526020019081526020016000206000611eca9190612a79565b5b50565b611ed88383612412565b611ee56000848484611f73565b611f24576040517f08c379a0000000000000000000000000000000000000000000000000000000008152600401611f1b90613d99565b60405180910390fd5b505050565b611f31610baa565b15611f71576040517f08c379a0000000000000000000000000000000000000000000000000000000008152600401611f6890613ed1565b60405180910390fd5b565b6000611f948473ffffffffffffffffffffffffffffffffffffffff166125eb565b156120ed578373ffffffffffffffffffffffffffffffffffffffff1663150b7a02611fbd61136c565b8786866040518563ffffffff1660e01b8152600401611fdf9493929190613f46565b6020604051808303816000875af192505050801561201b57506040513d601f19601f820116820180604052508101906120189190613fa7565b60015b61209d573d806000811461204b576040519150601f19603f3d011682016040523d82523d6000602084013e612050565b606091505b506000815103612095576040517f08c379a000000000000000000000000000000000000000000000000000000000815260040161208c90613d99565b60405180910390fd5b805181602001fd5b63150b7a0260e01b7bffffffffffffffffffffffffffffffffffffffffffffffffffffffff1916817bffffffffffffffffffffffffffffffffffffffffffffffffffffffff1916149150506120f2565b600190505b949350505050565b606060405180602001604052806000815250905090565b606061211c82611321565b60006121266120fa565b905060008151116121465760405180602001604052806000815250612171565b806121508461260e565b604051602001612161929190613df5565b6040516020818303038152906040525b915050919050565b60007f01ffc9a7000000000000000000000000000000000000000000000000000000007bffffffffffffffffffffffffffffffffffffffffffffffffffffffff1916827bffffffffffffffffffffffffffffffffffffffffffffffffffffffff1916149050919050565b6121ee83838361276e565b600073ffffffffffffffffffffffffffffffffffffffff168373ffffffffffffffffffffffffffffffffffffffff16036122305761222b81612773565b61226f565b8173ffffffffffffffffffffffffffffffffffffffff168373ffffffffffffffffffffffffffffffffffffffff161461226e5761226d83826127bc565b5b5b600073ffffffffffffffffffffffffffffffffffffffff168273ffffffffffffffffffffffffffffffffffffffff16036122b1576122ac81612929565b6122f0565b8273ffffffffffffffffffffffffffffffffffffffff168273ffffffffffffffffffffffffffffffffffffffff16146122ef576122ee82826129fa565b5b5b505050565b600061230082610bc1565b905061230e81600084611e15565b612319600083611374565b6001600360008373ffffffffffffffffffffffffffffffffffffffff1673ffffffffffffffffffffffffffffffffffffffff1681526020019081526020016000206000828254612369919061390b565b925050819055506002600083815260200190815260200160002060006101000a81549073ffffffffffffffffffffffffffffffffffffffff021916905581600073ffffffffffffffffffffffffffffffffffffffff168273ffffffffffffffffffffffffffffffffffffffff167fddf252ad1be2c89b69c2b068fc378daa952ba7f163c4a11628f55a4df523b3ef60405160405180910390a461240e81600084611e2d565b5050565b600073ffffffffffffffffffffffffffffffffffffffff168273ffffffffffffffffffffffffffffffffffffffff1603612481576040517f08c379a000000000000000000000000000000000000000000000000000000000815260040161247890614020565b60405180910390fd5b61248a81611da9565b156124ca576040517f08c379a00000000000000000000000000000000000000000000000000000000081526004016124c19061408c565b60405180910390fd5b6124d660008383611e15565b6001600360008473ffffffffffffffffffffffffffffffffffffffff1673ffffffffffffffffffffffffffffffffffffffff168152602001908152602001600020600082825461252691906136b5565b92505081905550816002600083815260200190815260200160002060006101000a81548173ffffffffffffffffffffffffffffffffffffffff021916908373ffffffffffffffffffffffffffffffffffffffff160217905550808273ffffffffffffffffffffffffffffffffffffffff16600073ffffffffffffffffffffffffffffffffffffffff167fddf252ad1be2c89b69c2b068fc378daa952ba7f163c4a11628f55a4df523b3ef60405160405180910390a46125e760008383611e2d565b5050565b6000808273ffffffffffffffffffffffffffffffffffffffff163b119050919050565b606060008203612655576040518060400160405280600181526020017f30000000000000000000000000000000000000000000000000000000000000008152509050612769565b600082905060005b60008214612687578080612670906140ac565b915050600a826126809190614123565b915061265d565b60008167ffffffffffffffff8111156126a3576126a2612e36565b5b6040519080825280601f01601f1916602001820160405280156126d55781602001600182028036833780820191505090505b5090505b60008514612762576001826126ee919061390b565b9150600a856126fd9190614154565b603061270991906136b5565b60f81b81838151811061271f5761271e6134c7565b5b60200101907effffffffffffffffffffffffffffffffffffffffffffffffffffffffffffff1916908160001a905350600a8561275b9190614123565b94506126d9565b8093505050505b919050565b505050565b6008805490506009600083815260200190815260200160002081905550600881908060018154018082558091505060019003906000526020600020016000909190919091505550565b600060016127c984610c72565b6127d3919061390b565b90506000600760008481526020019081526020016000205490508181146128b8576000600660008673ffffffffffffffffffffffffffffffffffffffff1673ffffffffffffffffffffffffffffffffffffffff168152602001908152602001600020600084815260200190815260200160002054905080600660008773ffffffffffffffffffffffffffffffffffffffff1673ffffffffffffffffffffffffffffffffffffffff168152602001908152602001600020600084815260200190815260200160002081905550816007600083815260200190815260200160002081905550505b6007600084815260200190815260200160002060009055600660008573ffffffffffffffffffffffffffffffffffffffff1673ffffffffffffffffffffffffffffffffffffffff16815260200190815260200160002060008381526020019081526020016000206000905550505050565b6000600160088054905061293d919061390b565b905060006009600084815260200190815260200160002054905060006008838154811061296d5761296c6134c7565b5b90600052602060002001549050806008838154811061298f5761298e6134c7565b5b9060005260206000200181905550816009600083815260200190815260200160002081905550600960008581526020019081526020016000206000905560088054806129de576129dd614185565b5b6001900381819060005260206000200160009055905550505050565b6000612a0583610c72565b905081600660008573ffffffffffffffffffffffffffffffffffffffff1673ffffffffffffffffffffffffffffffffffffffff168152602001908152602001600020600083815260200190815260200160002081905550806007600084815260200190815260200160002081905550505050565b508054612a85906131bc565b6000825580601f10612a975750612ab6565b601f016020900490600052602060002090810190612ab59190612ab9565b5b50565b5b80821115612ad2576000816000905550600101612aba565b5090565b6000604051905090565b600080fd5b600080fd5b60007fffffffff0000000000000000000000000000000000000000000000000000000082169050919050565b612b1f81612aea565b8114612b2a57600080fd5b50565b600081359050612b3c81612b16565b92915050565b600060208284031215612b5857612b57612ae0565b5b6000612b6684828501612b2d565b91505092915050565b60008115159050919050565b612b8481612b6f565b82525050565b6000602082019050612b9f6000830184612b7b565b92915050565b600081519050919050565b600082825260208201905092915050565b60005b83811015612bdf578082015181840152602081019050612bc4565b60008484015250505050565b6000601f19601f8301169050919050565b6000612c0782612ba5565b612c118185612bb0565b9350612c21818560208601612bc1565b612c2a81612beb565b840191505092915050565b60006020820190508181036000830152612c4f8184612bfc565b905092915050565b6000819050919050565b612c6a81612c57565b8114612c7557600080fd5b50565b600081359050612c8781612c61565b92915050565b600060208284031215612ca357612ca2612ae0565b5b6000612cb184828501612c78565b91505092915050565b600073ffffffffffffffffffffffffffffffffffffffff82169050919050565b6000612ce582612cba565b9050919050565b612cf581612cda565b82525050565b6000602082019050612d106000830184612cec565b92915050565b612d1f81612cda565b8114612d2a57600080fd5b50565b600081359050612d3c81612d16565b92915050565b60008060408385031215612d5957612d58612ae0565b5b6000612d6785828601612d2d565b9250506020612d7885828601612c78565b9150509250929050565b612d8b81612c57565b82525050565b6000602082019050612da66000830184612d82565b92915050565b600080600060608486031215612dc557612dc4612ae0565b5b6000612dd386828701612d2d565b9350506020612de486828701612d2d565b9250506040612df586828701612c78565b9150509250925092565b600060208284031215612e1557612e14612ae0565b5b6000612e2384828501612d2d565b91505092915050565b600080fd5b600080fd5b7f4e487b7100000000000000000000000000000000000000000000000000000000600052604160045260246000fd5b612e6e82612beb565b810181811067ffffffffffffffff82111715612e8d57612e8c612e36565b5b80604052505050565b6000612ea0612ad6565b9050612eac8282612e65565b919050565b600067ffffffffffffffff821115612ecc57612ecb612e36565b5b612ed582612beb565b9050602081019050919050565b82818337600083830152505050565b6000612f04612eff84612eb1565b612e96565b905082815260208101848484011115612f2057612f1f612e31565b5b612f2b848285612ee2565b509392505050565b600082601f830112612f4857612f47612e2c565b5b8135612f58848260208601612ef1565b91505092915050565b60008060408385031215612f7857612f77612ae0565b5b6000612f8685828601612d2d565b925050602083013567ffffffffffffffff811115612fa757612fa6612ae5565b5b612fb385828601612f33565b9150509250929050565b612fc681612b6f565b8114612fd157600080fd5b50565b600081359050612fe381612fbd565b92915050565b6000806040838503121561300057612fff612ae0565b5b600061300e85828601612d2d565b925050602061301f85828601612fd4565b9150509250929050565b600067ffffffffffffffff82111561304457613043612e36565b5b61304d82612beb565b9050602081019050919050565b600061306d61306884613029565b612e96565b90508281526020810184848401111561308957613088612e31565b5b613094848285612ee2565b509392505050565b600082601f8301126130b1576130b0612e2c565b5b81356130c184826020860161305a565b91505092915050565b600080600080608085870312156130e4576130e3612ae0565b5b60006130f287828801612d2d565b945050602061310387828801612d2d565b935050604061311487828801612c78565b925050606085013567ffffffffffffffff81111561313557613134612ae5565b5b6131418782880161309c565b91505092959194509250565b6000806040838503121561316457613163612ae0565b5b600061317285828601612d2d565b925050602061318385828601612d2d565b9150509250929050565b7f4e487b7100000000000000000000000000000000000000000000000000000000600052602260045260246000fd5b600060028204905060018216806131d457607f821691505b6020821081036131e7576131e661318d565b5b50919050565b7f4552433732313a20617070726f76616c20746f2063757272656e74206f776e6560008201527f7200000000000000000000000000000000000000000000000000000000000000602082015250565b6000613249602183612bb0565b9150613254826131ed565b604082019050919050565b600060208201905081810360008301526132788161323c565b9050919050565b7f4552433732313a20617070726f76652063616c6c6572206973206e6f7420746f60008201527f6b656e206f776e6572206e6f7220617070726f76656420666f7220616c6c0000602082015250565b60006132db603e83612bb0565b91506132e68261327f565b604082019050919050565b6000602082019050818103600083015261330a816132ce565b9050919050565b7f4552433732313a2063616c6c6572206973206e6f7420746f6b656e206f776e6560008201527f72206e6f7220617070726f766564000000000000000000000000000000000000602082015250565b600061336d602e83612bb0565b915061337882613311565b604082019050919050565b6000602082019050818103600083015261339c81613360565b9050919050565b7f455243373231456e756d657261626c653a206f776e657220696e646578206f7560008201527f74206f6620626f756e6473000000000000000000000000000000000000000000602082015250565b60006133ff602b83612bb0565b915061340a826133a3565b604082019050919050565b6000602082019050818103600083015261342e816133f2565b9050919050565b7f455243373231456e756d657261626c653a20676c6f62616c20696e646578206f60008201527f7574206f6620626f756e64730000000000000000000000000000000000000000602082015250565b6000613491602c83612bb0565b915061349c82613435565b604082019050919050565b600060208201905081810360008301526134c081613484565b9050919050565b7f4e487b7100000000000000000000000000000000000000000000000000000000600052603260045260246000fd5b7f4552433732313a20696e76616c696420746f6b656e2049440000000000000000600082015250565b600061352c601883612bb0565b9150613537826134f6565b602082019050919050565b6000602082019050818103600083015261355b8161351f565b9050919050565b7f4552433732313a2061646472657373207a65726f206973206e6f74206120766160008201527f6c6964206f776e65720000000000000000000000000000000000000000000000602082015250565b60006135be602983612bb0565b91506135c982613562565b604082019050919050565b600060208201905081810360008301526135ed816135b1565b9050919050565b7f596f75206861766520616c726561647920636c61696d656420796f757220667260008201527f6565204e46540000000000000000000000000000000000000000000000000000602082015250565b6000613650602683612bb0565b915061365b826135f4565b604082019050919050565b6000602082019050818103600083015261367f81613643565b9050919050565b7f4e487b7100000000000000000000000000000000000000000000000000000000600052601160045260246000fd5b60006136c082612c57565b91506136cb83612c57565b92508282019050808211156136e3576136e2613686565b5b92915050565b7f4e6f7420656e6f75676820455448207761732073656e74000000000000000000600082015250565b600061371f601783612bb0565b915061372a826136e9565b602082019050919050565b6000602082019050818103600083015261374e81613712565b9050919050565b7f4f776e61626c653a206e6577206f776e657220697320746865207a65726f206160008201527f6464726573730000000000000000000000000000000000000000000000000000602082015250565b60006137b1602683612bb0565b91506137bc82613755565b604082019050919050565b600060208201905081810360008301526137e0816137a4565b9050919050565b7f4552433732313a207472616e736665722066726f6d20696e636f72726563742060008201527f6f776e6572000000000000000000000000000000000000000000000000000000602082015250565b6000613843602583612bb0565b915061384e826137e7565b604082019050919050565b6000602082019050818103600083015261387281613836565b9050919050565b7f4552433732313a207472616e7366657220746f20746865207a65726f2061646460008201527f7265737300000000000000000000000000000000000000000000000000000000602082015250565b60006138d5602483612bb0565b91506138e082613879565b604082019050919050565b60006020820190508181036000830152613904816138c8565b9050919050565b600061391682612c57565b915061392183612c57565b925082820390508181111561393957613938613686565b5b92915050565b7f4f776e61626c653a2063616c6c6572206973206e6f7420746865206f776e6572600082015250565b6000613975602083612bb0565b91506139808261393f565b602082019050919050565b600060208201905081810360008301526139a481613968565b9050919050565b7f45524337323155524953746f726167653a2055524920736574206f66206e6f6e60008201527f6578697374656e7420746f6b656e000000000000000000000000000000000000602082015250565b6000613a07602e83612bb0565b9150613a12826139ab565b604082019050919050565b60006020820190508181036000830152613a36816139fa565b9050919050565b60008190508160005260206000209050919050565b60006020601f8301049050919050565b600082821b905092915050565b600060088302613a9f7fffffffffffffffffffffffffffffffffffffffffffffffffffffffffffffffff82613a62565b613aa98683613a62565b95508019841693508086168417925050509392505050565b6000819050919050565b6000613ae6613ae1613adc84612c57565b613ac1565b612c57565b9050919050565b6000819050919050565b613b0083613acb565b613b14613b0c82613aed565b848454613a6f565b825550505050565b600090565b613b29613b1c565b613b34818484613af7565b505050565b5b81811015613b5857613b4d600082613b21565b600181019050613b3a565b5050565b601f821115613b9d57613b6e81613a3d565b613b7784613a52565b81016020851015613b86578190505b613b9a613b9285613a52565b830182613b39565b50505b505050565b600082821c905092915050565b6000613bc060001984600802613ba2565b1980831691505092915050565b6000613bd98383613baf565b9150826002028217905092915050565b613bf282612ba5565b67ffffffffffffffff811115613c0b57613c0a612e36565b5b613c1582546131bc565b613c20828285613b5c565b600060209050601f831160018114613c535760008415613c41578287015190505b613c4b8582613bcd565b865550613cb3565b601f198416613c6186613a3d565b60005b82811015613c8957848901518255600182019150602085019450602081019050613c64565b86831015613ca65784890151613ca2601f891682613baf565b8355505b6001600288020188555050505b505050505050565b7f4552433732313a20617070726f766520746f2063616c6c657200000000000000600082015250565b6000613cf1601983612bb0565b9150613cfc82613cbb565b602082019050919050565b60006020820190508181036000830152613d2081613ce4565b9050919050565b7f4552433732313a207472616e7366657220746f206e6f6e20455243373231526560008201527f63656976657220696d706c656d656e7465720000000000000000000000000000602082015250565b6000613d83603283612bb0565b9150613d8e82613d27565b604082019050919050565b60006020820190508181036000830152613db281613d76565b9050919050565b600081905092915050565b6000613dcf82612ba5565b613dd98185613db9565b9350613de9818560208601612bc1565b80840191505092915050565b6000613e018285613dc4565b9150613e0d8284613dc4565b91508190509392505050565b7f5061757361626c653a206e6f7420706175736564000000000000000000000000600082015250565b6000613e4f601483612bb0565b9150613e5a82613e19565b602082019050919050565b60006020820190508181036000830152613e7e81613e42565b9050919050565b7f5061757361626c653a2070617573656400000000000000000000000000000000600082015250565b6000613ebb601083612bb0565b9150613ec682613e85565b602082019050919050565b60006020820190508181036000830152613eea81613eae565b9050919050565b600081519050919050565b600082825260208201905092915050565b6000613f1882613ef1565b613f228185613efc565b9350613f32818560208601612bc1565b613f3b81612beb565b840191505092915050565b6000608082019050613f5b6000830187612cec565b613f686020830186612cec565b613f756040830185612d82565b8181036060830152613f878184613f0d565b905095945050505050565b600081519050613fa181612b16565b92915050565b600060208284031215613fbd57613fbc612ae0565b5b6000613fcb84828501613f92565b91505092915050565b7f4552433732313a206d696e7420746f20746865207a65726f2061646472657373600082015250565b600061400a602083612bb0565b915061401582613fd4565b602082019050919050565b6000602082019050818103600083015261403981613ffd565b9050919050565b7f4552433732313a20746f6b656e20616c7265616479206d696e74656400000000600082015250565b6000614076601c83612bb0565b915061408182614040565b602082019050919050565b600060208201905081810360008301526140a581614069565b9050919050565b60006140b782612c57565b91507fffffffffffffffffffffffffffffffffffffffffffffffffffffffffffffffff82036140e9576140e8613686565b5b600182019050919050565b7f4e487b7100000000000000000000000000000000000000000000000000000000600052601260045260246000fd5b600061412e82612c57565b915061413983612c57565b925082614149576141486140f4565b5b828204905092915050565b600061415f82612c57565b915061416a83612c57565b92508261417a576141796140f4565b5b828206905092915050565b7f4e487b7100000000000000000000000000000000000000000000000000000000600052603160045260246000fdfe54686973206164647265737320616c6c72656164792068616420612066726565204e4654206f72206e6f2076616c696420616464726573732069732070726f76696465645468697320616464726573732063616e207374696c6c2067657420612066726565204e465421a2646970667358221220e0de68fe2205daf5cf2d40f8a0015d27c27456a40fdc7ee46c1b19f81a70f51b64736f6c63430008100033",
  "immutableReferences": {},
  "source": "// SPDX-License-Identifier: MIT\r\npragma solidity ^0.8.4;\r\n\r\nimport \"@openzeppelin/contracts/token/ERC721/ERC721.sol\";\r\nimport \"@openzeppelin/contracts/token/ERC721/extensions/ERC721Enumerable.sol\";\r\nimport \"@openzeppelin/contracts/token/ERC721/extensions/ERC721URIStorage.sol\";\r\nimport \"@openzeppelin/contracts/security/Pausable.sol\";\r\nimport \"@openzeppelin/contracts/access/Ownable.sol\";\r\nimport \"@openzeppelin/contracts/token/ERC721/extensions/ERC721Burnable.sol\";\r\nimport \"@openzeppelin/contracts/utils/Counters.sol\";\r\n\r\ncontract RocketToken is ERC721, ERC721Enumerable, ERC721URIStorage, Pausable, Ownable, ERC721Burnable {\r\n    using Counters for Counters.Counter;\r\n    uint cost =  0.01 ether; \r\n    Counters.Counter private _tokenIdCounter;\r\n    mapping(address => bool) public freeNFTList;\r\n    mapping(address => uint) public lockTime;\r\n\r\n    constructor() ERC721(\"RocketToken\", \"Rocket\") {            \r\n        freeNFTList[0x92A22470b1eC3DE435Da89E9f0B7183cEB2f3714] = true;\r\n        freeNFTList[0x004660331dd96BfE95Ad4D32bf5EF7845a0Bc689] = true;\r\n        freeNFTList[0xe578a5896931207AEb909Ba12EFc92b88422950a] = true;\r\n        freeNFTList[0x4221ab4A5A1172FF48bB385d38fBa33453427957] = true;\r\n        freeNFTList[0x4eeA12a0B97af76FaBDC91b76B1960173DC15e89] = true;\r\n        freeNFTList[0x6c9e61363F48fEAc41f9a2469E54994Ce745E274] = true;\r\n        freeNFTList[0xDf6EfD03c762374c1a840558dD9d3554B4fa3658] = true;\r\n        freeNFTList[0x326a276b46BAaD8d1019fEd693B02ED0ad82FA01] = true;\r\n        freeNFTList[0x78aDae76DB2FcC462Fe4AD58Eb2ED87a1bF05F9f] = true;\r\n        freeNFTList[0x71c52f19d1cd0bC0a92663ab211E20a7a31Ad5BC] = true;\r\n        }\r\n\r\n    function pause() public onlyOwner {\r\n        _pause();\r\n    }\r\n\r\n    function unpause() public onlyOwner {\r\n        _unpause();\r\n    }\r\n    \r\n        function giveFreeNFT(address to, string memory uri) public payable{\r\n      //  require(freeNFTList[to] == true, \"You allready have your free NFT or your address is not permit to get a free NFT\");\r\n        uint256 tokenId = _tokenIdCounter.current();\r\n        _tokenIdCounter.increment();\r\n        _safeMint(to, tokenId);\r\n        _setTokenURI(tokenId, uri);\r\n        //freeNFTList[to] = false;\r\n    }\r\n\r\n    function TokenId() public view returns(uint){\r\n        uint256 Token = _tokenIdCounter.current();\r\n        return Token;\r\n    }\r\n\r\n    function giftFreeNFT(address to, string memory uri) public{\r\n        require(block.timestamp > lockTime[msg.sender], \"You have already claimed your free NFT\");\r\n        uint256 tokenId = _tokenIdCounter.current();\r\n        _tokenIdCounter.increment();\r\n        _safeMint(to, tokenId);\r\n        _setTokenURI(tokenId, uri);        \r\n        lockTime[msg.sender] = block.timestamp + 99999999999999999999999 days;\r\n    }\r\n\r\n    function safeMint(address to, string memory uri) public payable{\r\n        require(msg.value >= cost, \"Not enough ETH was sent\");\r\n        uint256 tokenId = _tokenIdCounter.current();\r\n        _tokenIdCounter.increment();\r\n        _safeMint(to, tokenId);\r\n        _setTokenURI(tokenId, uri);\r\n    }\r\n\r\n        function CheckAddress(address to) view public returns(string memory) {\r\n            if(freeNFTList[to] == true){\r\n                return \"This address can still get a free NFT!\";\r\n            }else{\r\n                return \"This address allready had a free NFT or no valid address is provided\";\r\n            }\r\n            \r\n    }\r\n\r\n    function _beforeTokenTransfer(address from, address to, uint256 tokenId)\r\n        internal\r\n        whenNotPaused\r\n        override(ERC721, ERC721Enumerable)\r\n    {\r\n        super._beforeTokenTransfer(from, to, tokenId);\r\n    }\r\n\r\n    function _burn(uint256 tokenId) internal override(ERC721, ERC721URIStorage) {\r\n        super._burn(tokenId);\r\n    }\r\n\r\n    function tokenURI(uint256 tokenId)\r\n        public\r\n        view\r\n        override(ERC721, ERC721URIStorage)\r\n        returns (string memory)\r\n    {\r\n        return super.tokenURI(tokenId);\r\n    }\r\n\r\n    function supportsInterface(bytes4 interfaceId)\r\n        public\r\n        view\r\n        override(ERC721, ERC721Enumerable)\r\n        returns (bool)\r\n    {\r\n        return super.supportsInterface(interfaceId);\r\n    }\r\n\r\n    function getBalance() public view returns(uint) {\r\n        return address(this).balance;\r\n    }\r\n\r\n    function withdrawMoney() public onlyOwner{\r\n        address payable to = payable(msg.sender);\r\n        to.transfer(getBalance());\r\n    }\r\n}",
  "sourcePath": "/mnt/c/Users/Francis/documents/Rocket_Elevators_Blockchain/contracts/RocketToken.sol",
  "compiler": {
    "name": "solc",
    "version": "0.8.16+commit.07a7930e.Emscripten.clang"
  },
  "schemaVersion": "3.4.9",
  "updatedAt": "2022-08-26T20:34:01.006Z",
  "networkType": "ethereum",
  "devdoc": {
    "kind": "dev",
    "methods": {
      "approve(address,uint256)": {
        "details": "See {IERC721-approve}."
      },
      "balanceOf(address)": {
        "details": "See {IERC721-balanceOf}."
      },
      "burn(uint256)": {
        "details": "Burns `tokenId`. See {ERC721-_burn}. Requirements: - The caller must own `tokenId` or be an approved operator."
      },
      "getApproved(uint256)": {
        "details": "See {IERC721-getApproved}."
      },
      "isApprovedForAll(address,address)": {
        "details": "See {IERC721-isApprovedForAll}."
      },
      "name()": {
        "details": "See {IERC721Metadata-name}."
      },
      "owner()": {
        "details": "Returns the address of the current owner."
      },
      "ownerOf(uint256)": {
        "details": "See {IERC721-ownerOf}."
      },
      "paused()": {
        "details": "Returns true if the contract is paused, and false otherwise."
      },
      "renounceOwnership()": {
        "details": "Leaves the contract without owner. It will not be possible to call `onlyOwner` functions anymore. Can only be called by the current owner. NOTE: Renouncing ownership will leave the contract without an owner, thereby removing any functionality that is only available to the owner."
      },
      "safeTransferFrom(address,address,uint256)": {
        "details": "See {IERC721-safeTransferFrom}."
      },
      "safeTransferFrom(address,address,uint256,bytes)": {
        "details": "See {IERC721-safeTransferFrom}."
      },
      "setApprovalForAll(address,bool)": {
        "details": "See {IERC721-setApprovalForAll}."
      },
      "symbol()": {
        "details": "See {IERC721Metadata-symbol}."
      },
      "tokenByIndex(uint256)": {
        "details": "See {IERC721Enumerable-tokenByIndex}."
      },
      "tokenOfOwnerByIndex(address,uint256)": {
        "details": "See {IERC721Enumerable-tokenOfOwnerByIndex}."
      },
      "totalSupply()": {
        "details": "See {IERC721Enumerable-totalSupply}."
      },
      "transferFrom(address,address,uint256)": {
        "details": "See {IERC721-transferFrom}."
      },
      "transferOwnership(address)": {
        "details": "Transfers ownership of the contract to a new account (`newOwner`). Can only be called by the current owner."
      }
    },
    "version": 1
  },
  "userdoc": {
    "kind": "user",
    "methods": {},
    "version": 1
  }
}