{
  "contractName": "RocketToken",
  "abi": [
    {
      "inputs": [],
      "stateMutability": "nonpayable",
      "type": "constructor"
    },
    {
      "anonymous": false,
      "inputs": [
        {
          "indexed": true,
          "internalType": "address",
          "name": "owner",
          "type": "address"
        },
        {
          "indexed": true,
          "internalType": "address",
          "name": "approved",
          "type": "address"
        },
        {
          "indexed": true,
          "internalType": "uint256",
          "name": "tokenId",
          "type": "uint256"
        }
      ],
      "name": "Approval",
      "type": "event"
    },
    {
      "anonymous": false,
      "inputs": [
        {
          "indexed": true,
          "internalType": "address",
          "name": "owner",
          "type": "address"
        },
        {
          "indexed": true,
          "internalType": "address",
          "name": "operator",
          "type": "address"
        },
        {
          "indexed": false,
          "internalType": "bool",
          "name": "approved",
          "type": "bool"
        }
      ],
      "name": "ApprovalForAll",
      "type": "event"
    },
    {
      "anonymous": false,
      "inputs": [
        {
          "indexed": true,
          "internalType": "address",
          "name": "previousOwner",
          "type": "address"
        },
        {
          "indexed": true,
          "internalType": "address",
          "name": "newOwner",
          "type": "address"
        }
      ],
      "name": "OwnershipTransferred",
      "type": "event"
    },
    {
      "anonymous": false,
      "inputs": [
        {
          "indexed": false,
          "internalType": "address",
          "name": "account",
          "type": "address"
        }
      ],
      "name": "Paused",
      "type": "event"
    },
    {
      "anonymous": false,
      "inputs": [
        {
          "indexed": true,
          "internalType": "address",
          "name": "from",
          "type": "address"
        },
        {
          "indexed": true,
          "internalType": "address",
          "name": "to",
          "type": "address"
        },
        {
          "indexed": true,
          "internalType": "uint256",
          "name": "tokenId",
          "type": "uint256"
        }
      ],
      "name": "Transfer",
      "type": "event"
    },
    {
      "anonymous": false,
      "inputs": [
        {
          "indexed": false,
          "internalType": "address",
          "name": "account",
          "type": "address"
        }
      ],
      "name": "Unpaused",
      "type": "event"
    },
    {
      "inputs": [
        {
          "internalType": "address",
          "name": "to",
          "type": "address"
        },
        {
          "internalType": "uint256",
          "name": "tokenId",
          "type": "uint256"
        }
      ],
      "name": "approve",
      "outputs": [],
      "stateMutability": "nonpayable",
      "type": "function"
    },
    {
      "inputs": [
        {
          "internalType": "address",
          "name": "owner",
          "type": "address"
        }
      ],
      "name": "balanceOf",
      "outputs": [
        {
          "internalType": "uint256",
          "name": "",
          "type": "uint256"
        }
      ],
      "stateMutability": "view",
      "type": "function",
      "constant": true
    },
    {
      "inputs": [
        {
          "internalType": "uint256",
          "name": "tokenId",
          "type": "uint256"
        }
      ],
      "name": "burn",
      "outputs": [],
      "stateMutability": "nonpayable",
      "type": "function"
    },
    {
      "inputs": [
        {
          "internalType": "address",
          "name": "",
          "type": "address"
        }
      ],
      "name": "freeNFTList",
      "outputs": [
        {
          "internalType": "bool",
          "name": "",
          "type": "bool"
        }
      ],
      "stateMutability": "view",
      "type": "function",
      "constant": true
    },
    {
      "inputs": [
        {
          "internalType": "uint256",
          "name": "tokenId",
          "type": "uint256"
        }
      ],
      "name": "getApproved",
      "outputs": [
        {
          "internalType": "address",
          "name": "",
          "type": "address"
        }
      ],
      "stateMutability": "view",
      "type": "function",
      "constant": true
    },
    {
      "inputs": [
        {
          "internalType": "address",
          "name": "owner",
          "type": "address"
        },
        {
          "internalType": "address",
          "name": "operator",
          "type": "address"
        }
      ],
      "name": "isApprovedForAll",
      "outputs": [
        {
          "internalType": "bool",
          "name": "",
          "type": "bool"
        }
      ],
      "stateMutability": "view",
      "type": "function",
      "constant": true
    },
    {
      "inputs": [],
      "name": "name",
      "outputs": [
        {
          "internalType": "string",
          "name": "",
          "type": "string"
        }
      ],
      "stateMutability": "view",
      "type": "function",
      "constant": true
    },
    {
      "inputs": [],
      "name": "owner",
      "outputs": [
        {
          "internalType": "address",
          "name": "",
          "type": "address"
        }
      ],
      "stateMutability": "view",
      "type": "function",
      "constant": true
    },
    {
      "inputs": [
        {
          "internalType": "uint256",
          "name": "tokenId",
          "type": "uint256"
        }
      ],
      "name": "ownerOf",
      "outputs": [
        {
          "internalType": "address",
          "name": "",
          "type": "address"
        }
      ],
      "stateMutability": "view",
      "type": "function",
      "constant": true
    },
    {
      "inputs": [],
      "name": "paused",
      "outputs": [
        {
          "internalType": "bool",
          "name": "",
          "type": "bool"
        }
      ],
      "stateMutability": "view",
      "type": "function",
      "constant": true
    },
    {
      "inputs": [],
      "name": "renounceOwnership",
      "outputs": [],
      "stateMutability": "nonpayable",
      "type": "function"
    },
    {
      "inputs": [
        {
          "internalType": "address",
          "name": "from",
          "type": "address"
        },
        {
          "internalType": "address",
          "name": "to",
          "type": "address"
        },
        {
          "internalType": "uint256",
          "name": "tokenId",
          "type": "uint256"
        }
      ],
      "name": "safeTransferFrom",
      "outputs": [],
      "stateMutability": "nonpayable",
      "type": "function"
    },
    {
      "inputs": [
        {
          "internalType": "address",
          "name": "from",
          "type": "address"
        },
        {
          "internalType": "address",
          "name": "to",
          "type": "address"
        },
        {
          "internalType": "uint256",
          "name": "tokenId",
          "type": "uint256"
        },
        {
          "internalType": "bytes",
          "name": "data",
          "type": "bytes"
        }
      ],
      "name": "safeTransferFrom",
      "outputs": [],
      "stateMutability": "nonpayable",
      "type": "function"
    },
    {
      "inputs": [
        {
          "internalType": "address",
          "name": "operator",
          "type": "address"
        },
        {
          "internalType": "bool",
          "name": "approved",
          "type": "bool"
        }
      ],
      "name": "setApprovalForAll",
      "outputs": [],
      "stateMutability": "nonpayable",
      "type": "function"
    },
    {
      "inputs": [],
      "name": "symbol",
      "outputs": [
        {
          "internalType": "string",
          "name": "",
          "type": "string"
        }
      ],
      "stateMutability": "view",
      "type": "function",
      "constant": true
    },
    {
      "inputs": [
        {
          "internalType": "uint256",
          "name": "index",
          "type": "uint256"
        }
      ],
      "name": "tokenByIndex",
      "outputs": [
        {
          "internalType": "uint256",
          "name": "",
          "type": "uint256"
        }
      ],
      "stateMutability": "view",
      "type": "function",
      "constant": true
    },
    {
      "inputs": [
        {
          "internalType": "address",
          "name": "owner",
          "type": "address"
        },
        {
          "internalType": "uint256",
          "name": "index",
          "type": "uint256"
        }
      ],
      "name": "tokenOfOwnerByIndex",
      "outputs": [
        {
          "internalType": "uint256",
          "name": "",
          "type": "uint256"
        }
      ],
      "stateMutability": "view",
      "type": "function",
      "constant": true
    },
    {
      "inputs": [],
      "name": "totalSupply",
      "outputs": [
        {
          "internalType": "uint256",
          "name": "",
          "type": "uint256"
        }
      ],
      "stateMutability": "view",
      "type": "function",
      "constant": true
    },
    {
      "inputs": [
        {
          "internalType": "address",
          "name": "from",
          "type": "address"
        },
        {
          "internalType": "address",
          "name": "to",
          "type": "address"
        },
        {
          "internalType": "uint256",
          "name": "tokenId",
          "type": "uint256"
        }
      ],
      "name": "transferFrom",
      "outputs": [],
      "stateMutability": "nonpayable",
      "type": "function"
    },
    {
      "inputs": [
        {
          "internalType": "address",
          "name": "newOwner",
          "type": "address"
        }
      ],
      "name": "transferOwnership",
      "outputs": [],
      "stateMutability": "nonpayable",
      "type": "function"
    },
    {
      "inputs": [],
      "name": "pause",
      "outputs": [],
      "stateMutability": "nonpayable",
      "type": "function"
    },
    {
      "inputs": [],
      "name": "unpause",
      "outputs": [],
      "stateMutability": "nonpayable",
      "type": "function"
    },
    {
      "inputs": [
        {
          "internalType": "address",
          "name": "to",
          "type": "address"
        },
        {
          "internalType": "string",
          "name": "uri",
          "type": "string"
        }
      ],
      "name": "giveFreeNFT",
      "outputs": [],
      "stateMutability": "payable",
      "type": "function",
      "payable": true
    },
    {
      "inputs": [
        {
          "internalType": "address",
          "name": "to",
          "type": "address"
        },
        {
          "internalType": "string",
          "name": "uri",
          "type": "string"
        }
      ],
      "name": "safeMint",
      "outputs": [],
      "stateMutability": "payable",
      "type": "function",
      "payable": true
    },
    {
      "inputs": [
        {
          "internalType": "address",
          "name": "to",
          "type": "address"
        }
      ],
      "name": "CheckAddress",
      "outputs": [
        {
          "internalType": "string",
          "name": "",
          "type": "string"
        }
      ],
      "stateMutability": "view",
      "type": "function",
      "constant": true
    },
    {
      "inputs": [
        {
          "internalType": "uint256",
          "name": "tokenId",
          "type": "uint256"
        }
      ],
      "name": "tokenURI",
      "outputs": [
        {
          "internalType": "string",
          "name": "",
          "type": "string"
        }
      ],
      "stateMutability": "view",
      "type": "function",
      "constant": true
    },
    {
      "inputs": [
        {
          "internalType": "bytes4",
          "name": "interfaceId",
          "type": "bytes4"
        }
      ],
      "name": "supportsInterface",
      "outputs": [
        {
          "internalType": "bool",
          "name": "",
          "type": "bool"
        }
      ],
      "stateMutability": "view",
      "type": "function",
      "constant": true
    },
    {
      "inputs": [],
      "name": "getBalance",
      "outputs": [
        {
          "internalType": "uint256",
          "name": "",
          "type": "uint256"
        }
      ],
      "stateMutability": "view",
      "type": "function",
      "constant": true
    },
    {
      "inputs": [],
      "name": "withdrawMoney",
      "outputs": [],
      "stateMutability": "nonpayable",
      "type": "function"
    }
  ],
  "bytecode": "0x6080604052662386f26fc10000600c553480156200001c57600080fd5b506040518060400160405280600b81526020017f526f636b6574546f6b656e0000000000000000000000000000000000000000008152506040518060400160405280600681526020017f526f636b6574000000000000000000000000000000000000000000000000000081525081600090816200009a91906200086f565b508060019081620000ac91906200086f565b5050506000600b60006101000a81548160ff021916908315150217905550620000ea620000de6200052760201b60201c565b6200052f60201b60201c565b6001600e60007392a22470b1ec3de435da89e9f0b7183ceb2f371473ffffffffffffffffffffffffffffffffffffffff1673ffffffffffffffffffffffffffffffffffffffff16815260200190815260200160002060006101000a81548160ff0219169083151502179055506001600e6000724660331dd96bfe95ad4d32bf5ef7845a0bc68973ffffffffffffffffffffffffffffffffffffffff1673ffffffffffffffffffffffffffffffffffffffff16815260200190815260200160002060006101000a81548160ff0219169083151502179055506001600e600073e578a5896931207aeb909ba12efc92b88422950a73ffffffffffffffffffffffffffffffffffffffff1673ffffffffffffffffffffffffffffffffffffffff16815260200190815260200160002060006101000a81548160ff0219169083151502179055506001600e6000734221ab4a5a1172ff48bb385d38fba3345342795773ffffffffffffffffffffffffffffffffffffffff1673ffffffffffffffffffffffffffffffffffffffff16815260200190815260200160002060006101000a81548160ff0219169083151502179055506001600e6000734eea12a0b97af76fabdc91b76b1960173dc15e8973ffffffffffffffffffffffffffffffffffffffff1673ffffffffffffffffffffffffffffffffffffffff16815260200190815260200160002060006101000a81548160ff0219169083151502179055506001600e6000736c9e61363f48feac41f9a2469e54994ce745e27473ffffffffffffffffffffffffffffffffffffffff1673ffffffffffffffffffffffffffffffffffffffff16815260200190815260200160002060006101000a81548160ff0219169083151502179055506001600e600073df6efd03c762374c1a840558dd9d3554b4fa365873ffffffffffffffffffffffffffffffffffffffff1673ffffffffffffffffffffffffffffffffffffffff16815260200190815260200160002060006101000a81548160ff0219169083151502179055506001600e600073326a276b46baad8d1019fed693b02ed0ad82fa0173ffffffffffffffffffffffffffffffffffffffff1673ffffffffffffffffffffffffffffffffffffffff16815260200190815260200160002060006101000a81548160ff0219169083151502179055506001600e60007378adae76db2fcc462fe4ad58eb2ed87a1bf05f9f73ffffffffffffffffffffffffffffffffffffffff1673ffffffffffffffffffffffffffffffffffffffff16815260200190815260200160002060006101000a81548160ff0219169083151502179055506001600e60007371c52f19d1cd0bc0a92663ab211e20a7a31ad5bc73ffffffffffffffffffffffffffffffffffffffff1673ffffffffffffffffffffffffffffffffffffffff16815260200190815260200160002060006101000a81548160ff02191690831515021790555062000956565b600033905090565b6000600b60019054906101000a900473ffffffffffffffffffffffffffffffffffffffff16905081600b60016101000a81548173ffffffffffffffffffffffffffffffffffffffff021916908373ffffffffffffffffffffffffffffffffffffffff1602179055508173ffffffffffffffffffffffffffffffffffffffff168173ffffffffffffffffffffffffffffffffffffffff167f8be0079c531659141344cd1fd0a4f28419497f9722a3daafe3b4186f6b6457e060405160405180910390a35050565b600081519050919050565b7f4e487b7100000000000000000000000000000000000000000000000000000000600052604160045260246000fd5b7f4e487b7100000000000000000000000000000000000000000000000000000000600052602260045260246000fd5b600060028204905060018216806200067757607f821691505b6020821081036200068d576200068c6200062f565b5b50919050565b60008190508160005260206000209050919050565b60006020601f8301049050919050565b600082821b905092915050565b600060088302620006f77fffffffffffffffffffffffffffffffffffffffffffffffffffffffffffffffff82620006b8565b620007038683620006b8565b95508019841693508086168417925050509392505050565b6000819050919050565b6000819050919050565b6000620007506200074a62000744846200071b565b62000725565b6200071b565b9050919050565b6000819050919050565b6200076c836200072f565b620007846200077b8262000757565b848454620006c5565b825550505050565b600090565b6200079b6200078c565b620007a881848462000761565b505050565b5b81811015620007d057620007c460008262000791565b600181019050620007ae565b5050565b601f8211156200081f57620007e98162000693565b620007f484620006a8565b8101602085101562000804578190505b6200081c6200081385620006a8565b830182620007ad565b50505b505050565b600082821c905092915050565b6000620008446000198460080262000824565b1980831691505092915050565b60006200085f838362000831565b9150826002028217905092915050565b6200087a82620005f5565b67ffffffffffffffff81111562000896576200089562000600565b5b620008a282546200065e565b620008af828285620007d4565b600060209050601f831160018114620008e75760008415620008d2578287015190505b620008de858262000851565b8655506200094e565b601f198416620008f78662000693565b60005b828110156200092157848901518255600182019150602085019450602081019050620008fa565b868310156200094157848901516200093d601f89168262000831565b8355505b6001600288020188555050505b505050505050565b61417880620009666000396000f3fe6080604052600436106101c25760003560e01c806370a08231116100f7578063a641d97f11610095578063cfd1647111610064578063cfd164711461061f578063d204c45e1461065c578063e985e9c514610678578063f2fde38b146106b5576101c2565b8063a641d97f14610565578063ac446002146105a2578063b88d4fde146105b9578063c87b56dd146105e2576101c2565b80638456cb59116100d15780638456cb59146104cf5780638da5cb5b146104e657806395d89b4114610511578063a22cb4651461053c576101c2565b806370a082311461045f57806370c580431461049c578063715018a6146104b8576101c2565b80632f745c591161016457806342966c681161013e57806342966c68146103915780634f6ccce7146103ba5780635c975abb146103f75780636352211e14610422576101c2565b80632f745c59146103145780633f4ba83a1461035157806342842e0e14610368576101c2565b8063095ea7b3116101a0578063095ea7b31461026c57806312065fe01461029557806318160ddd146102c057806323b872dd146102eb576101c2565b806301ffc9a7146101c757806306fdde0314610204578063081812fc1461022f575b600080fd5b3480156101d357600080fd5b506101ee60048036038101906101e99190612a40565b6106de565b6040516101fb9190612a88565b60405180910390f35b34801561021057600080fd5b506102196106f0565b6040516102269190612b33565b60405180910390f35b34801561023b57600080fd5b5061025660048036038101906102519190612b8b565b610782565b6040516102639190612bf9565b60405180910390f35b34801561027857600080fd5b50610293600480360381019061028e9190612c40565b6107c8565b005b3480156102a157600080fd5b506102aa6108df565b6040516102b79190612c8f565b60405180910390f35b3480156102cc57600080fd5b506102d56108e7565b6040516102e29190612c8f565b60405180910390f35b3480156102f757600080fd5b50610312600480360381019061030d9190612caa565b6108f4565b005b34801561032057600080fd5b5061033b60048036038101906103369190612c40565b610954565b6040516103489190612c8f565b60405180910390f35b34801561035d57600080fd5b506103666109f9565b005b34801561037457600080fd5b5061038f600480360381019061038a9190612caa565b610a0b565b005b34801561039d57600080fd5b506103b860048036038101906103b39190612b8b565b610a2b565b005b3480156103c657600080fd5b506103e160048036038101906103dc9190612b8b565b610a87565b6040516103ee9190612c8f565b60405180910390f35b34801561040357600080fd5b5061040c610af8565b6040516104199190612a88565b60405180910390f35b34801561042e57600080fd5b5061044960048036038101906104449190612b8b565b610b0f565b6040516104569190612bf9565b60405180910390f35b34801561046b57600080fd5b5061048660048036038101906104819190612cfd565b610bc0565b6040516104939190612c8f565b60405180910390f35b6104b660048036038101906104b19190612e5f565b610c77565b005b3480156104c457600080fd5b506104cd610d93565b005b3480156104db57600080fd5b506104e4610da7565b005b3480156104f257600080fd5b506104fb610db9565b6040516105089190612bf9565b60405180910390f35b34801561051d57600080fd5b50610526610de3565b6040516105339190612b33565b60405180910390f35b34801561054857600080fd5b50610563600480360381019061055e9190612ee7565b610e75565b005b34801561057157600080fd5b5061058c60048036038101906105879190612cfd565b610e8b565b6040516105999190612a88565b60405180910390f35b3480156105ae57600080fd5b506105b7610eab565b005b3480156105c557600080fd5b506105e060048036038101906105db9190612fc8565b610f09565b005b3480156105ee57600080fd5b5061060960048036038101906106049190612b8b565b610f6b565b6040516106169190612b33565b60405180910390f35b34801561062b57600080fd5b5061064660048036038101906106419190612cfd565b610f7d565b6040516106539190612b33565b60405180910390f35b61067660048036038101906106719190612e5f565b611018565b005b34801561068457600080fd5b5061069f600480360381019061069a919061304b565b61108e565b6040516106ac9190612a88565b60405180910390f35b3480156106c157600080fd5b506106dc60048036038101906106d79190612cfd565b611122565b005b60006106e9826111a5565b9050919050565b6060600080546106ff906130ba565b80601f016020809104026020016040519081016040528092919081815260200182805461072b906130ba565b80156107785780601f1061074d57610100808354040283529160200191610778565b820191906000526020600020905b81548152906001019060200180831161075b57829003601f168201915b5050505050905090565b600061078d8261121f565b6004600083815260200190815260200160002060009054906101000a900473ffffffffffffffffffffffffffffffffffffffff169050919050565b60006107d382610b0f565b90508073ffffffffffffffffffffffffffffffffffffffff168373ffffffffffffffffffffffffffffffffffffffff1603610843576040517f08c379a000000000000000000000000000000000000000000000000000000000815260040161083a9061315d565b60405180910390fd5b8073ffffffffffffffffffffffffffffffffffffffff1661086261126a565b73ffffffffffffffffffffffffffffffffffffffff16148061089157506108908161088b61126a565b61108e565b5b6108d0576040517f08c379a00000000000000000000000000000000000000000000000000000000081526004016108c7906131ef565b60405180910390fd5b6108da8383611272565b505050565b600047905090565b6000600880549050905090565b6109056108ff61126a565b8261132b565b610944576040517f08c379a000000000000000000000000000000000000000000000000000000000815260040161093b90613281565b60405180910390fd5b61094f8383836113c0565b505050565b600061095f83610bc0565b82106109a0576040517f08c379a000000000000000000000000000000000000000000000000000000000815260040161099790613313565b60405180910390fd5b600660008473ffffffffffffffffffffffffffffffffffffffff1673ffffffffffffffffffffffffffffffffffffffff168152602001908152602001600020600083815260200190815260200160002054905092915050565b610a01611626565b610a096116a4565b565b610a2683838360405180602001604052806000815250610f09565b505050565b610a3c610a3661126a565b8261132b565b610a7b576040517f08c379a0000000000000000000000000000000000000000000000000000000008152600401610a7290613281565b60405180910390fd5b610a8481611707565b50565b6000610a916108e7565b8210610ad2576040517f08c379a0000000000000000000000000000000000000000000000000000000008152600401610ac9906133a5565b60405180910390fd5b60088281548110610ae657610ae56133c5565b5b90600052602060002001549050919050565b6000600b60009054906101000a900460ff16905090565b6000806002600084815260200190815260200160002060009054906101000a900473ffffffffffffffffffffffffffffffffffffffff169050600073ffffffffffffffffffffffffffffffffffffffff168173ffffffffffffffffffffffffffffffffffffffff1603610bb7576040517f08c379a0000000000000000000000000000000000000000000000000000000008152600401610bae90613440565b60405180910390fd5b80915050919050565b60008073ffffffffffffffffffffffffffffffffffffffff168273ffffffffffffffffffffffffffffffffffffffff1603610c30576040517f08c379a0000000000000000000000000000000000000000000000000000000008152600401610c27906134d2565b60405180910390fd5b600360008373ffffffffffffffffffffffffffffffffffffffff1673ffffffffffffffffffffffffffffffffffffffff168152602001908152602001600020549050919050565b60011515600e60008473ffffffffffffffffffffffffffffffffffffffff1673ffffffffffffffffffffffffffffffffffffffff16815260200190815260200160002060009054906101000a900460ff16151514610d0a576040517f08c379a0000000000000000000000000000000000000000000000000000000008152600401610d019061358a565b60405180910390fd5b6000610d16600d611713565b9050610d22600d611721565b610d2c8382611737565b610d368183611755565b6000600e60008573ffffffffffffffffffffffffffffffffffffffff1673ffffffffffffffffffffffffffffffffffffffff16815260200190815260200160002060006101000a81548160ff021916908315150217905550505050565b610d9b611626565b610da560006117c2565b565b610daf611626565b610db7611888565b565b6000600b60019054906101000a900473ffffffffffffffffffffffffffffffffffffffff16905090565b606060018054610df2906130ba565b80601f0160208091040260200160405190810160405280929190818152602001828054610e1e906130ba565b8015610e6b5780601f10610e4057610100808354040283529160200191610e6b565b820191906000526020600020905b815481529060010190602001808311610e4e57829003601f168201915b5050505050905090565b610e87610e8061126a565b83836118eb565b5050565b600e6020528060005260406000206000915054906101000a900460ff1681565b610eb3611626565b60003390508073ffffffffffffffffffffffffffffffffffffffff166108fc610eda6108df565b9081150290604051600060405180830381858888f19350505050158015610f05573d6000803e3d6000fd5b5050565b610f1a610f1461126a565b8361132b565b610f59576040517f08c379a0000000000000000000000000000000000000000000000000000000008152600401610f5090613281565b60405180910390fd5b610f6584848484611a57565b50505050565b6060610f7682611ab3565b9050919050565b606060011515600e60008473ffffffffffffffffffffffffffffffffffffffff1673ffffffffffffffffffffffffffffffffffffffff16815260200190815260200160002060009054906101000a900460ff16151503610ff75760405180606001604052806026815260200161411d602691399050611013565b6040518060800160405280604481526020016140d96044913990505b919050565b600c5434101561105d576040517f08c379a0000000000000000000000000000000000000000000000000000000008152600401611054906135f6565b60405180910390fd5b6000611069600d611713565b9050611075600d611721565b61107f8382611737565b6110898183611755565b505050565b6000600560008473ffffffffffffffffffffffffffffffffffffffff1673ffffffffffffffffffffffffffffffffffffffff16815260200190815260200160002060008373ffffffffffffffffffffffffffffffffffffffff1673ffffffffffffffffffffffffffffffffffffffff16815260200190815260200160002060009054906101000a900460ff16905092915050565b61112a611626565b600073ffffffffffffffffffffffffffffffffffffffff168173ffffffffffffffffffffffffffffffffffffffff1603611199576040517f08c379a000000000000000000000000000000000000000000000000000000000815260040161119090613688565b60405180910390fd5b6111a2816117c2565b50565b60007f780e9d63000000000000000000000000000000000000000000000000000000007bffffffffffffffffffffffffffffffffffffffffffffffffffffffff1916827bffffffffffffffffffffffffffffffffffffffffffffffffffffffff19161480611218575061121782611bc5565b5b9050919050565b61122881611ca7565b611267576040517f08c379a000000000000000000000000000000000000000000000000000000000815260040161125e90613440565b60405180910390fd5b50565b600033905090565b816004600083815260200190815260200160002060006101000a81548173ffffffffffffffffffffffffffffffffffffffff021916908373ffffffffffffffffffffffffffffffffffffffff160217905550808273ffffffffffffffffffffffffffffffffffffffff166112e583610b0f565b73ffffffffffffffffffffffffffffffffffffffff167f8c5be1e5ebec7d5bd14f71427d1e84f3dd0314c0f7b2291e5b200ac8c7c3b92560405160405180910390a45050565b60008061133783610b0f565b90508073ffffffffffffffffffffffffffffffffffffffff168473ffffffffffffffffffffffffffffffffffffffff1614806113795750611378818561108e565b5b806113b757508373ffffffffffffffffffffffffffffffffffffffff1661139f84610782565b73ffffffffffffffffffffffffffffffffffffffff16145b91505092915050565b8273ffffffffffffffffffffffffffffffffffffffff166113e082610b0f565b73ffffffffffffffffffffffffffffffffffffffff1614611436576040517f08c379a000000000000000000000000000000000000000000000000000000000815260040161142d9061371a565b60405180910390fd5b600073ffffffffffffffffffffffffffffffffffffffff168273ffffffffffffffffffffffffffffffffffffffff16036114a5576040517f08c379a000000000000000000000000000000000000000000000000000000000815260040161149c906137ac565b60405180910390fd5b6114b0838383611d13565b6114bb600082611272565b6001600360008573ffffffffffffffffffffffffffffffffffffffff1673ffffffffffffffffffffffffffffffffffffffff168152602001908152602001600020600082825461150b91906137fb565b925050819055506001600360008473ffffffffffffffffffffffffffffffffffffffff1673ffffffffffffffffffffffffffffffffffffffff1681526020019081526020016000206000828254611562919061382f565b92505081905550816002600083815260200190815260200160002060006101000a81548173ffffffffffffffffffffffffffffffffffffffff021916908373ffffffffffffffffffffffffffffffffffffffff160217905550808273ffffffffffffffffffffffffffffffffffffffff168473ffffffffffffffffffffffffffffffffffffffff167fddf252ad1be2c89b69c2b068fc378daa952ba7f163c4a11628f55a4df523b3ef60405160405180910390a4611621838383611d2b565b505050565b61162e61126a565b73ffffffffffffffffffffffffffffffffffffffff1661164c610db9565b73ffffffffffffffffffffffffffffffffffffffff16146116a2576040517f08c379a0000000000000000000000000000000000000000000000000000000008152600401611699906138af565b60405180910390fd5b565b6116ac611d30565b6000600b60006101000a81548160ff0219169083151502179055507f5db9ee0a495bf2e6ff9c91a7834c1ba4fdd244a5e8aa4e537bd38aeae4b073aa6116f061126a565b6040516116fd9190612bf9565b60405180910390a1565b61171081611d79565b50565b600081600001549050919050565b6001816000016000828254019250508190555050565b611751828260405180602001604052806000815250611dcc565b5050565b61175e82611ca7565b61179d576040517f08c379a000000000000000000000000000000000000000000000000000000000815260040161179490613941565b60405180910390fd5b80600a600084815260200190815260200160002090816117bd9190613b0d565b505050565b6000600b60019054906101000a900473ffffffffffffffffffffffffffffffffffffffff16905081600b60016101000a81548173ffffffffffffffffffffffffffffffffffffffff021916908373ffffffffffffffffffffffffffffffffffffffff1602179055508173ffffffffffffffffffffffffffffffffffffffff168173ffffffffffffffffffffffffffffffffffffffff167f8be0079c531659141344cd1fd0a4f28419497f9722a3daafe3b4186f6b6457e060405160405180910390a35050565b611890611e27565b6001600b60006101000a81548160ff0219169083151502179055507f62e78cea01bee320cd4e420270b5ea74000d11b0c9f74754ebdbfc544b05a2586118d461126a565b6040516118e19190612bf9565b60405180910390a1565b8173ffffffffffffffffffffffffffffffffffffffff168373ffffffffffffffffffffffffffffffffffffffff1603611959576040517f08c379a000000000000000000000000000000000000000000000000000000000815260040161195090613c2b565b60405180910390fd5b80600560008573ffffffffffffffffffffffffffffffffffffffff1673ffffffffffffffffffffffffffffffffffffffff16815260200190815260200160002060008473ffffffffffffffffffffffffffffffffffffffff1673ffffffffffffffffffffffffffffffffffffffff16815260200190815260200160002060006101000a81548160ff0219169083151502179055508173ffffffffffffffffffffffffffffffffffffffff168373ffffffffffffffffffffffffffffffffffffffff167f17307eab39ab6107e8899845ad3d59bd9653f200f220920489ca2b5937696c3183604051611a4a9190612a88565b60405180910390a3505050565b611a628484846113c0565b611a6e84848484611e71565b611aad576040517f08c379a0000000000000000000000000000000000000000000000000000000008152600401611aa490613cbd565b60405180910390fd5b50505050565b6060611abe8261121f565b6000600a60008481526020019081526020016000208054611ade906130ba565b80601f0160208091040260200160405190810160405280929190818152602001828054611b0a906130ba565b8015611b575780601f10611b2c57610100808354040283529160200191611b57565b820191906000526020600020905b815481529060010190602001808311611b3a57829003601f168201915b505050505090506000611b68611ff8565b90506000815103611b7d578192505050611bc0565b600082511115611bb2578082604051602001611b9a929190613d19565b60405160208183030381529060405292505050611bc0565b611bbb8461200f565b925050505b919050565b60007f80ac58cd000000000000000000000000000000000000000000000000000000007bffffffffffffffffffffffffffffffffffffffffffffffffffffffff1916827bffffffffffffffffffffffffffffffffffffffffffffffffffffffff19161480611c9057507f5b5e139f000000000000000000000000000000000000000000000000000000007bffffffffffffffffffffffffffffffffffffffffffffffffffffffff1916827bffffffffffffffffffffffffffffffffffffffffffffffffffffffff1916145b80611ca05750611c9f82612077565b5b9050919050565b60008073ffffffffffffffffffffffffffffffffffffffff166002600084815260200190815260200160002060009054906101000a900473ffffffffffffffffffffffffffffffffffffffff1673ffffffffffffffffffffffffffffffffffffffff1614159050919050565b611d1b611e27565b611d268383836120e1565b505050565b505050565b611d38610af8565b611d77576040517f08c379a0000000000000000000000000000000000000000000000000000000008152600401611d6e90613d89565b60405180910390fd5b565b611d82816121f3565b6000600a60008381526020019081526020016000208054611da2906130ba565b905014611dc957600a60008281526020019081526020016000206000611dc89190612977565b5b50565b611dd68383612310565b611de36000848484611e71565b611e22576040517f08c379a0000000000000000000000000000000000000000000000000000000008152600401611e1990613cbd565b60405180910390fd5b505050565b611e2f610af8565b15611e6f576040517f08c379a0000000000000000000000000000000000000000000000000000000008152600401611e6690613df5565b60405180910390fd5b565b6000611e928473ffffffffffffffffffffffffffffffffffffffff166124e9565b15611feb578373ffffffffffffffffffffffffffffffffffffffff1663150b7a02611ebb61126a565b8786866040518563ffffffff1660e01b8152600401611edd9493929190613e6a565b6020604051808303816000875af1925050508015611f1957506040513d601f19601f82011682018060405250810190611f169190613ecb565b60015b611f9b573d8060008114611f49576040519150601f19603f3d011682016040523d82523d6000602084013e611f4e565b606091505b506000815103611f93576040517f08c379a0000000000000000000000000000000000000000000000000000000008152600401611f8a90613cbd565b60405180910390fd5b805181602001fd5b63150b7a0260e01b7bffffffffffffffffffffffffffffffffffffffffffffffffffffffff1916817bffffffffffffffffffffffffffffffffffffffffffffffffffffffff191614915050611ff0565b600190505b949350505050565b606060405180602001604052806000815250905090565b606061201a8261121f565b6000612024611ff8565b90506000815111612044576040518060200160405280600081525061206f565b8061204e8461250c565b60405160200161205f929190613d19565b6040516020818303038152906040525b915050919050565b60007f01ffc9a7000000000000000000000000000000000000000000000000000000007bffffffffffffffffffffffffffffffffffffffffffffffffffffffff1916827bffffffffffffffffffffffffffffffffffffffffffffffffffffffff1916149050919050565b6120ec83838361266c565b600073ffffffffffffffffffffffffffffffffffffffff168373ffffffffffffffffffffffffffffffffffffffff160361212e5761212981612671565b61216d565b8173ffffffffffffffffffffffffffffffffffffffff168373ffffffffffffffffffffffffffffffffffffffff161461216c5761216b83826126ba565b5b5b600073ffffffffffffffffffffffffffffffffffffffff168273ffffffffffffffffffffffffffffffffffffffff16036121af576121aa81612827565b6121ee565b8273ffffffffffffffffffffffffffffffffffffffff168273ffffffffffffffffffffffffffffffffffffffff16146121ed576121ec82826128f8565b5b5b505050565b60006121fe82610b0f565b905061220c81600084611d13565b612217600083611272565b6001600360008373ffffffffffffffffffffffffffffffffffffffff1673ffffffffffffffffffffffffffffffffffffffff168152602001908152602001600020600082825461226791906137fb565b925050819055506002600083815260200190815260200160002060006101000a81549073ffffffffffffffffffffffffffffffffffffffff021916905581600073ffffffffffffffffffffffffffffffffffffffff168273ffffffffffffffffffffffffffffffffffffffff167fddf252ad1be2c89b69c2b068fc378daa952ba7f163c4a11628f55a4df523b3ef60405160405180910390a461230c81600084611d2b565b5050565b600073ffffffffffffffffffffffffffffffffffffffff168273ffffffffffffffffffffffffffffffffffffffff160361237f576040517f08c379a000000000000000000000000000000000000000000000000000000000815260040161237690613f44565b60405180910390fd5b61238881611ca7565b156123c8576040517f08c379a00000000000000000000000000000000000000000000000000000000081526004016123bf90613fb0565b60405180910390fd5b6123d460008383611d13565b6001600360008473ffffffffffffffffffffffffffffffffffffffff1673ffffffffffffffffffffffffffffffffffffffff1681526020019081526020016000206000828254612424919061382f565b92505081905550816002600083815260200190815260200160002060006101000a81548173ffffffffffffffffffffffffffffffffffffffff021916908373ffffffffffffffffffffffffffffffffffffffff160217905550808273ffffffffffffffffffffffffffffffffffffffff16600073ffffffffffffffffffffffffffffffffffffffff167fddf252ad1be2c89b69c2b068fc378daa952ba7f163c4a11628f55a4df523b3ef60405160405180910390a46124e560008383611d2b565b5050565b6000808273ffffffffffffffffffffffffffffffffffffffff163b119050919050565b606060008203612553576040518060400160405280600181526020017f30000000000000000000000000000000000000000000000000000000000000008152509050612667565b600082905060005b6000821461258557808061256e90613fd0565b915050600a8261257e9190614047565b915061255b565b60008167ffffffffffffffff8111156125a1576125a0612d34565b5b6040519080825280601f01601f1916602001820160405280156125d35781602001600182028036833780820191505090505b5090505b60008514612660576001826125ec91906137fb565b9150600a856125fb9190614078565b6030612607919061382f565b60f81b81838151811061261d5761261c6133c5565b5b60200101907effffffffffffffffffffffffffffffffffffffffffffffffffffffffffffff1916908160001a905350600a856126599190614047565b94506125d7565b8093505050505b919050565b505050565b6008805490506009600083815260200190815260200160002081905550600881908060018154018082558091505060019003906000526020600020016000909190919091505550565b600060016126c784610bc0565b6126d191906137fb565b90506000600760008481526020019081526020016000205490508181146127b6576000600660008673ffffffffffffffffffffffffffffffffffffffff1673ffffffffffffffffffffffffffffffffffffffff168152602001908152602001600020600084815260200190815260200160002054905080600660008773ffffffffffffffffffffffffffffffffffffffff1673ffffffffffffffffffffffffffffffffffffffff168152602001908152602001600020600084815260200190815260200160002081905550816007600083815260200190815260200160002081905550505b6007600084815260200190815260200160002060009055600660008573ffffffffffffffffffffffffffffffffffffffff1673ffffffffffffffffffffffffffffffffffffffff16815260200190815260200160002060008381526020019081526020016000206000905550505050565b6000600160088054905061283b91906137fb565b905060006009600084815260200190815260200160002054905060006008838154811061286b5761286a6133c5565b5b90600052602060002001549050806008838154811061288d5761288c6133c5565b5b9060005260206000200181905550816009600083815260200190815260200160002081905550600960008581526020019081526020016000206000905560088054806128dc576128db6140a9565b5b6001900381819060005260206000200160009055905550505050565b600061290383610bc0565b905081600660008573ffffffffffffffffffffffffffffffffffffffff1673ffffffffffffffffffffffffffffffffffffffff168152602001908152602001600020600083815260200190815260200160002081905550806007600084815260200190815260200160002081905550505050565b508054612983906130ba565b6000825580601f1061299557506129b4565b601f0160209004906000526020600020908101906129b391906129b7565b5b50565b5b808211156129d05760008160009055506001016129b8565b5090565b6000604051905090565b600080fd5b600080fd5b60007fffffffff0000000000000000000000000000000000000000000000000000000082169050919050565b612a1d816129e8565b8114612a2857600080fd5b50565b600081359050612a3a81612a14565b92915050565b600060208284031215612a5657612a556129de565b5b6000612a6484828501612a2b565b91505092915050565b60008115159050919050565b612a8281612a6d565b82525050565b6000602082019050612a9d6000830184612a79565b92915050565b600081519050919050565b600082825260208201905092915050565b60005b83811015612add578082015181840152602081019050612ac2565b60008484015250505050565b6000601f19601f8301169050919050565b6000612b0582612aa3565b612b0f8185612aae565b9350612b1f818560208601612abf565b612b2881612ae9565b840191505092915050565b60006020820190508181036000830152612b4d8184612afa565b905092915050565b6000819050919050565b612b6881612b55565b8114612b7357600080fd5b50565b600081359050612b8581612b5f565b92915050565b600060208284031215612ba157612ba06129de565b5b6000612baf84828501612b76565b91505092915050565b600073ffffffffffffffffffffffffffffffffffffffff82169050919050565b6000612be382612bb8565b9050919050565b612bf381612bd8565b82525050565b6000602082019050612c0e6000830184612bea565b92915050565b612c1d81612bd8565b8114612c2857600080fd5b50565b600081359050612c3a81612c14565b92915050565b60008060408385031215612c5757612c566129de565b5b6000612c6585828601612c2b565b9250506020612c7685828601612b76565b9150509250929050565b612c8981612b55565b82525050565b6000602082019050612ca46000830184612c80565b92915050565b600080600060608486031215612cc357612cc26129de565b5b6000612cd186828701612c2b565b9350506020612ce286828701612c2b565b9250506040612cf386828701612b76565b9150509250925092565b600060208284031215612d1357612d126129de565b5b6000612d2184828501612c2b565b91505092915050565b600080fd5b600080fd5b7f4e487b7100000000000000000000000000000000000000000000000000000000600052604160045260246000fd5b612d6c82612ae9565b810181811067ffffffffffffffff82111715612d8b57612d8a612d34565b5b80604052505050565b6000612d9e6129d4565b9050612daa8282612d63565b919050565b600067ffffffffffffffff821115612dca57612dc9612d34565b5b612dd382612ae9565b9050602081019050919050565b82818337600083830152505050565b6000612e02612dfd84612daf565b612d94565b905082815260208101848484011115612e1e57612e1d612d2f565b5b612e29848285612de0565b509392505050565b600082601f830112612e4657612e45612d2a565b5b8135612e56848260208601612def565b91505092915050565b60008060408385031215612e7657612e756129de565b5b6000612e8485828601612c2b565b925050602083013567ffffffffffffffff811115612ea557612ea46129e3565b5b612eb185828601612e31565b9150509250929050565b612ec481612a6d565b8114612ecf57600080fd5b50565b600081359050612ee181612ebb565b92915050565b60008060408385031215612efe57612efd6129de565b5b6000612f0c85828601612c2b565b9250506020612f1d85828601612ed2565b9150509250929050565b600067ffffffffffffffff821115612f4257612f41612d34565b5b612f4b82612ae9565b9050602081019050919050565b6000612f6b612f6684612f27565b612d94565b905082815260208101848484011115612f8757612f86612d2f565b5b612f92848285612de0565b509392505050565b600082601f830112612faf57612fae612d2a565b5b8135612fbf848260208601612f58565b91505092915050565b60008060008060808587031215612fe257612fe16129de565b5b6000612ff087828801612c2b565b945050602061300187828801612c2b565b935050604061301287828801612b76565b925050606085013567ffffffffffffffff811115613033576130326129e3565b5b61303f87828801612f9a565b91505092959194509250565b60008060408385031215613062576130616129de565b5b600061307085828601612c2b565b925050602061308185828601612c2b565b9150509250929050565b7f4e487b7100000000000000000000000000000000000000000000000000000000600052602260045260246000fd5b600060028204905060018216806130d257607f821691505b6020821081036130e5576130e461308b565b5b50919050565b7f4552433732313a20617070726f76616c20746f2063757272656e74206f776e6560008201527f7200000000000000000000000000000000000000000000000000000000000000602082015250565b6000613147602183612aae565b9150613152826130eb565b604082019050919050565b600060208201905081810360008301526131768161313a565b9050919050565b7f4552433732313a20617070726f76652063616c6c6572206973206e6f7420746f60008201527f6b656e206f776e6572206e6f7220617070726f76656420666f7220616c6c0000602082015250565b60006131d9603e83612aae565b91506131e48261317d565b604082019050919050565b60006020820190508181036000830152613208816131cc565b9050919050565b7f4552433732313a2063616c6c6572206973206e6f7420746f6b656e206f776e6560008201527f72206e6f7220617070726f766564000000000000000000000000000000000000602082015250565b600061326b602e83612aae565b91506132768261320f565b604082019050919050565b6000602082019050818103600083015261329a8161325e565b9050919050565b7f455243373231456e756d657261626c653a206f776e657220696e646578206f7560008201527f74206f6620626f756e6473000000000000000000000000000000000000000000602082015250565b60006132fd602b83612aae565b9150613308826132a1565b604082019050919050565b6000602082019050818103600083015261332c816132f0565b9050919050565b7f455243373231456e756d657261626c653a20676c6f62616c20696e646578206f60008201527f7574206f6620626f756e64730000000000000000000000000000000000000000602082015250565b600061338f602c83612aae565b915061339a82613333565b604082019050919050565b600060208201905081810360008301526133be81613382565b9050919050565b7f4e487b7100000000000000000000000000000000000000000000000000000000600052603260045260246000fd5b7f4552433732313a20696e76616c696420746f6b656e2049440000000000000000600082015250565b600061342a601883612aae565b9150613435826133f4565b602082019050919050565b600060208201905081810360008301526134598161341d565b9050919050565b7f4552433732313a2061646472657373207a65726f206973206e6f74206120766160008201527f6c6964206f776e65720000000000000000000000000000000000000000000000602082015250565b60006134bc602983612aae565b91506134c782613460565b604082019050919050565b600060208201905081810360008301526134eb816134af565b9050919050565b7f596f7520616c6c7265616479206861766520796f75722066726565204e46542060008201527f6f7220796f75722061646472657373206973206e6f74207065726d697420746f60208201527f2067657420612066726565204e46540000000000000000000000000000000000604082015250565b6000613574604f83612aae565b915061357f826134f2565b606082019050919050565b600060208201905081810360008301526135a381613567565b9050919050565b7f4e6f7420656e6f75676820455448207761732073656e74000000000000000000600082015250565b60006135e0601783612aae565b91506135eb826135aa565b602082019050919050565b6000602082019050818103600083015261360f816135d3565b9050919050565b7f4f776e61626c653a206e6577206f776e657220697320746865207a65726f206160008201527f6464726573730000000000000000000000000000000000000000000000000000602082015250565b6000613672602683612aae565b915061367d82613616565b604082019050919050565b600060208201905081810360008301526136a181613665565b9050919050565b7f4552433732313a207472616e736665722066726f6d20696e636f72726563742060008201527f6f776e6572000000000000000000000000000000000000000000000000000000602082015250565b6000613704602583612aae565b915061370f826136a8565b604082019050919050565b60006020820190508181036000830152613733816136f7565b9050919050565b7f4552433732313a207472616e7366657220746f20746865207a65726f2061646460008201527f7265737300000000000000000000000000000000000000000000000000000000602082015250565b6000613796602483612aae565b91506137a18261373a565b604082019050919050565b600060208201905081810360008301526137c581613789565b9050919050565b7f4e487b7100000000000000000000000000000000000000000000000000000000600052601160045260246000fd5b600061380682612b55565b915061381183612b55565b9250828203905081811115613829576138286137cc565b5b92915050565b600061383a82612b55565b915061384583612b55565b925082820190508082111561385d5761385c6137cc565b5b92915050565b7f4f776e61626c653a2063616c6c6572206973206e6f7420746865206f776e6572600082015250565b6000613899602083612aae565b91506138a482613863565b602082019050919050565b600060208201905081810360008301526138c88161388c565b9050919050565b7f45524337323155524953746f726167653a2055524920736574206f66206e6f6e60008201527f6578697374656e7420746f6b656e000000000000000000000000000000000000602082015250565b600061392b602e83612aae565b9150613936826138cf565b604082019050919050565b6000602082019050818103600083015261395a8161391e565b9050919050565b60008190508160005260206000209050919050565b60006020601f8301049050919050565b600082821b905092915050565b6000600883026139c37fffffffffffffffffffffffffffffffffffffffffffffffffffffffffffffffff82613986565b6139cd8683613986565b95508019841693508086168417925050509392505050565b6000819050919050565b6000613a0a613a05613a0084612b55565b6139e5565b612b55565b9050919050565b6000819050919050565b613a24836139ef565b613a38613a3082613a11565b848454613993565b825550505050565b600090565b613a4d613a40565b613a58818484613a1b565b505050565b5b81811015613a7c57613a71600082613a45565b600181019050613a5e565b5050565b601f821115613ac157613a9281613961565b613a9b84613976565b81016020851015613aaa578190505b613abe613ab685613976565b830182613a5d565b50505b505050565b600082821c905092915050565b6000613ae460001984600802613ac6565b1980831691505092915050565b6000613afd8383613ad3565b9150826002028217905092915050565b613b1682612aa3565b67ffffffffffffffff811115613b2f57613b2e612d34565b5b613b3982546130ba565b613b44828285613a80565b600060209050601f831160018114613b775760008415613b65578287015190505b613b6f8582613af1565b865550613bd7565b601f198416613b8586613961565b60005b82811015613bad57848901518255600182019150602085019450602081019050613b88565b86831015613bca5784890151613bc6601f891682613ad3565b8355505b6001600288020188555050505b505050505050565b7f4552433732313a20617070726f766520746f2063616c6c657200000000000000600082015250565b6000613c15601983612aae565b9150613c2082613bdf565b602082019050919050565b60006020820190508181036000830152613c4481613c08565b9050919050565b7f4552433732313a207472616e7366657220746f206e6f6e20455243373231526560008201527f63656976657220696d706c656d656e7465720000000000000000000000000000602082015250565b6000613ca7603283612aae565b9150613cb282613c4b565b604082019050919050565b60006020820190508181036000830152613cd681613c9a565b9050919050565b600081905092915050565b6000613cf382612aa3565b613cfd8185613cdd565b9350613d0d818560208601612abf565b80840191505092915050565b6000613d258285613ce8565b9150613d318284613ce8565b91508190509392505050565b7f5061757361626c653a206e6f7420706175736564000000000000000000000000600082015250565b6000613d73601483612aae565b9150613d7e82613d3d565b602082019050919050565b60006020820190508181036000830152613da281613d66565b9050919050565b7f5061757361626c653a2070617573656400000000000000000000000000000000600082015250565b6000613ddf601083612aae565b9150613dea82613da9565b602082019050919050565b60006020820190508181036000830152613e0e81613dd2565b9050919050565b600081519050919050565b600082825260208201905092915050565b6000613e3c82613e15565b613e468185613e20565b9350613e56818560208601612abf565b613e5f81612ae9565b840191505092915050565b6000608082019050613e7f6000830187612bea565b613e8c6020830186612bea565b613e996040830185612c80565b8181036060830152613eab8184613e31565b905095945050505050565b600081519050613ec581612a14565b92915050565b600060208284031215613ee157613ee06129de565b5b6000613eef84828501613eb6565b91505092915050565b7f4552433732313a206d696e7420746f20746865207a65726f2061646472657373600082015250565b6000613f2e602083612aae565b9150613f3982613ef8565b602082019050919050565b60006020820190508181036000830152613f5d81613f21565b9050919050565b7f4552433732313a20746f6b656e20616c7265616479206d696e74656400000000600082015250565b6000613f9a601c83612aae565b9150613fa582613f64565b602082019050919050565b60006020820190508181036000830152613fc981613f8d565b9050919050565b6000613fdb82612b55565b91507fffffffffffffffffffffffffffffffffffffffffffffffffffffffffffffffff820361400d5761400c6137cc565b5b600182019050919050565b7f4e487b7100000000000000000000000000000000000000000000000000000000600052601260045260246000fd5b600061405282612b55565b915061405d83612b55565b92508261406d5761406c614018565b5b828204905092915050565b600061408382612b55565b915061408e83612b55565b92508261409e5761409d614018565b5b828206905092915050565b7f4e487b7100000000000000000000000000000000000000000000000000000000600052603160045260246000fdfe54686973206164647265737320616c6c72656164792068616420612066726565204e4654206f72206e6f2076616c696420616464726573732069732070726f76696465645468697320616464726573732063616e207374696c6c2067657420612066726565204e465421a264697066735822122027d5022acedb05a900c40eedb06c12fe011677aa172431e15207e9407199edf164736f6c63430008100033",
  "immutableReferences": {},
  "source": "// SPDX-License-Identifier: MIT\r\npragma solidity ^0.8.4;\r\n\r\nimport \"@openzeppelin/contracts/token/ERC721/ERC721.sol\";\r\nimport \"@openzeppelin/contracts/token/ERC721/extensions/ERC721Enumerable.sol\";\r\nimport \"@openzeppelin/contracts/token/ERC721/extensions/ERC721URIStorage.sol\";\r\nimport \"@openzeppelin/contracts/security/Pausable.sol\";\r\nimport \"@openzeppelin/contracts/access/Ownable.sol\";\r\nimport \"@openzeppelin/contracts/token/ERC721/extensions/ERC721Burnable.sol\";\r\nimport \"@openzeppelin/contracts/utils/Counters.sol\";\r\n\r\ncontract RocketToken is ERC721, ERC721Enumerable, ERC721URIStorage, Pausable, Ownable, ERC721Burnable {\r\n    using Counters for Counters.Counter;\r\n    uint cost =  0.01 ether; \r\n    Counters.Counter private _tokenIdCounter;\r\n    mapping(address => bool) public freeNFTList;\r\n\r\n    constructor() ERC721(\"RocketToken\", \"Rocket\") {            \r\n        freeNFTList[0x92A22470b1eC3DE435Da89E9f0B7183cEB2f3714] = true;\r\n        freeNFTList[0x004660331dd96BfE95Ad4D32bf5EF7845a0Bc689] = true;\r\n        freeNFTList[0xe578a5896931207AEb909Ba12EFc92b88422950a] = true;\r\n        freeNFTList[0x4221ab4A5A1172FF48bB385d38fBa33453427957] = true;\r\n        freeNFTList[0x4eeA12a0B97af76FaBDC91b76B1960173DC15e89] = true;\r\n        freeNFTList[0x6c9e61363F48fEAc41f9a2469E54994Ce745E274] = true;\r\n        freeNFTList[0xDf6EfD03c762374c1a840558dD9d3554B4fa3658] = true;\r\n        freeNFTList[0x326a276b46BAaD8d1019fEd693B02ED0ad82FA01] = true;\r\n        freeNFTList[0x78aDae76DB2FcC462Fe4AD58Eb2ED87a1bF05F9f] = true;\r\n        freeNFTList[0x71c52f19d1cd0bC0a92663ab211E20a7a31Ad5BC] = true;\r\n\r\n        }\r\n\r\n    function pause() public onlyOwner {\r\n        _pause();\r\n    }\r\n\r\n    function unpause() public onlyOwner {\r\n        _unpause();\r\n    }\r\n    \r\n        function giveFreeNFT(address to, string memory uri) public payable{\r\n        require(freeNFTList[to] == true, \"You allready have your free NFT or your address is not permit to get a free NFT\");\r\n        uint256 tokenId = _tokenIdCounter.current();\r\n        _tokenIdCounter.increment();\r\n        _safeMint(to, tokenId);\r\n        _setTokenURI(tokenId, uri);\r\n        freeNFTList[to] = false;\r\n    }\r\n\r\n    function safeMint(address to, string memory uri) public payable{\r\n        require(msg.value >= cost, \"Not enough ETH was sent\");\r\n        uint256 tokenId = _tokenIdCounter.current();\r\n        _tokenIdCounter.increment();\r\n        _safeMint(to, tokenId);\r\n        _setTokenURI(tokenId, uri);\r\n    }\r\n\r\n        function CheckAddress(address to) view public returns(string memory) {\r\n            \r\n          // bytes memory tempAddress = bytes(to);\r\n            //require(freeNFTList[to] == true, \"This address is not in the get free NFT list or no valid address is provided\");\r\n            if(freeNFTList[to] == true){\r\n                return \"This address can still get a free NFT!\";\r\n            }else{\r\n                return \"This address allready had a free NFT or no valid address is provided\";\r\n            }\r\n            \r\n    }\r\n\r\n    function _beforeTokenTransfer(address from, address to, uint256 tokenId)\r\n        internal\r\n        whenNotPaused\r\n        override(ERC721, ERC721Enumerable)\r\n    {\r\n        super._beforeTokenTransfer(from, to, tokenId);\r\n    }\r\n\r\n    // The following functions are overrides required by Solidity.\r\n\r\n    function _burn(uint256 tokenId) internal override(ERC721, ERC721URIStorage) {\r\n        super._burn(tokenId);\r\n    }\r\n\r\n    function tokenURI(uint256 tokenId)\r\n        public\r\n        view\r\n        override(ERC721, ERC721URIStorage)\r\n        returns (string memory)\r\n    {\r\n        return super.tokenURI(tokenId);\r\n    }\r\n\r\n    function supportsInterface(bytes4 interfaceId)\r\n        public\r\n        view\r\n        override(ERC721, ERC721Enumerable)\r\n        returns (bool)\r\n    {\r\n        return super.supportsInterface(interfaceId);\r\n    }\r\n\r\n    function getBalance() public view returns(uint) {\r\n        return address(this).balance;\r\n    }\r\n\r\n        function withdrawMoney() public onlyOwner{\r\n        address payable to = payable(msg.sender);\r\n        to.transfer(getBalance());\r\n    }\r\n}",
  "sourcePath": "/mnt/c/Users/Francis/documents/Rocket_Elevators_Blockchain/contracts/RocketToken.sol",
  "compiler": {
    "name": "solc",
    "version": "0.8.16+commit.07a7930e.Emscripten.clang"
  },
  "schemaVersion": "3.4.9",
  "updatedAt": "2022-08-24T16:37:37.921Z",
  "networkType": "ethereum",
  "devdoc": {
    "kind": "dev",
    "methods": {
      "approve(address,uint256)": {
        "details": "See {IERC721-approve}."
      },
      "balanceOf(address)": {
        "details": "See {IERC721-balanceOf}."
      },
      "burn(uint256)": {
        "details": "Burns `tokenId`. See {ERC721-_burn}. Requirements: - The caller must own `tokenId` or be an approved operator."
      },
      "getApproved(uint256)": {
        "details": "See {IERC721-getApproved}."
      },
      "isApprovedForAll(address,address)": {
        "details": "See {IERC721-isApprovedForAll}."
      },
      "name()": {
        "details": "See {IERC721Metadata-name}."
      },
      "owner()": {
        "details": "Returns the address of the current owner."
      },
      "ownerOf(uint256)": {
        "details": "See {IERC721-ownerOf}."
      },
      "paused()": {
        "details": "Returns true if the contract is paused, and false otherwise."
      },
      "renounceOwnership()": {
        "details": "Leaves the contract without owner. It will not be possible to call `onlyOwner` functions anymore. Can only be called by the current owner. NOTE: Renouncing ownership will leave the contract without an owner, thereby removing any functionality that is only available to the owner."
      },
      "safeTransferFrom(address,address,uint256)": {
        "details": "See {IERC721-safeTransferFrom}."
      },
      "safeTransferFrom(address,address,uint256,bytes)": {
        "details": "See {IERC721-safeTransferFrom}."
      },
      "setApprovalForAll(address,bool)": {
        "details": "See {IERC721-setApprovalForAll}."
      },
      "symbol()": {
        "details": "See {IERC721Metadata-symbol}."
      },
      "tokenByIndex(uint256)": {
        "details": "See {IERC721Enumerable-tokenByIndex}."
      },
      "tokenOfOwnerByIndex(address,uint256)": {
        "details": "See {IERC721Enumerable-tokenOfOwnerByIndex}."
      },
      "totalSupply()": {
        "details": "See {IERC721Enumerable-totalSupply}."
      },
      "transferFrom(address,address,uint256)": {
        "details": "See {IERC721-transferFrom}."
      },
      "transferOwnership(address)": {
        "details": "Transfers ownership of the contract to a new account (`newOwner`). Can only be called by the current owner."
      }
    },
    "version": 1
  },
  "userdoc": {
    "kind": "user",
    "methods": {},
    "version": 1
  }
}